:060000000A128A110C280F
:10000800FE00030EF0000A08F1000A168A11662E97
:100018000A128A110F280A128A11FF270A128A1156
:10002800FB0083160313A001A101A201A301A401EF
:10003800A501A601A701A801A901AA01AB01AC016C
:10004800AD01AE0183120313E901FA0183010A121B
:100058008A152B2A83160313B300831203135C0833
:10006800F5005B08F4005A08F3005908F2000A1278
:100078008A1183270A128A11730883160313B000A2
:100088007208AF00BA01BB01B801B9010130BC0068
:100098000030BD00831203135C08F5005B08F40010
:1000A8005A08F3005908F2000030F9000030F8004F
:1000B8000030F7000030F6000A128A1587210A126C
:1000C8008A11031868286928B728BF3083120313D8
:1000D800C2008030C1000030C0000030BF005C08A2
:1000E800C6005B08C5005A08C4005908C3000A12B4
:1000F8008A1122240A128A11831203134208DC008F
:100108004108DB004008DA003F08D9002D30DF0045
:100118008316031333088400831203135F088313C1
:100128008000013083160313B8070318B90A00309A
:10013800B907B7280A30F2000030F3003008F5009C
:100148002F08F4000A128A158E200A128A117308E1
:1001580083160313B0007208AF000130BA07031802
:10016800BB0A0030BB07831603132F083004031D96
:10017800BE28BF289E28DB293A033B04031DC52857
:10018800C628CB280130BC000030BD000D29023044
:10019800B1000030B200F728831603133D0883121C
:1001A8000313A600831603133C0883120313A50048
:1001B8000A30A7000030A8000A168A116A270A1216
:1001C8008A1183120313260883160313BD008312B2
:1001D8000313250883160313BC000130B107031865
:1001E800B20A0030B2073B08803A83120313DF00DB
:1001F800831603133208803A831203135F02031D28
:1002080009298316031331083A0203180C290D290A
:10021800D028831603133C0883120313A9008316FE
:1002280003133D0883120313AA000030AA1BFF30F2
:10023800AB00AC0001300A128A15DF220A128A11BB
:10024800831203132C08BA002B08B9002A08B80037
:100258002908B7005C08BE005B08BD005A08BC004E
:100268005908BB000A128A159B230A128A118312A5
:1002780003133A0883160313B700831203133908CC
:1002880083160313B6008312031338088316031367
:10029800B50083120313370883160313B4003D080F
:1002A80083120313A800831603133C088312031355
:1002B800A700831603133708F5003608F40035083D
:1002C800F3003408F2000A128A1183270A128A11ED
:1002D800730883120313A6007208A5000A168A1170
:1002E8006A270A128A11831203132508A90026080F
:1002F800AA000030AA1BFF30AB00AC0001300A1284
:100308008A15DF220A128A11831203132C08BA00F5
:100318002B08B9002A08B8002908B7005C08BE00F5
:100328005B08BD005A08BC005908BB000A168A11B0
:1003380046270A128A11831203133A08DC00390887
:10034800DB003808DA003708D900831603133708AA
:10035800F5003608F4003508F3003408F2000A12F4
:100368008A1183270A128A117208303E83120313F6
:10037800DF00831603133808330783120313E000E2
:10038800600884005F08831380000130831603131C
:10039800B8070318B90A0030B907FF30BA070318BD
:1003A800BB0AFF30BB070130BC000030BD003A0873
:1003B8003B04031DE029E129C0282E3083120313D2
:1003C800DF00831603133808330783120313E00092
:1003D800600884005F0883138000013083160313CC
:1003E800B8070318B90A0030B9070130B100003066
:1003F800B200252A831603133D0883120313A600AF
:10040800831603133C0883120313A5000A30A700C0
:100418000030A8000A168A116A270A128A11831264
:100428000313260883160313BD008312031325083C
:1004380083160313BC000130B1070318B20A003059
:10044800B207831203135E08803ADF008316031392
:100458003208803A831203135F02031D392A831678
:1004680003133108831203135D0203183C2A3D2A43
:10047800FE29831603133C0883120313A90083166D
:1004880003133D0883120313AA000030AA1BFF3090
:10049800AB00AC0001300A128A15DF220A128A1159
:1004A800831203132C08C2002B08C1002A08C000BD
:1004B8002908BF005C08F5005B08F4005A08F3003F
:1004C8005908F2000A128A1183270A128A1172083F
:1004D80083120313A9007308AA000030AA1BFF3077
:1004E800AB00AC0001300A128A15DF220A128A1109
:1004F800831203132C08BA002B08B9002A08B80085
:100508002908B7005C08BE005B08BD005A08BC009B
:100518005908BB000A168A1146270A128A11831243
:1005280003133A08C6003908C5003808C40037085C
:10053800C3000A128A1122240A128A118312031391
:10054800420883160313B700831203134108831666
:100558000313B60083120313400883160313B50070
:10056800831203133F0883160313B400370883125A
:100578000313DC0083160313360883120313DB000E
:1005880083160313350883120313DA008316031343
:10059800340883120313D9005C08F5005B08F400E3
:1005A8005A08F3005908F2000A128A1183270A121E
:1005B8008A11013083160313BC000030BD0083127A
:1005C80003135E0883160313BB00831203135D082D
:1005D80083160313BA000B2C3A033B04031DF52AB8
:1005E800F62AFB2A0130BC000030BD003D2B02304A
:1005F800B1000030B200272B831603133D08831285
:100608000313A600831603133C0883120313A500E3
:100618000A30A7000030A8000A168A116A270A12B1
:100628008A1183120313260883160313BD0083124D
:100638000313250883160313BC000130B107031800
:10064800B20A0030B2073B08803A83120313DF0076
:10065800831603133208803A831203135F02031DC3
:10066800392B8316031331083A0203183C2B3D2B10
:10067800002B831603133C0883120313A900831667
:1006880003133D0883120313AA000030AA1BFF308E
:10069800AB00AC0001300A128A15DF220A128A1157
:1006A800831203132C08BA002B08B9002A08B800D3
:1006B8002908B7005C08BE005B08BD005A08BC00EA
:1006C8005908BB000A128A159B230A128A11831241
:1006D80003133A0883160313B70083120313390868
:1006E80083160313B6008312031338088316031303
:1006F800B50083120313370883160313B4003D08AB
:1007080083120313A800831603133C0883120313F0
:10071800A700831603133708F5003608F4003508D8
:10072800F3003408F2000A128A1183270A128A1188
:10073800730883120313A6007208A5000A168A110B
:100748006A270A128A11831203132508A9002608AA
:10075800AA000030AA1BFF30AB00AC0001300A121F
:100768008A15DF220A128A11831203132C08BA0091
:100778002B08B9002A08B8002908B7005C08BE0091
:100788005B08BD005A08BC005908BB000A168A114C
:1007980046270A128A11831203133A08DC00390823
:1007A800DB003808DA003708D90083160313370846
:1007B800F5003608F4003508F3003408F2000A1290
:1007C8008A1183270A128A117208303E8312031392
:1007D800DF00831603133808330783120313E0007E
:1007E800600884005F0883138000013083160313B8
:1007F800B8070318B90A0030B907FF30BA07031859
:10080800BB0AFF30BB070130BC000030BD003A080E
:100818003B04031D102C112CF02A0A3083120313F9
:10082800DF00831603133808330783120313E0002D
:10083800600884005F088313800008008312031394
:1008480042088039C7004708CC004208C70047075C
:10085800C8004808D200C11F322C332C342C521443
:1008680052080319382C392C482C520A031D3D2CE8
:100878003E2C462C0030C2000030C1000030C000C1
:100888000030BF00C117502C0030C2000030C1003A
:100898000030C0000030BF0046088039C700470854
:1008A800CC064608C7004707C8004808CD00C51F42
:1008B8005E2C5F2C602C4D144D080319642C652C9C
:1008C800742C4D0A031D692C6A2C722C0030C6004A
:1008D8000030C5000030C4000030C300C5177C2CB0
:1008E8000030C6000030C5000030C4000030C3002E
:1008F8004D080319802C812C862C5208031D852C49
:10090800862C8F2C0030C2000030C1000030C0009F
:100918000030BF00822F3F08C7004708F200450893
:100928000A168A1191270A128A117308831203136F
:10093800D8007208D7005708C700C801C901CA0102
:100948004A08D1004908D0004808CF004708CE001F
:100958005808C700C801C901CA014A08D600490891
:10096800D5004808D4004708D3004008C700470806
:10097800F20044080A168A1191270A128A1173088C
:1009880083120313D8007208D7005708C700C8019C
:10099800C901CA014708CE07480803110318013ED8
:1009A8000319D72CCF07490803110318013E03196F
:1009B800DE2CD0074A0803110318013E0319E52C61
:1009C800D1075808C700C801C901CA014708D30799
:1009D800480803110318013E0319F32CD4074908EA
:1009E80003110318013E0319FA2CD5074A0803110D
:1009F8000318013E0319012DD6074108C70047080F
:100A0800F20043080A168A1191270A128A117308FC
:100A180083120313D8007208D7005708C700C8010B
:100A2800C901CA014708CE07480803110318013E47
:100A380003191F2DCF07490803110318013E031995
:100A4800262DD0074A0803110318013E03192D2D3E
:100A5800D1075808C700C801C901CA014708D30708
:100A6800480803110318013E03193B2DD407490810
:100A780003110318013E0319422DD5074A08031133
:100A88000318013E0319492DD6070830C700031083
:100A9800CE0DCF0DD00DD10DC70B4B2D4008C70083
:100AA8004708F20043080A168A1191270A128A1188
:100AB800730883120313D8007208D7005708C700B9
:100AC8005808C800C901CA014708CE0748080311D9
:100AD8000318013E0319712DCF07490803110318A4
:100AE800013E0319782DD0074A0803110318013E67
:100AF80003197F2DD1073F08C7004708F2004408B3
:100B08000A168A1191270A128A117308831203138D
:100B1800D8007208D7005708C7005808C800C9018C
:100B2800CA014708CE07480803110318013E0319F4
:100B38009E2DCF07490803110318013E0319A52D5F
:100B4800D0074A0803110318013E0319AC2DD10739
:100B58000830C7000310CE0DCF0DD00DD10DC70B37
:100B6800AE2D3F08C7004708F20043080A168A114D
:100B780091270A128A11730883120313D800720886
:100B8800D7005708C7005808C800C901CA01470854
:100B9800CE07480803110318013E0319D42DCF07C7
:100BA800490803110318013E0319DB2DD0074A0831
:100BB80003110318013E0319E22DD1074008C700AD
:100BC8004708F20045080A168A1191270A128A1165
:100BD800730883120313D8007208D7005708C70098
:100BE8005808C800C901CA014708D30748080311B3
:100BF8000318013E0319012ED407490803110318ED
:100C0800013E0319082ED5074A0803110318013EAF
:100C180003190F2ED6074108C7004708F2004408F9
:100C28000A168A1191270A128A117308831203136C
:100C3800D8007208D7005708C7005808C800C9016B
:100C4800CA014708D307480803110318013E0319CE
:100C58002E2ED407490803110318013E0319352E17
:100C6800D5074A0803110318013E03193C2ED6077D
:100C78004108C7004708F20045080A168A1191275B
:100C88000A128A11730883120313D8007208D70056
:100C98005708C7005808C800C901CA01083003101E
:100CA800C70DC80DC90DCA0DFF3E031D532E4708B9
:100CB800D307480803110318013E0319642ED4070B
:100CC800490803110318013E03196B2ED5074A087A
:100CD80003110318013E0319722ED6074E08C700E8
:100CE8004F08C8005008C9005108CA00183003103E
:100CF800CA0CC90CC80CC70CFF3E031D7B2E470845
:100D0800D307480803110318013E03198C2ED40792
:100D1800490803110318013E0319932ED5074A0801
:100D280003110318013E03199A2ED6070830C7008D
:100D38000310CE0DCF0DD00DD10DC70B9C2E520830
:100D48004D07C700C801C80D4708823ED7004808AC
:100D58000318013EFF3ED800CE2E0130C700031015
:100D6800D30DD40DD50DD60DC70BB32ED11FBD2E67
:100D7800BE2EBF2E53140130C7000310CE0DCF0D69
:100D8800D00DD10DC70BC12EFF30D7070318D80AD5
:100D9800FF30D807D51FD12ED22EB12ECD01D11FAD
:100DA800D62ED72EF32EFF304E05C700FF304F0545
:100DB800C800FF305005C9007F305105CA004A08F5
:100DC8004904480447040319EA2EEB2EEE2ECD0100
:100DD800CD0AF32E531CF12EF22EF32EEB2E4D08D6
:100DE8000319F72EF82E292F0130D30700300318E6
:100DF8000130D407003003180130D507003003183C
:100E08000130D607561C092F0A2F292F5308C7006F
:100E18005408C8005508C9005608CA000130CB005C
:100E28004A0DCA0CC90CC80CC70CCB0B142F4A08A6
:100E3800D6004908D5004808D4004708D300013037
:100E4800D7070318D80A0030D8075808803AFF0097
:100E580080307F02031D322FFF305702031C352FCD
:100E6800362F412F7F3083120313D6008030D500F0
:100E78000030D4000030D300762F831203135808B3
:100E8800803AFF0080307F02031D4C2F013057024B
:100E980003184F2F502F5C2F003083120313D600F6
:100EA8000030D5000030D4000030D300CC01762FBC
:100EB800831203135708C7004708D200FF30D30531
:100EC800FF30D4057F30D5050030D605521C6D2F74
:100ED8006E2F6F2FD5175208C7000310470CC80094
:100EE8004808D6004C08C7004708D6045608C20070
:100EF8005508C1005408C0005308BF00080003107B
:100F0800740D750D83120313A0002008F7007708ED
:100F1800031D8F2F902F992F0030F5000030F4001B
:100F28000030F3000030F200FE2F7208A0007308B2
:100F3800A1007408A2007508A3001F300310A30CB9
:100F4800A20CA10CA00CFF3E031DA22F2008A40098
:100F58002408F600F417FF30F205FF30F305FF30E0
:100F6800F4050030F5059630F702F71FBC2FBD2FAA
:100F7800D72F7708803A973E0318C32FC42FC52F61
:100F8800902F01300310F50CF40CF30CF20CFF3E1B
:100F9800031DC62F0130A0002008F707031DD52F19
:100FA800D62FC52FEE2F20307702031CDC2FDD2F24
:100FB800E92F902F0130A0000310F20DF30DF40D6E
:100FC800F50DA00BE02F0130F7027708031DED2F78
:100FD800EE2FDE2F76080319F22FF32FFE2FF209DA
:100FE800F309F409F509F20A0319F30A0319F40AD3
:100FF8000319F50A08000834FF1B0A2883137F1811
:1010080083170008840A0319FF0A080008308A00B9
:101018000408840A820700342034203420344D34F4
:101028006F346E34653464346134733420343D3441
:101038002034513430342E343034303400342034B9
:1010480031342E34303430342034203430342E349B
:10105800353420342034203430342E34323435348E
:101068000034203420342034203420344D346F347C
:101078006E346534643461346E3461346934743484
:101088006F3472340034203420345134753465346C
:0E10980074347A3461346C346534733400344B
:1010AC00F90078287808BF3E0A168A11D7260A124A
:1010BC008A158D287808933E0A168A11D7260A12AB
:1010CC008A158D287808D33E0A168A11D7260A125B
:1010DC008A158D2878087F3E0A168A11D7260A129F
:1010EC008A158D28790883120313A000A101210809
:1010FC00003A0319822870282008023A031958284C
:10110C00013A03196028073A031968287028080067
:10111C0083120313A101F31F942895289C28F2092C
:10112C00F309F20A0319F30AA101A10AF51F9F287A
:10113C00A028A928F409F509F40A0319F50A0130C5
:10114C00F6007608A106A201A30172087304031924
:10115C00B028B128E828A001A00ABF28013003104C
:10116C00F20DF30DFF3E031DB5280130F600760895
:10117C00A007F31FC228C328B42801300310A20D06
:10118C00A30DFF3E031DC42873087502031DD02850
:10119C0072087402031CD328D428DB287208F402CA
:1011AC007308031CF503F502221401300310F30C31
:1011BC00F20CFF3E031DDC280130A002031DE728C2
:1011CC00E828C32821080319EC28ED28F228A209E5
:1011DC00A309A20A0319A30A2308F3002208F200A8
:1011EC00080083120313A0002008F8007808831667
:1011FC000313BE0000300A168A11F1260A128A1552
:10120C004E30F900EB30F800F80B0A29F90B0A29DB
:10121C0003300A168A11D7260A128A150D30F900E6
:10122C00FB30F800F80B1829F90B18291D2903308D
:10123C000A168A11D7260A128A150D30F900FB30CE
:10124C00F800F80B2729F90B27292C2903300A164B
:10125C008A11D7260A128A150D30F900FB30F800D6
:10126C00F80B3629F90B36293B2902300A168A115C
:10127C00D7260A128A150D30F900FB30F800F80B4E
:10128C004529F90B45294A2928300A168A11D726EF
:10129C000A128A158230F900DD30F800F80B542957
:1012AC00F90B542959290C300A168A11D7260A121F
:1012BC008A158230F900DD30F800F80B6329F90B40
:1012CC006329682901300A168A11D7260A128A1551
:1012DC008230F900DD30F800F80B7229F90B722915
:1012EC00772906300A168A11D7260A128A158230F7
:1012FC00F900DD30F800F80B8129F90B81298629DA
:10130C0008000030720583120313A000003073052F
:10131C00A10080307405A2007F307505A30023085E
:10132C00220421042004031D9C299D29A529003099
:10133C00F5000030F4000030F3000030F200003013
:10134C007605A00000307705A10080307805A2005A
:10135C007F307905A3002308220421042004031DF7
:10136C00B829B929C1290030F9000030F800003043
:10137C00F7000030F600F51FC429C529E929003013
:10138C00A0000030A1000030A2008030A300720841
:10139C00A0027308031C730FD429D529A102740869
:1013AC00031C740FDA29DB29A2027508031C750FC4
:1013BC00E029E129A3022308F5002208F400210802
:1013CC00F3002008F200F91FEC29ED29112A003056
:1013DC00A0000030A1000030A2008030A3007608ED
:1013EC00A0027708031C770FFC29FD29A1027808BD
:1013FC00031C780F022A032AA2027908031C790F16
:10140C00082A092AA3022308F9002208F800210857
:10141C00F7002008F6008030F5068030F9067908D0
:10142C007502031D232A78087402031D232A7708EA
:10143C007302031D232A760872020318262A272A10
:10144C00292A03102A2A031408000A168A11A9262D
:10145C000A128A150A168A117F260A128A154E302C
:10146C000A128A15F7200A128A15F801F80A0130B7
:10147C000A128A1556200A128A152630F800803076
:10148C00F9000A168A11BA270A128A15F801F80A05
:10149C0002300A128A1556200A128A150130F800F9
:1014AC008030F9000A168A11BA270A128A15F80137
:1014BC00F80A03300A128A1556200A128A151430BB
:1014CC00F8008030F9000A168A11BA270A128A1518
:1014DC00053083120313E1006108F80004300A128E
:1014EC008A1556200A128A153830F8008030F90017
:1014FC000A168A11BA270A128A151A308312031394
:10150C00E3005E30E2006D30E100E10B8B2AE20B70
:10151C008B2AE30B8B2A922AF801F80A04300A1260
:10152C008A1556200A128A15A530F8000030F900E9
:10153C000A168A11BA270A128A150A168A1127273F
:10154C000A128A1583160313240883120313E1006D
:10155C00E201E301E4016408AC006308AB0062083B
:10156C00AA006108A90000300A128A15DF220A12AB
:10157C008A15831203132C08E8002B08E7002A08AD
:10158C00E6002908E5006808DC006708DB0066084F
:10159C00DA006508D9000230DD000030DE00A5302D
:1015AC000A128A112E200A128A15922A0A128A11FC
:1015BC000C2883120313B10031080319E62AE72A19
:1015CC00FB2AAC1FEA2AEB2AFB2A2909B3002A09B9
:1015DC00B4002B09B5002C09B600B30A0319B40AE0
:1015EC000319B50A0319B60A032B2C08B6002B08ED
:1015FC00B5002A08B4002908B3002C082B042A04CF
:10160C002904031D0A2B0B2B142B0030AC000030CB
:10161C00AB000030AA000030A9009A2B9630AD0028
:10162C002D08B200262B0130AD002D08B207013079
:10163C000310B60CB50CB40CB30CFF3E031D1E2BE3
:10164C00FE303605031D2B2B2C2B192B482B013070
:10165C00AD002D08B2070130B3070030031801307C
:10166C00B407003003180130B507003003180130FF
:10167C00B60701300310B60CB50CB40CB30CFF3E1E
:10168C00031D402BFF303605031D4D2B4E2B2D2BF0
:10169C005A2B0130B2020130AD000310B30DB40D62
:1016AC00B50DB60DAD0B532BB51B5D2B5E2B642B03
:1016BC00023032020318632B642B4F2B3218672B2A
:1016CC00682B702BFF30B305FF30B4057F30B505A8
:1016DC00FF30B6050310B20C3208AD00AE01AF01FD
:1016EC00B00118300310AD0DAE0DAF0DB00DFF3EB7
:1016FC00031D782B2D08B3042E08B4042F08B50451
:10170C003008B604310803198C2B8D2B922BAC1F8F
:10171C00902B912B922BB6173608AC003508AB00EA
:10172C003408AA003308A9000800831203133E08EA
:10173C008039BF003F08C8003E08BF003F07C0000B
:10174C004008CF00BD1FAB2BAC2BAD2B4F144F085B
:10175C000319B12BB22BC22B4F0A031DB62BB72B7F
:10176C00BF2B0030BE000030BD000030BC0000308C
:10177C00BB00BD17BE01CA2B0030BE000030BD003F
:10178C000030BC000030BB003A088039BF003F0875
:10179C00C8063A08BF003F07C0004008D000B91F78
:1017AC00D82BD92BDA2B501450080319DE2BDF2B36
:1017BC00EF2B500A031DE32BE42BEC2B0030BA006B
:1017CC000030B9000030B8000030B700B917BA01CA
:1017DC00F72B0030BA000030B9000030B8000030F0
:1017EC00B7003A08390438043704031DFE2BFF2BCD
:1017FC00182C0030BE000030BD000030BC000030A2
:10180C00BB008030BD047F30BE044808BF003F08D9
:10181C00BE043E08BA003D08B9003C08B8003B08BD
:10182C00B700772D4F08031D1C2C1D2C262C0030C7
:10183C00BA000030B9000030B8000030B700772D86
:10184C004F08BF00C0014008C20050083F02C10051
:10185C00031CC20341087F3EC90042080318013E25
:10186C00003ECA003E08C7003D08C6003C08C50043
:10187C003B08C4000030BE000030BD000030BC008E
:10188C000030BB000030CE000030CD000030CC006A
:10189C000030CB00D0019C2C50080319562C572C2F
:1018AC00772C0130BF000310C40DC50DC60DC70D3C
:1018BC00BF0B592C0130BF000310BB0DBC0DBD0D6F
:1018CC00BE0DBF0B622CCE1F6C2C6D2C6E2C3B14E2
:1018DC000130BF000310CB0DCC0DCD0DCE0DBF0BC9
:1018EC00702C3A084702031D852C39084602031D4B
:1018FC00852C38084502031D852C37084402031C2F
:10190C00882C892C982C4E173708C4023808031CD5
:10191C00380FC5023908031C390FC6023A08031CDC
:10192C003A0FC7020130BF003F08D0071A305002EF
:10193C00031CA12CA22C522C470846044504440439
:10194C000319A92CAA2CC92C4B14C92C0130BF008B
:10195C000310BB0DBC0DBD0DBE0DBF0BAE2CCE1FB1
:10196C00B82CB92CBA2C3B140130BF000310CB0D92
:10197C00CC0DCD0DCE0DBF0BBC2CFF30C907031801
:10198C00CA0AFF30CA07BD1FCC2CCD2CAC2CD00101
:10199C00CE1FD12CD22CEE2CFF304B05BF00FF30CC
:1019AC004C05C000FF304D05C1007F304E05C20014
:1019BC004208410440043F040319E52CE62CE92CB1
:1019CC00D001D00AEE2C3B1CEC2CED2CEE2CE62C92
:1019DC0050080319F22CF32C242D0130BB070030D6
:1019EC0003180130BC07003003180130BD0700306C
:1019FC0003180130BE073E1C042D052D242D3B0879
:101A0C00BF003C08C0003D08C1003E08C2000130C8
:101A1C00C300420DC20CC10CC00CBF0CC30B0F2D6C
:101A2C004208BE004108BD004008BC003F08BB0096
:101A3C000130C9070318CA0A0030CA074A08803A9D
:101A4C00FF0080307F02031D2D2DFF304902031C47
:101A5C00302D312D3F2DFF3083120313C900003080
:101A6C00CA000030BE000030BD000030BC000030A9
:101A7C00BB00831203134A08803AFF0080307F02B8
:101A8C00031D4A2D0130490203184D2D4E2D5B2D9F
:101A9C0083120313C901CA010030BE000030BD001F
:101AAC000030BC000030BB00C8018312031349088E
:101ABC00BF003F08CF004F1C642D652D672DBD174F
:101ACC006B2D7F30BF003F08BD054F08BF000310D2
:101ADC003F0CC0004008BE004808BF003F08BE04D1
:101AEC000F2C08007508803983120313A0002008FE
:101AFC00A8007508A0002007A1002108AA00F41F67
:101B0C00882D892D8A2D2A142A0803198E2D8F2DA4
:101B1C009F2D2A0A031D932D942D9C2D0030F5002A
:101B2C000030F4000030F3000030F200F417F5013F
:101B3C00A72D0030F5000030F4000030F300003029
:101B4C00F20079088039A0002008A900290828068D
:101B5C000319B12DB22DB32D28177908A000200739
:101B6C00A1002108A900F81FBC2DBD2DBE2D2914E4
:101B7C0029080319C22DC32DD32D290A031DC72DE6
:101B8C00C82DD02D0030F9000030F8000030F700DF
:101B9C000030F600F817F901DB2D0030F9000030A9
:101BAC00F8000030F7000030F6002A08290203186C
:101BBC00E02DE12D252E281FE42DE52DE92D80307B
:101BCC00A0002008A8062A08A0002008AB002908BD
:101BDC00A0002008AA002B08A0002008A900720869
:101BEC00A0002008AB007608A0002008F2002B080B
:101BFC00A0002008F6007308A0002008AB007708AE
:101C0C00A0002008F3002B08A0002008F70074089F
:101C1C00A0002008AB007808A0002008F4002B08D6
:101C2C00A0002008F8007508A0002008AB00790877
:101C3C00A0002008F5002B08A0002008F900AB013B
:101C4C002908A000A1012108A3002A082002A20053
:101C5C00031CA3032308803AFF0080307F02031D7E
:101C6C00392E1A302202031C3C2E3D2E7A2E75087A
:101C7C00740473047204031D442E462E0130472E47
:101C8C00003083120313A0002008AB000030F500D5
:101C9C000030F4000030F3000030F2002908A000FE
:101CAC002008AA00822E2B1C5C2E5D2E662E2B0883
:101CBC00A0000310200C0138A1002108AB00682EF5
:101CCC000310AB0C721C6B2E6C2E6D2EAB170130EF
:101CDC00A000750DF50CF40CF30CF20CA00B6F2E90
:101CEC000130A0002008AA078312031329082A0236
:101CFC00031C812E822E592E281B852E862ED12E2A
:101D0C002A08031D8A2E8B2E942E0030F5000030ED
:101D1C00F4000030F3000030F200FF2F7608F207D9
:101D2C00770803110318013E03199D2EF307780859
:101D3C0003110318013E0319A42EF40779080311AB
:101D4C000318013E0319AB2EF507751CAE2EAF2EF2
:101D5C00852F2B1CB22EB32EBC2E2B08A0000310EB
:101D6C00200C0138A1002108AB00BE2E0310AB0CD7
:101D7C00721CC12EC22EC32EAB170130A000750DE4
:101D8C00F50CF40CF30CF20CA00BC52E0130A000DA
:101D9C002008AA07852F7508803AFF007908803A39
:101DAC007F02031DE32E78087402031DE32E7708CF
:101DBC007302031DE32E760872020318E62EE72E3B
:101DCC003F2FFF30A000FF30A100FF30A200FF30FA
:101DDC00A3007608A4007708A5007808A600790867
:101DEC00A7007208A4027308031C730FFE2EFF2EAB
:101DFC00A5027408031C740F042F052FA602750886
:101E0C00031C750F0A2F0B2FA7022408A007250807
:101E1C000318250F122F132FA10726080318260FBE
:101E2C00182F192FA20727080318270AA30723081E
:101E3C00F5002208F4002108F3002008F20080309D
:101E4C00A0002008A806AB09AB0A2B08031D2F2FF6
:101E5C00302F4D2F0130F207003003180130F307FB
:101E6C00003003180130F407003003180130F50777
:101E7C004D2F7608F2027708031C770FF3027808CF
:101E8C00031C780FF4027908031C790FF50275080E
:101E9C00740473047204031D542F552F812F2B08C7
:101EAC00031D592F5A2F812F0030F5000030F400FC
:101EBC000030F3000030F200FF2F0130A0000310BF
:101ECC00F20DF30DF40DF50DA00B652FAB1F6F2F5D
:101EDC00702F712F72142B1C742F752F782F0314E5
:101EEC00AB0D7A2F0310AB0D2A0803197E2F7F2F11
:101EFC00812F0130AA02F41F842F852F632FA90193
:101F0C00AB1F892F8A2F982F2B087F3903198F2FFE
:101F1C00902F932FA901A90A982F721C962F972FF7
:101F2C00982F902F290803199C2F9D2FD12F01300A
:101F3C00F207003003180130F307003003180130AA
:101F4C00F407003003180130F507751CAE2FAF2FC6
:101F5C00D12F7208A0007308A1007408A2007508A4
:101F6C00A3000130A400230DA30CA20CA10CA00C07
:101F7C00A40BB92F2308F5002208F4002108F30064
:101F8C002008F2002A0A0319CC2FCD2FD12F0130B3
:101F9C00A0002008AA072A0A0319D52FD62FDB2F59
:101FAC002A08031DDA2FDB2FE92F0030F500003053
:101FBC00F4000030F3000030F2002A08031DE72F74
:101FCC00E82FE92FA8012A1CEC2FED2FEF2FF41787
:101FDC00F32F7F30A0002008F4052A08A00003107E
:101FEC00200CA1002108F500A81FFD2FFE2FFF2FAC
:041FFC00F5170800CD
:102CCC0071088A00700E8300FE0E7E0E09000A1633
:102CDC008A118C260A168A11831603131114080004
:102CEC000A168A118C260A168A11831603131115DB
:102CFC0008002830831203139400831603139101E8
:102D0C009401CF3093008715071608008316031320
:102D1C001419912E922E8C2E11081F39031D972EEB
:102D2C00982E8C2E0800F2000A168A118C260A1690
:102D3C008A1172088312031393008C1DA62EA72EE2
:102D4C00A32E8C11080083160317880189018316A2
:102D5C00031305140614861388010F168F160F170C
:102D6C000F148312031385018601870188018901E1
:102D7C000800F5007A08F4007408F50475080438A6
:102D8C000A168A11F1260A168A117508FB390A16D9
:102D9C008A11F1260A168A112130F400F40BD42E74
:102DAC000800F700FA017708F0390A168A11BF26D5
:102DBC000A168A117708F60003300310F60DFF3E51
:102DCC00031DE32E0310760DF0390A168A11BF2667
:102DDC000A168A110800F3000A168A116D260A16C3
:102DEC008A11831603133E080A168A1199260A16AD
:102DFC008A1173087B040A168A1199260A168A11FD
:102E0C000A168A1176260A168A110800F700FA01AA
:102E1C00FA0A7708F0390A168A11BF260A168A119F
:102E2C007708F60003300310F60DFF3E031D192F33
:102E3C000310760DF0390A168A11BF260A168A116C
:102E4C00080083120313051C2C2F2D2F422F8617DD
:102E5C00831603132408013EF2007208A400063006
:102E6C00F4001330F300AD30F200F20B3B2FF30BF8
:102E7C003B2FF40B3B2F422F8312031386130800B6
:102E8C00803083120313BA063E08F5003D08F400A7
:102E9C003C08F3003B08F2003A08F9003908F80046
:102EAC003808F7003708F6000A128A1578250A1632
:102EBC008A11750883120313BA007408B9007308D9
:102ECC00B8007208B7000800F801F9018312031367
:102EDC00251C712F722F782F2708F8070318F90A71
:102EEC002808F90701300310A70DA80DFF3E031D9C
:102EFC00792F01300310A60CA50CFF3E031D802F6B
:102F0C0025082604031D8B2F8C2F6C2F7908A60007
:102F1C007808A500080083120313A400A001A101E6
:102F2C007208F400F5017408A2007508A300241CB3
:102F3C00A02FA12FA72F2208A0070318A10A23084E
:102F4C00A10701300310A20DA30DFF3E031DA82FF6
:102F5C000310A40C2408031DB42FB52F9D2F21089A
:102F6C00F3002008F200080083120313A301A4014C
:102F7C00E32F23087807A1007908A0000318A00A02
:102F8C00A31FC92FA003831203132008A200220839
:102F9C00FF00210884000A128A1500200A168A11E3
:102FAC000A168A110C270A168A1101308312031390
:102FBC00A3070318A40A0030A40723087807A1006C
:102FCC007908A0000318A00AA31FED2FA0038312F9
:102FDC0003132008A2002208FF00210884000A1213
:102FEC008A1500200A168A11003A031DFE2FFF2FA6
:042FFC00BF2F0800DB
:04400E00D420FF3F7C
:00000001FF
