:020000040000FA
:060000000A128A110C280F
:10000800FE00030EF0000A08F1000A128A11882A7D
:100018000A128A110F280A128A118F220A128A11CB
:10002800FB00FA0183010A128A111A280A128A119E
:1000380022220A128A110A128A1151220A128A11DC
:100048004E300A128A11A9200A128A11F801F80AF8
:1000580001300A128A1137210A128A1101300A1254
:100068008A116F210A128A11F801F80A02300A125D
:100078008A1137210A128A1110300A128A116F2147
:100088000A128A111A3083120313A5005E30A400E5
:100098006D30A300A30B4E28A40B4E28A50B4E28A9
:1000A80055280A128A115E220A128A110430831214
:1000B8000313A5008E30A4001130A300A30B6228FF
:1000C800A40B6228A50B622869280A128A115E22ED
:1000D8000A128A11043083120313A5008E30A4007B
:1000E8001130A300A30B7628A40B7628A50B76283D
:1000F8007D280A128A116A220A128A110430831290
:100108000313A5008E30A4001130A300A30B8A2886
:10011800A40B8A28A50B8A2891280A128A116A2218
:100128000A128A11043083120313A5008E30A4002A
:100138001130A300A30B9E28A40B9E28A50B9E2874
:10014800A52855280A128A110C2883120313A00027
:100158002008F8007808A60000300A128A11D52174
:100168000A128A114E30F900EB30F800F80BBA2861
:10017800F90BBA2803300A128A11F0210A128A11DF
:100188000D30F900FB30F800F80BC828F90BC82827
:10019800CD2803300A128A11F0210A128A110D3073
:1001A800F900FB30F800F80BD728F90BD728DC2822
:1001B80003300A128A11F0210A128A110D30F9004F
:1001C800FB30F800F80BE628F90BE628EB2802309C
:1001D8000A128A11F0210A128A110D30F900FB3037
:1001E800F800F80BF528F90BF528FA2828300A1238
:1001F8008A11F0210A128A118230F900DD30F800E4
:10020800F80B0429F90B042909290C300A128A1160
:10021800F0210A128A118230F900DD30F800F80B5B
:100228001329F90B1329182901300A128A11F02110
:100238000A128A118230F900DD30F800F80B222901
:10024800F90B2229272906300A128A11F0210A12ED
:100258008A118230F900DD30F800F80B3129F90BEA
:10026800312936290800F90059297808BF3E0A12B1
:100278008A11F0210A128A116E297808933E0A120F
:100288008A11F0210A128A116E297808D33E0A12BF
:100298008A11F0210A128A116E2978087F3E0A1203
:1002A8008A11F0210A128A116E2979088312031320
:1002B800A000A1012108003A031963295129200847
:1002C800023A03193929013A03194129073A03194E
:1002D80049295129080083120313A200A001A10192
:1002E8008A292008220784000A128A1198210A12F2
:1002F8008A110A128A11BA210A128A11013083124C
:100308000313A0070318A10A0030A1072008220739
:1003180084000A128A1198210A128A11003A031DD0
:10032800962997297529080001308A000408840A4B
:1003380082070034203420344D346F346E346534F1
:10034800643461346E346134693474346F347234B3
:100358000034203420342034443469346734693418
:10036800743461346C34203432340034F700FA01C8
:10037800FA0A7708F0390A128A110A220A128A112F
:100388007708F60003300310F60DFF3E031DC7295A
:100398000310760DF0390A128A110A220A128A11FC
:1003A8000800F3000A128A117F220A128A118312A6
:1003B800031326080A128A1134220A128A117308B2
:1003C8007B040A128A1134220A128A110A128A112B
:1003D80076220A128A110800F700FA017708F03924
:1003E8000A128A110A220A128A117708F6000330C3
:1003F8000310F60DFF3E031DFC290310760DF0399E
:100408000A128A110A220A128A110800F5007A08CB
:10041800F4007408F504750804380A128A11D52105
:100428000A128A117508FB390A128A11D5210A1293
:100438008A112130F400F40B1F2A080083160317D1
:1004480088018901831203138501860187018801C8
:100458008901831603130F168F160F170F14080040
:10046800F2000A128A1144220A128A1172088312AF
:10047800031393008C1D412A422A3E2A8C1108003E
:10048800831603131419492A4A2A442A11081F39C2
:10049800031D4F2A502A442A0800283083120313C8
:1004A80094008316031391019401CF3093008715AC
:1004B800071608001C300A128A11F0210A128A1144
:1004C8001A30F800F80B662A0000080018300A12E3
:1004D8008A11F0210A128A111A30F800F80B722AD0
:1004E800000008000A128A1144220A128A1183168F
:1004F8000313111508000A128A1144220A128A11DC
:10050800831603131114080071088A00700E830003
:08051800FE0E7E0E09000834FE
:04400E00D420FF3F7C
:00000001FF
