:060000000A128A110C280F
:10000800FE00030EF0000A08F1000A168A11862E77
:100018000A128A110F280A128A11FE270A128A1157
:10002800FB008313A0308400B0300A168A118D2695
:100038000A128A11E901FA0183010A128A1598291C
:1000480083160313B400831203135C08F5005B08DE
:10005800F4005A08F3005908F2000A128A117927A5
:100068000A128A11730883160313B1007208B000CC
:10007800BB01BC01B901BA010130BD000030BE00AE
:10008800831203135C08F5005B08F4005A08F300B8
:100098005908F2000030F9000030F8000030F7008D
:1000A8000030F6000A128A153B220A128A11031838
:1000B8005E285F28AD28BF3083120313C20080304A
:1000C800C1000030C0000030BF005C08C6005B08FB
:1000D800C5005A08C4005908C3000A128A11182416
:1000E8000A128A11831203134208DC004108DB005C
:1000F8004008DA003F08D9002D30DF0083160313CB
:1001080034088400831203135F08831380000130CE
:1001180083160313B9070318BA0A0030BA07AD28C3
:100128000A30F2000030F3003108F5003008F4001E
:100138000A128A159F200A128A117308831603135C
:10014800B1007208B0000130BB070318BC0A0030C8
:10015800BC078316031330083104031DB428B528DF
:100168009428D1293B033C04031DBB28BC28C12883
:100178000130BD000030BE0003290230B20000305B
:10018800B300ED28831603133E0883120313A60059
:10019800831603133D0883120313A5000A30A70032
:1001A8000030A8000A168A1178270A128A118312C9
:1001B8000313260883160313BE00831203132508AE
:1001C80083160313BD000130B2070318B30A0030C9
:1001D800B3073C08803A83120313DF008316031326
:1001E8003308803A831203135F02031DFF28831626
:1001F800031332083B02031802290329C628831671
:1002080003133D0883120313A900831603133E0842
:1002180083120313AA000030AA1BFF30AB00AC0006
:1002280001300A128A15DF220A128A118312031377
:100238002C08BA002B08B9002A08B8002908B7000A
:100248005C08BE005B08BD005A08BC005908BB002A
:100258000A128A159B230A128A11831203133A0879
:1002680083160313B8008312031339088316031384
:10027800B70083120313380883160313B6008312DA
:100288000313370883160313B5003E0883120313BC
:10029800A800831603133D0883120313A7008316CF
:1002A80003133808F5003708F4003608F30035085A
:1002B800F2000A128A1179270A128A117308831226
:1002C8000313A6007208A5000A168A1178270A12D5
:1002D8008A11831203132508A9002608AA000030F2
:1002E800AA1BFF30AB00AC0001300A128A15DF22CE
:1002F8000A128A11831203132C08BA002B08B900BA
:100308002A08B8002908B7005C08BE005B08BD00D1
:100318005A08BC005908BB000A168A1154270A1249
:100328008A11831203133A08DC003908DB00380805
:10033800DA003708D900831603133808F5003708A0
:10034800F4003608F3003508F2000A128A117927FA
:100358000A128A117208303E83120313DF008316D3
:1003680003133908340783120313E000600884007C
:100378005F0883138000013083160313B90703183D
:10038800BA0A0030BA07FF30BB070318BC0AFF30AF
:10039800BC070130BD000030BE003B083C04031D13
:1003A800D629D729B6282E3083120313DF008316E7
:1003B80003133908340783120313E000600884002C
:1003C8005F0883138000013083160313B9070318ED
:1003D800BA0A0030BA070130B2000030B3001B2A55
:1003E800831603133E0883120313A6008316031310
:1003F8003D0883120313A5000A30A7000030A800A7
:100408000A168A1178270A128A11831203132608FA
:1004180083160313BE0083120313250883160313E0
:10042800BD000130B2070318B30A0030B3078312C6
:1004380003135E08803ADF00831603133308803AFB
:10044800831203135F02031D2F2A83160313320836
:10045800831203135D020318322A332AF429831600
:1004680003133D0883120313A900831603133E08E0
:1004780083120313AA000030AA1BFF30AB00AC00A4
:1004880001300A128A15DF220A128A118312031315
:100498002C08C2002B08C1002A08C0002908BF0088
:1004A8005C08F5005B08F4005A08F3005908F200EC
:1004B8000A128A1179270A128A1172088312031301
:1004C800A9007308AA000030AA1BFF30AB00AC00DB
:1004D80001300A128A15DF220A128A1183120313C5
:1004E8002C08BA002B08B9002A08B8002908B70058
:1004F8005C08BE005B08BD005A08BC005908BB0078
:100508000A168A1154270A128A11831203133A0809
:10051800C6003908C5003808C4003708C3000A12E5
:100528008A1118240A128A118312031342088316A7
:100538000313B80083120313410883160313B7008B
:1005480083120313400883160313B60083120313A0
:100558003F0883160313B500380883120313DC0021
:1005680083160313370883120313DB008316031360
:10057800360883120313DA0083160313350883122F
:100588000313D9005C08F5005B08F4005A08F3006F
:100598005908F2000A128A1179270A128A110130C1
:1005A80083160313BD000030BE00831203135E08D8
:1005B80083160313BC00831203135D088316031309
:1005C800BB00012C3B033C04031DEB2AEC2AF12A57
:1005D8000130BD000030BE00332B0230B2000030C5
:1005E800B3001D2B831603133E0883120313A600C2
:1005F800831603133D0883120313A5000A30A700CE
:100608000030A8000A168A1178270A128A11831264
:100618000313260883160313BE0083120313250849
:1006280083160313BD000130B2070318B30A003064
:10063800B3073C08803A83120313DF0083160313C1
:100648003308803A831203135F02031D2F2B83168E
:10065800031332083B020318322B332BF62A831676
:1006680003133D0883120313A900831603133E08DE
:1006780083120313AA000030AA1BFF30AB00AC00A2
:1006880001300A128A15DF220A128A118312031313
:100698002C08BA002B08B9002A08B8002908B700A6
:1006A8005C08BE005B08BD005A08BC005908BB00C6
:1006B8000A128A159B230A128A11831203133A0815
:1006C80083160313B8008312031339088316031320
:1006D800B70083120313380883160313B600831276
:1006E8000313370883160313B5003E088312031358
:1006F800A800831603133D0883120313A70083166B
:1007080003133808F5003708F4003608F3003508F5
:10071800F2000A128A1179270A128A1173088312C1
:100728000313A6007208A5000A168A1178270A1270
:100738008A11831203132508A9002608AA0000308D
:10074800AA1BFF30AB00AC0001300A128A15DF2269
:100758000A128A11831203132C08BA002B08B90055
:100768002A08B8002908B7005C08BE005B08BD006D
:100778005A08BC005908BB000A168A1154270A12E5
:100788008A11831203133A08DC003908DB003808A1
:10079800DA003708D900831603133808F50037083C
:1007A800F4003608F3003508F2000A128A11792796
:1007B8000A128A117208303E83120313DF0083166F
:1007C80003133908340783120313E0006008840018
:1007D8005F0883138000013083160313B9070318D9
:1007E800BA0A0030BA07FF30BB070318BC0AFF304B
:1007F800BC070130BD000030BE003B083C04031DAF
:10080800062C072CE62A0A3083120313DF0083160E
:1008180003133908340783120313E00060088400C7
:100828005F0883138000080083120313420880398D
:10083800C7004708CC004208C7004707C800480857
:10084800D200C11F282C292C2A2C52145208031913
:100858002E2C2F2C3E2C520A031D332C342C3C2CCE
:100868000030C2000030C1000030C0000030BF00BE
:10087800C117462C0030C2000030C1000030C00053
:100888000030BF0046088039C7004708CC06460834
:10089800C7004707C8004808CD00C51F542C552C71
:1008A800562C4D144D0803195A2C5B2C6A2C4D0AF2
:1008B800031D5F2C602C682C0030C6000030C5007A
:1008C8000030C4000030C300C517722C0030C600C9
:1008D8000030C5000030C4000030C3004D080319C3
:1008E800762C772C7C2C5208031D7B2C7C2C852C99
:1008F8000030C2000030C1000030C0000030BF002E
:10090800782F3F08C7004708F20045080A168A11E1
:100918009F270A128A11730883120313D8007208DA
:10092800D7005708C700C801C901CA014A08D10041
:100938004908D0004808CF004708CE005808C7002B
:10094800C801C901CA014A08D6004908D5004808A3
:10095800D4004708D3004008C7004708F2004408FD
:100968000A168A119F270A128A1173088312031321
:10097800D8007208D7005708C700C801C901CA01C2
:100988004708CE07480803110318013E0319CD2C68
:10099800CF07490803110318013E0319D42CD007C7
:1009A8004A0803110318013E0319DB2CD107580824
:1009B800C700C801C901CA014708D307480803117D
:1009C8000318013E0319E92CD40749080311031839
:1009D800013E0319F02CD5074A0803110318013EFC
:1009E8000319F72CD6074108C7004708F200430847
:1009F8000A168A119F270A128A1173088312031391
:100A0800D8007208D7005708C700C801C901CA0131
:100A18004708CE07480803110318013E0319152D8E
:100A2800CF07490803110318013E03191C2DD007ED
:100A38004A0803110318013E0319232DD10758084A
:100A4800C700C801C901CA014708D30748080311EC
:100A58000318013E0319312DD4074908031103185F
:100A6800013E0319382DD5074A0803110318013E22
:100A780003193F2DD6070830C7000310CE0DCF0D40
:100A8800D00DD10DC70B412D4008C7004708F20013
:100A980043080A168A119F270A128A1173088312BB
:100AA8000313D8007208D7005708C7005808C800B1
:100AB800C901CA014708CE07480803110318013EB7
:100AC8000319672DCF07490803110318013E0319BD
:100AD8006E2DD0074A0803110318013E0319752D1E
:100AE800D1073F08C7004708F20044080A168A11D0
:100AF8009F270A128A11730883120313D8007208F9
:100B0800D7005708C7005808C800C901CA014708D4
:100B1800CE07480803110318013E0319942DCF0787
:100B2800490803110318013E03199B2DD0074A08F1
:100B380003110318013E0319A22DD1070830C7007D
:100B48000310CE0DCF0DD00DD10DC70BA42D3F082E
:100B5800C7004708F20043080A168A119F270A129D
:100B68008A11730883120313D8007208D700570834
:100B7800C7005808C800C901CA014708CE07480875
:100B880003110318013E0319CA2DCF0749080311A1
:100B98000318013E0319D12DD0074A080311031881
:100BA800013E0319D82DD1074008C7004708F200B5
:100BB80045080A168A119F270A128A117308831298
:100BC8000313D8007208D7005708C7005808C80090
:100BD800C901CA014708D307480803110318013E91
:100BE8000319F72DD407490803110318013E031907
:100BF800FE2DD5074A0803110318013E0319052ED7
:100C0800D6074108C7004708F20044080A168A11A7
:100C18009F270A128A11730883120313D8007208D7
:100C2800D7005708C7005808C800C901CA014708B3
:100C3800D307480803110318013E0319242ED407CB
:100C4800490803110318013E03192B2ED5074A083A
:100C580003110318013E0319322ED6074108C700B5
:100C68004708F20045080A168A119F270A128A11B6
:100C7800730883120313D8007208D7005708C700F7
:100C88005808C800C901CA0108300310C70DC80DAB
:100C9800C90DCA0DFF3E031D492E4708D307480852
:100CA80003110318013E03195A2ED40749080311EA
:100CB8000318013E0319612ED5074A0803110318CA
:100CC800013E0319682ED6074E08C7004F08C80012
:100CD8005008C9005108CA0018300310CA0CC90CC2
:100CE800C80CC70CFF3E031D712E4708D3074808E0
:100CF80003110318013E0319822ED4074908031172
:100D08000318013E0319892ED5074A080311031851
:100D1800013E0319902ED6070830C7000310CE0DE8
:100D2800CF0DD00DD10DC70B922E52084D07C7001D
:100D3800C801C80D4708823ED70048080318013E7D
:100D4800FF3ED800C42E0130C7000310D30DD40DC8
:100D5800D50DD60DC70BA92ED11FB32EB42EB52E87
:100D680053140130C7000310CE0DCF0DD00DD10D97
:100D7800C70BB72EFF30D7070318D80AFF30D8079C
:100D8800D51FC72EC82EA72ECD01D11FCC2ECD2EF4
:100D9800E92EFF304E05C700FF304F05C800FF3071
:100DA8005005C9007F305105CA004A084904480463
:100DB80047040319E02EE12EE42ECD01CD0AE92ED9
:100DC800531CE72EE82EE92EE12E4D080319ED2ECF
:100DD800EE2E1F2F0130D307003003180130D4073F
:100DE800003003180130D507003003180130D6074A
:100DF800561CFF2E002F1F2F5308C7005408C80089
:100E08005508C9005608CA000130CB004A0DCA0C63
:100E1800C90CC80CC70CCB0B0A2F4A08D6004908C6
:100E2800D5004808D4004708D3000130D707031875
:100E3800D80A0030D8075808803AFF0080307F026F
:100E4800031D282FFF305702031C2B2F2C2F372F61
:100E58007F3083120313D6008030D5000030D400D1
:100E68000030D3006C2F831203135808803AFF0018
:100E780080307F02031D422F013057020318452F8F
:100E8800462F522F003083120313D6000030D500AE
:100E98000030D4000030D300CC016C2F8312031330
:100EA8005708C7004708D200FF30D305FF30D405E4
:100EB8007F30D5050030D605521C632F642F652F6F
:100EC800D5175208C7000310470CC8004808D600B9
:100ED8004C08C7004708D6045608C2005508C10088
:100EE8005408C0005308BF0008000310740D750DA6
:100EF80083120313A0002008F7007708031D852F2D
:100F0800862F8F2F0030F5000030F4000030F300FA
:100F18000030F200F42F7208A0007308A1007408D2
:100F2800A2007508A3001F300310A30CA20CA10C8B
:100F3800A00CFF3E031D982F2008A4002408F600EB
:100F4800F417FF30F205FF30F305FF30F4050030E9
:100F5800F5059630F702F71FB22FB32FCD2F77087C
:100F6800803A973E0318B92FBA2FBB2F862F01302E
:100F78000310F50CF40CF30CF20CFF3E031DBC2F10
:100F88000130A0002008F707031DCB2FCC2FBB2F63
:100F9800E42F20307702031CD22FD32FDF2F862F88
:100FA8000130A0000310F20DF30DF40DF50DA00BA8
:100FB800D62F0130F7027708031DE32FE42FD42F33
:100FC80076080319E82FE92FF42FF209F309F40939
:100FD800F509F20A0319F30A0319F40A0319F50AC1
:100FE80008000A168A11AB260A128A1183160313FF
:060FF80011150800083489
:10100000FF1B0A2883137F1883170008840A03191B
:10101000FF0A080008308A000408840A82070034A6
:101020002034203420344D346F346E3465346434CD
:101030006134733420343D342034513430342E3410
:10104000303430340034203431342E3430343034C1
:101050002034203430342E343534203420342034BD
:1010600030342E34323435340034203420342034BB
:10107000203420344D346F346E346534643461343C
:0E1080006E346134693474346F347234003469
:10109200F2000A168A11AB260A128A157208831206
:1010A200031393008C1D5628572853288C110800CF
:1010B20083120313A301A401822823087807A10045
:1010C2007908A0000318A00AA31F6828A0038312AE
:1010D20003132008A2002208FF00210884000A123C
:1010E2008A1500200A128A150A168A111B270A126B
:1010F2008A15013083120313A3070318A40A0030D0
:10110200A40723087807A1007908A0000318A00A01
:10111200A31F8C28A003831203132008A200220815
:10112200FF00210884000A128A1500200A128A157B
:10113200003A031D9D289E285E280800831203138F
:10114200A101F31FA528A628AD28F209F309F20A86
:101152000319F30AA101A10AF51FB028B128BA2880
:10116200F409F509F40A0319F50A0130F6007608C4
:10117200A106A201A301720873040319C128C2289F
:10118200F928A001A00AD02801300310F20DF30DB6
:10119200FF3E031DC6280130F6007608A007F31FA4
:1011A200D328D428C52801300310A20DA30DFF3E79
:1011B200031DD52873087502031DE1287208740205
:1011C200031CE428E528EC287208F4027308031CC7
:1011D200F503F502221401300310F30CF20CFF3E6A
:1011E200031DED280130A002031DF828F928D42898
:1011F20021080319FD28FE280329A209A309A20A2E
:101202000319A30A2308F3002208F200080083123C
:101212000313A0002008F800780883160313BF0008
:1012220000300A168A1100270A128A154E30F90078
:10123200EB30F800F80B1B29F90B1B2903300A16B7
:101242008A11E6260A128A150D30F900FB30F800E1
:10125200F80B2929F90B29292E2903300A168A119C
:10126200E6260A128A150D30F900FB30F800F80B59
:101272003829F90B38293D2903300A168A11E62646
:101282000A128A150D30F900FB30F800F80B4729D5
:10129200F90B47294C2902300A168A11E6260A124E
:1012A2008A150D30F900FB30F800F80B5629F90BBE
:1012B20056295B2928300A168A11E6260A128A154F
:1012C2008230F900DD30F800F80B6529F90B652949
:1012D2006A290C300A168A11E6260A128A15823009
:1012E200F900DD30F800F80B7429F90B742979291B
:1012F20001300A168A11E6260A128A158230F9008E
:10130200DD30F800F80B8329F90B83298829063090
:101312000A168A11E6260A128A158230F900DD3091
:10132200F800F80B9229F90B9229972908000A165E
:101332008A11B8260A128A150A168A119E260A12DC
:101342008A154E300A128A1508210A128A15F801E6
:10135200F80A01300A168A11C8270A128A1526309D
:10136200F8008030F9000A128A1559200A128A15EB
:10137200F801F80A02300A168A11C8270A128A15D9
:101382000130F8008030F9000A128A1559200A1239
:101392008A15F801F80A03300A168A11C8270A12B8
:1013A2008A151430F8008030F9000A128A15592083
:1013B2000A128A151A3083120313E3005E30E20028
:1013C2006D30E100E10BE329E20BE329E30BE329B2
:1013D200EA29023083120313E1006108F8000430A5
:1013E2000A168A11C8270A128A15A630F800003098
:1013F200F9000A128A1559200A128A150A168A1148
:1014020036270A128A15831603132508831203133B
:10141200E100E201E301E4016408AC006308AB000F
:101422006208AA006108A90000300A128A15DF22A8
:101432000A128A15831203132C08E8002B08E7000E
:101442002A08E6002908E5006808DC006708DB00D6
:101452006608DA006508D9000230DD000030DE00DF
:10146200A6300A128A1124200A128A15EA290A12BF
:101472008A110C280030720583120313A000003079
:101482007305A10080307405A2007F307505A300AA
:101492002308220421042004031D502A512A592A18
:1014A2000030F5000030F4000030F3000030F200AC
:1014B20000307605A00000307705A1008030780565
:1014C200A2007F307905A30023082204210420040E
:1014D200031D6C2A6D2A752A0030F9000030F800CD
:1014E2000030F7000030F600F51F782A792A9D2A8D
:1014F2000030A0000030A1000030A2008030A30024
:101502007208A0027308031C730F882A892AA10299
:101512007408031C740F8E2A8F2AA2027508031CFA
:10152200750F942A952AA3022308F5002208F400D5
:101532002108F3002008F200F91FA02AA12AC52AD7
:101542000030A0000030A1000030A2008030A300D3
:101552007608A0027708031C770FB02AB12AA102ED
:101562007808031C780FB62AB72AA2027908031C4E
:10157200790FBC2ABD2AA3022308F9002208F80029
:101582002108F7002008F6008030F5068030F906C1
:1015920079087502031DD72A78087402031DD72A19
:1015A20077087302031DD72A760872020318DA2A13
:1015B200DB2ADD2A0310DE2A031408008312031338
:1015C200B10031080319E62AE72AFB2AAC1FEA2AEE
:1015D200EB2AFB2A2909B3002A09B4002B09B5001A
:1015E2002C09B600B30A0319B40A0319B50A031980
:1015F200B60A032B2C08B6002B08B5002A08B40043
:101602002908B3002C082B042A042904031D0A2BE1
:101612000B2B142B0030AC000030AB000030AA00C2
:101622000030A9009A2B9630AD002D08B200262B6F
:101632000130AD002D08B20701300310B60CB50C15
:10164200B40CB30CFF3E031D1E2BFE303605031DEA
:101652002B2B2C2B192B482B0130AD002D08B20758
:101662000130B307003003180130B407003003180B
:101672000130B507003003180130B60701300310FE
:10168200B60CB50CB40CB30CFF3E031D402BFF305F
:101692003605031D4D2B4E2B2D2B5A2B0130B2023A
:1016A2000130AD000310B30DB40DB50DB60DAD0B89
:1016B200532BB51B5D2B5E2B642B023032020318B9
:1016C200632B642B4F2B3218672B682B702BFF3048
:1016D200B305FF30B4057F30B505FF30B605031002
:1016E200B20C3208AD00AE01AF01B00118300310E8
:1016F200AD0DAE0DAF0DB00DFF3E031D782B2D08C5
:10170200B3042E08B4042F08B5043008B604310817
:1017120003198C2B8D2B922BAC1F902B912B922B80
:10172200B6173608AC003508AB003408AA003308F7
:10173200A9000800831203133E088039BF003F0846
:10174200C8003E08BF003F07C0004008CF00BD1FD1
:10175200AB2BAC2BAD2B4F144F080319B12BB22B73
:10176200C22B4F0A031DB62BB72BBF2B0030BE0076
:101772000030BD000030BC000030BB00BD17BE0110
:10178200CA2B0030BE000030BD000030BC0000306B
:10179200BB003A088039BF003F08C8063A08BF00BC
:1017A2003F07C0004008D000B91FD82BD92BDA2B35
:1017B200501450080319DE2BDF2BEF2B500A031DA8
:1017C200E32BE42BEC2B0030BA000030B9000030E0
:1017D200B8000030B700B917BA01F72B0030BA00D1
:1017E2000030B9000030B8000030B7003A083904C0
:1017F20038043704031DFE2BFF2B182C0030BE00CB
:101802000030BD000030BC000030BB008030BD04A1
:101812007F30BE044808BF003F08BE043E08BA003D
:101822003D08B9003C08B8003B08B700772D4F08C7
:10183200031D1C2C1D2C262C0030BA000030B900D0
:101842000030B8000030B700772D4F08BF00C0014C
:101852004008C20050083F02C100031CC2034108F5
:101862007F3EC90042080318013E003ECA003E08FE
:10187200C7003D08C6003C08C5003B08C400003054
:10188200BE000030BD000030BC000030BB000030A4
:10189200CE000030CD000030CC000030CB00D001B3
:1018A2009C2C50080319562C572C772C0130BF0062
:1018B2000310C40DC50DC60DC70DBF0B592C013049
:1018C200BF000310BB0DBC0DBD0DBE0DBF0B622CC6
:1018D200CE1F6C2C6D2C6E2C3B140130BF000310FC
:1018E200CB0DCC0DCD0DCE0DBF0B702C3A0847029F
:1018F200031D852C39084602031D852C3808450234
:10190200031D852C37084402031C882C892C982C33
:101912004E173708C4023808031C380FC5023908AD
:10192200031C390FC6023A08031C3A0FC7020130E2
:10193200BF003F08D0071A305002031CA12CA22C72
:10194200522C47084604450444040319A92CAA2C26
:10195200C92C4B14C92C0130BF000310BB0DBC0DA8
:10196200BD0DBE0DBF0BAE2CCE1FB82CB92CBA2CA0
:101972003B140130BF000310CB0DCC0DCD0DCE0DAD
:10198200BF0BBC2CFF30C9070318CA0AFF30CA07B5
:10199200BD1FCC2CCD2CAC2CD001CE1FD12CD22CE7
:1019A200EE2CFF304B05BF00FF304C05C000FF306E
:1019B2004D05C1007F304E05C2004208410440047B
:1019C2003F040319E52CE62CE92CD001D00AEE2CB9
:1019D2003B1CEC2CED2CEE2CE62C50080319F22CBF
:1019E200F32C242D0130BB07003003180130BC0753
:1019F200003003180130BD07003003180130BE0764
:101A02003E1C042D052D242D3B08BF003C08C000C0
:101A12003D08C1003E08C2000130C300420DC20CA5
:101A2200C10CC00CBF0CC30B0F2D4208BE004108F5
:101A3200BD004008BC003F08BB000130C9070318C5
:101A4200CA0A0030CA074A08803AFF0080307F0283
:101A5200031D2D2DFF304902031C302D312D3F2D4A
:101A6200FF3083120313C9000030CA000030BE00E9
:101A72000030BD000030BC000030BB0083120313F5
:101A82004A08803AFF0080307F02031D4A2D013050
:101A9200490203184D2D4E2D5B2D83120313C901EC
:101AA200CA010030BE000030BD000030BC00003072
:101AB200BB00C801831203134908BF003F08CF00CF
:101AC2004F1C642D652D672DBD176B2D7F30BF0018
:101AD2003F08BD054F08BF0003103F0CC00040087F
:101AE200BE004808BF003F08BE040F2C080075085E
:101AF200803983120313A0002008A8007508A000F3
:101B02002007A1002108AA00F41F882D892D8A2D03
:101B12002A142A0803198E2D8F2D9F2D2A0A031DA0
:101B2200932D942D9C2D0030F5000030F4000030F0
:101B3200F3000030F200F417F501A72D0030F50094
:101B42000030F4000030F3000030F20079088039F0
:101B5200A0002008A900290828060319B12DB22DDA
:101B6200B32D28177908A0002007A1002108A90099
:101B7200F81FBC2DBD2DBE2D291429080319C22D15
:101B8200C32DD32D290A031DC72DC82DD02D0030FA
:101B9200F9000030F8000030F7000030F600F817C6
:101BA200F901DB2D0030F9000030F8000030F700B9
:101BB2000030F6002A0829020318E02DE12D252E17
:101BC200281FE42DE52DE92D8030A0002008A8066D
:101BD2002A08A0002008AB002908A0002008AA00BB
:101BE2002B08A0002008A9007208A0002008AB0062
:101BF2007608A0002008F2002B08A0002008F600BA
:101C02007308A0002008AB007708A0002008F300AA
:101C12002B08A0002008F7007408A0002008AB00E1
:101C22007808A0002008F4002B08A0002008F80083
:101C32007508A0002008AB007908A0002008F50074
:101C42002B08A0002008F900AB012908A000A1017F
:101C52002108A3002A082002A200031CA3032308D0
:101C6200803AFF0080307F02031D392E1A30220293
:101C7200031C3C2E3D2E7A2E7508740473047204E4
:101C8200031D442E462E0130472E003083120313CB
:101C9200A0002008AB000030F5000030F400003056
:101CA200F3000030F2002908A0002008AA00822ECA
:101CB2002B1C5C2E5D2E662E2B08A0000310200C20
:101CC2000138A1002108AB00682E0310AB0C721C76
:101CD2006B2E6C2E6D2EAB170130A000750DF50C1E
:101CE200F40CF30CF20CA00B6F2E0130A0002008B4
:101CF200AA078312031329082A02031C812E822EAB
:101D0200592E281B852E862ED12E2A08031D8A2E97
:101D12008B2E942E0030F5000030F4000030F300DA
:101D22000030F200FF2F7608F2077708031103183C
:101D3200013E03199D2EF307780803110318013E93
:101D42000319A42EF407790803110318013E03199D
:101D5200AB2EF507751CAE2EAF2E852F2B1CB22E87
:101D6200B32EBC2E2B08A0000310200C0138A100BA
:101D72002108AB00BE2E0310AB0C721CC12EC22E6A
:101D8200C32EAB170130A000750DF50CF40CF30C4B
:101D9200F20CA00BC52E0130A0002008AA07852F47
:101DA2007508803AFF007908803A7F02031DE32E0E
:101DB20078087402031DE32E77087302031DE32ED5
:101DC200760872020318E62EE72E3F2FFF30A0009E
:101DD200FF30A100FF30A200FF30A3007608A4006C
:101DE2007708A5007808A6007908A7007208A4025F
:101DF2007308031C730FFE2EFF2EA5027408031C2A
:101E0200740F042F052FA6027508031C750F0A2FE5
:101E12000B2FA7022408A00725080318250F122F4D
:101E2200132FA10726080318260F182F192FA20710
:101E320027080318270AA3072308F5002208F4003D
:101E42002108F3002008F2008030A0002008A80634
:101E5200AB09AB0A2B08031D2F2F302F4D2F01305A
:101E6200F207003003180130F30700300318013085
:101E7200F407003003180130F5074D2F7608F202FF
:101E82007708031C770FF3027808031C780FF4021B
:101E92007908031C790FF50275087404730472043F
:101EA200031D542F552F812F2B08031D592F5A2FF5
:101EB200812F0030F5000030F4000030F3000030D4
:101EC200F200FF2F0130A0000310F20DF30DF40D0C
:101ED200F50DA00B652FAB1F6F2F702F712F721492
:101EE2002B1C742F752F782F0314AB0D7A2F031030
:101EF200AB0D2A0803197E2F7F2F812F0130AA02F2
:101F0200F41F842F852F632FA901AB1F892F8A2FDE
:101F1200982F2B087F3903198F2F902F932FA90108
:101F2200A90A982F721C962F972F982F902F290865
:101F320003199C2F9D2FD12F0130F2070030031877
:101F42000130F307003003180130F40700300318A2
:101F52000130F507751CAE2FAF2FD12F7208A000EC
:101F62007308A1007408A2007508A3000130A40040
:101F7200230DA30CA20CA10CA00CA40BB92F2308B7
:101F8200F5002208F4002108F3002008F2002A0AD2
:101F92000319CC2FCD2FD12F0130A0002008AA0782
:101FA2002A0A0319D52FD62FDB2F2A08031DDA2F71
:101FB200DB2FE92F0030F5000030F4000030F30091
:101FC2000030F2002A08031DE72FE82FE92FA801AD
:101FD2002A1CEC2FED2FEF2FF417F32F7F30A000E8
:101FE2002008F4052A08A0000310200CA1002108F3
:0E1FF200F500A81FFD2FFE2FFF2FF51708008A
:102D0C0071088A00700E8300FE0E7E0E09006400AE
:102D1C008001840A04060319003404068E2E0A1658
:102D2C008A11AB260A168A11831603131114080094
:102D3C00283083120313940083160313910194011A
:102D4C00CF30930087150716080083160313141948
:102D5C00B02EB12EAB2E11081F39031DB62EB72E77
:102D6C00AB2E080083160317880189018316031301
:102D7C0005140614861388010F168F160F170F14DF
:102D8C0083120313850186018701880189010800DC
:102D9C00F5007A08F4007408F504750804380A166E
:102DAC008A1100270A168A117508FB390A168A112E
:102DBC0000270A168A112130F400F40BE32E0800C8
:102DCC00F700FA017708F0390A168A11CE260A168E
:102DDC008A117708F60003300310F60DFF3E031D31
:102DEC00F22E0310760DF0390A168A11CE260A1629
:102DFC008A110800F3000A168A1195260A168A1100
:102E0C00831603133F080A128A1549200A168A11E1
:102E1C0073087B040A128A1549200A168A110A12B1
:102E2C008A11F5270A168A110800F700FA01FA0A26
:102E3C007708F0390A168A11CE260A168A117708F5
:102E4C00F60003300310F60DFF3E031D282F031070
:102E5C00760DF0390A168A11CE260A168A11080048
:102E6C0083120313051C3B2F3C2F502F8617013068
:102E7C00F200720883160313A5070630F400133012
:102E8C00F300AD30F200F20B492FF30B492FF40B8A
:102E9C00492F502F8312031386130800803083129E
:102EAC000313BA063E08F5003D08F4003C08F30095
:102EBC003B08F2003A08F9003908F8003808F70026
:102ECC003708F6000A128A1578250A168A11750831
:102EDC0083120313BA007408B9007308B80072089F
:102EEC00B7000800F801F90183120313251C7F2F8A
:102EFC00802F862F2708F8070318F90A2808F907E6
:102F0C0001300310A70DA80DFF3E031D872F0130C4
:102F1C000310A60CA50CFF3E031D8E2F25082604BE
:102F2C00031D992F9A2F7A2F7908A6007808A500EF
:102F3C00080083120313A400A001A1017208F4007D
:102F4C00F5017408A2007508A300241CAE2FAF2F46
:102F5C00B52F2208A0070318A10A2308A1070130E6
:102F6C000310A20DA30DFF3E031DB62F0310A40CDE
:102F7C002408031DC22FC32FAB2F2108F3002008F8
:102F8C00F2000800F900EA2F7808BF3E0A168A11F1
:102F9C00E6260A168A11FF2F7808933E0A168A1124
:102FAC00E6260A168A11FF2F7808D33E0A168A11D4
:102FBC00E6260A168A11FF2F78087F3E0A168A1118
:102FCC00E6260A168A11FF2F790883120313A00034
:102FDC00A1012108003A0319F42FE22F2008023A2C
:102FEC000319CA2F013A0319D22F073A0319DA2F02
:042FFC00E22F0800B8
:04400E00D420FF3F7C
:00000001FF
