:020000040000FA
:060000000A128A110C280F
:10000800FE00030EF1000A08F2000A128A111428F1
:100018000A128A110F28F30183010A128A11802813
:10002800831203130C1F19281A2850281F0CF000DC
:10003800700C0F39003A031D2228232848281E086F
:10004800F0007008F300AA30730203182C282D283A
:100058003028861306138616E230730203183528F3
:1000680036283F28AA307302031C3B283C283F2827
:10007800861306178612E2307302031C44284528AB
:1000880048288617061386121030F000F00B4A280D
:100098000000831203130C1372088A00710E830088
:1000A800FE0E7E0E090001308316031788008901B1
:1000B800FF3083160313850086018312031385011D
:1000C8008601831603130F138F160F160F14C330F0
:1000D800831203139F059F171F171F1483160313FB
:1000E8009F131F129F128B17831203130C1383166F
:1000F80003130C170B1708000A128A1157200A124B
:100108008A11831203139F1485280A128A110C2856
:04400E00D420FF3F7C
:00000001FF
