:060000000A128A110C280F
:10000800FE00030EF1000A08F2000A128A111628EF
:100018000A128A110F28F601F701F80183010A1262
:100028008A11D228831203138C1D1B281C287D28B3
:100038001412141B202821282528941F2428252839
:100048002C281308F0007008F800141394131416E1
:1000580083160313941A312832285928141935287D
:10006800362859280430F000F00B38280000831295
:1000780003131308F0007008F8004228432883127D
:1000880003138C11141683160313141C4C284D28C3
:100098004728831203131308F0007008F700A630EE
:1000A800F000F00B552800007A28941A5C285D2887
:1000B8007A28141D602861287A28831203131308EC
:1000C800F0007008F80083160313141076088312E2
:1000D800031393001416A630F000F00B71280000EB
:1000E80083160313141879287A28742883120313A3
:1000F8008C1172088A00710E8300FE0E7E0E0900B4
:1001080083120313051889288A289C28861701302A
:10011800F3007308F6070630F5001330F400AD302D
:10012800F300F30B9528F40B9528F50B95289C28DC
:100138008312031386130800F3007308831603134E
:100148009300363083120313940080308316031310
:10015800940001309100871507168B170B1783122F
:1001680003138C11831603138C15080083160317C9
:1001780088018901831603130514061486130F17C3
:100188008F160F160F1460300A128A11A0200A1257
:100198008A118B1783120313880108000A128A1127
:1001A800BA200A128A110A128A1184200A128A11A4
:0801B800D7280A128A110C2855
:04400E00D420FF3F7C
:00000001FF
