:060000000A128A110C280F
:10000800FE00030EF2000A08F3000A168A11982867
:100018000A128A110F28831603130A128A11FD2760
:100028000A128A11EF00831790308400D6300A161E
:100038008A15A5260A128A118313CA308400EF3064
:100048000A168A15A5260A128A11F601F701F8017F
:10005800F90183010A168A113928831203135C08EF
:100068008039E100610883160313A000831203138B
:100078005C08E1006107E200620883160313A6002A
:1000880083120313DB1F49284A284D2883160313BC
:1000980026148316031326080319532854286628A0
:1000A800260A031D58285928632800308312031391
:1000B800DC000030DB000030DA000030D9008312A9
:1000C800DB177028003083120313DC000030DB00DC
:1000D8000030DA000030D90060088039E10061089A
:1000E80083160313A006831203136008E100610757
:1000F800E200620883160313A10083120313DF1FB3
:10010800862887288A288316031321148316031345
:100118002108031990289128A328210A031D95284E
:100128009628A028003083120313E0000030DF0077
:100138000030DE000030DD008312DF17AD2800300C
:1001480083120313E0000030DF000030DE000030CF
:10015800DD008316031321080319B328B428B9282E
:100168002608031DB828B928C428003083120313B1
:10017800DC000030DB000030DA000030D900592DF7
:10018800831203135908E1006108F4005F080A1696
:100198008A15D7270A128A11750883160313AC002B
:1001A8007408AB002B0883120313E100E201E3019A
:1001B800E401640883160313A5008312031363087C
:1001C80083160313A4008312031362088316031310
:1001D800A30083120313610883160313A2002C08DB
:1001E80083120313E100E201E301E40164088316CA
:1001F8000313AA0083120313630883160313A900C9
:1002080083120313620883160313A80083120313CF
:10021800610883160313A700831203135A08E10029
:100228006108F4005E080A168A15D7270A128A118F
:10023800750883160313AC007408AB002B088312EF
:100248000313E100E201E301E401610883160313EB
:10025800A20783120313620803110318013E03194E
:10026800382983160313A3078312031363080311A2
:100278000318013E0319432983160313A4078312A5
:100288000313640803110318013E03194E2983164A
:100298000313A50783120313831603132C08831271
:1002A8000313E100E201E301E4016108831603138B
:1002B800A70783120313620803110318013E0319E9
:1002C800682983160313A80783120313630803110D
:1002D8000318013E0319732983160313A907831210
:1002E8000313640803110318013E03197E298316BA
:1002F8000313AA078312031383160313831203132A
:100308005B08E1006108F4005D080A168A15D72722
:100318000A128A11750883160313AC007408AB001F
:100328002B0883120313E100E201E301E4016108F1
:1003380083160313A2078312031362080311031819
:10034800013E0319AA2983160313A3078312031373
:10035800630803110318013E0319B5298316031313
:10036800A40783120313640803110318013E031939
:10037800C02983160313A5078312031383160313D7
:100388002C0883120313E100E201E301E401610890
:1003980083160313A70783120313620803110318B4
:1003A800013E0319DA2983160313A80783120313DE
:1003B800630803110318013E0319E5298316031383
:1003C800A90783120313640803110318013E0319D4
:1003D800F02983160313AA07831203138316031342
:1003E800083083120313E100031083160313A20DD0
:1003F800A30DA40DA50D83120313E10BF8295A08C8
:10040800E1006108F4005D080A168A15D7270A1268
:100418008A11750883160313AC007408AB002B0807
:1004280083120313E100831603132C0883120313AA
:10043800E200E301E401610883160313A2078312B3
:100448000313620803110318013E03192E2A8316A9
:100458000313A30783120313630803110318013E50
:100468000319392A83160313A40783120313640894
:1004780003110318013E0319442A83160313A50721
:100488008312031383160313831203135908E1001D
:100498006108F4005E080A168A15D7270A128A111D
:1004A800750883160313AC007408AB002B0883127D
:1004B8000313E100831603132C0883120313E200CD
:1004C800E301E401610883160313A20783120313EF
:1004D800620803110318013E0319752A83160313D2
:1004E800A30783120313630803110318013E0319BA
:1004F800802A83160313A4078312031364080311C5
:100508000318013E03198B2A83160313A5078312C8
:10051800031383160313083083120313E100031037
:1005280083160313A20DA30DA40DA50D83120313A7
:10053800E10B932A5908E1006108F4005D080A16E6
:100548008A15D7270A128A11750883160313AC0077
:100558007408AB002B0883120313E10083160313FE
:100568002C0883120313E200E301E40161088316F7
:100578000313A20783120313620803110318013E31
:100588000319C92A83160313A307831203136308E5
:1005980003110318013E0319D42A83160313A40771
:1005A80083120313640803110318013E0319DF2A99
:1005B80083160313A50783120313831603138312E9
:1005C80003135A08E1006108F4005F080A168A1547
:1005D800D7270A128A11750883160313AC0074080A
:1005E800AB002B0883120313E100831603132C08B6
:1005F80083120313E200E301E40161088316031385
:10060800A70783120313620803110318013E031995
:10061800102B83160313A80783120313630803110F
:100628000318013E03191B2B83160313A907831212
:100638000313640803110318013E0319262B8316BC
:100648000313AA07831203138316031383120313D6
:100658005B08E1006108F4005E080A168A15D727CE
:100668000A128A11750883160313AC007408AB00CC
:100678002B0883120313E100831603132C0883123B
:100688000313E200E301E401610883160313A707DB
:1006980083120313620803110318013E0319572B31
:1006A80083160313A807831203136308031103189F
:1006B800013E0319622B83160313A9078312031340
:1006C800640803110318013E03196D2B83160313E5
:1006D800AA078312031383160313831203135B08F9
:1006E800E1006108F4005F080A168A15D7270A1284
:1006F8008A11750883160313AC007408AB002B0825
:1007080083120313E100831603132C0883120313C7
:10071800E200E301E40108300310E10DE20DE30D0E
:10072800E40DFF3E031D902B610883160313A707F2
:1007380083120313620803110318013E0319A72B40
:1007480083160313A80783120313630803110318FE
:10075800013E0319B22B83160313A907831203134F
:10076800640803110318013E0319BD2B83160313F4
:10077800AA07831203138316031322088312031391
:10078800E10083160313230883120313E200831680
:100798000313240883120313E300831603132508A5
:1007A80083120313E40018300310E40CE30CE20C8A
:1007B800E10CFF3E031DD82B610883160313A7071E
:1007C80083120313620803110318013E0319EF2B68
:1007D80083160313A807831203136308031103186E
:1007E800013E0319FA2B83160313A9078312031377
:1007F800640803110318013E0319052C831603131B
:10080800AA078312031383160313083083120313F2
:10081800E100031083160313A20DA30DA40DA50D6B
:1008280083120313E10B0D2C8316031326082107EB
:1008380083120313E100E201E20D6108823E831690
:100848000313AB008312031362080318013EFF3E33
:1008580083160313AC005D2C013083120313E100EF
:10086800031083160313A70DA80DA90DAA0D831253
:100878000313E10B342C83160313A51F442C452CBA
:10088800462C2714013083120313E100031083164A
:100898000313A20DA30DA40DA50D83120313E10BE1
:1008A8004A2CFF3083160313AB070318AC0AFF303A
:1008B800AC07A91F602C612C302CA101A51F652C49
:1008C800662C942CFF30220583120313E100FF30BD
:1008D80083160313230583120313E200FF308316E4
:1008E8000313240583120313E3007F3083160313D5
:1008F800250583120313E400640863046204610499
:100908000319872C882C8D2C83160313A101A10AA7
:10091800942C83160313271C922C932C942C882C2C
:1009280021080319982C992CE62C0130A7070030D0
:1009380003180130A807003003180130A907003058
:1009480003180130AA072A1CAA2CAB2CE62C27086E
:1009580083120313E1008316031328088312031379
:10096800E20083160313290883120313E300831696
:1009780003132A0883120313E4000130E500640D11
:10098800E40CE30CE20CE10CE50BC32C64088316C1
:100998000313AA0083120313630883160313A90021
:1009A80083120313620883160313A8008312031328
:1009B800610883160313A7000130AB070318AC0ABC
:1009C8000030AC072C08803AFF0080307F02031DFE
:1009D800EF2CFF302B02031CF22CF32CFE2C7F3063
:1009E80083160313AA008030A9000030A800003045
:1009F800A7003B2D831603132C08803AFF00803094
:100A08007F02031D092D01302B0203180C2D0D2D1B
:100A1800192D003083160313AA000030A9000030F6
:100A2800A8000030A700A0013B2D831603132B0854
:100A380083120313E100610883160313A600FF3035
:100A4800A705FF30A8057F30A9050030AA05261C98
:100A58002E2D2F2D302DA917260883120313E10000
:100A68000310610CE200620883160313AA00200831
:100A780083120313E100610883160313AA042A08EA
:100A880083120313DC00831603132908831203134C
:100A9800DB0083160313280883120313DA00831676
:100AA8000313270883120313D90008001A3083128E
:100AB8000313EA005E30E9006D30E800E80B622DB0
:100AC800E90B622DEA0B622D692D0A30831203139C
:100AD800E8006808A40001300A168A1160200A128A
:100AE8008A11CC3083120313A4000130A5000A1622
:100AF8008A11D3200A128A110A3083120313E800DC
:100B08006808A40002300A168A1160200A128A11A5
:100B1800C23083120313A4000130A5000A168A11FB
:100B2800D3200A128A110A3083120313E8006808D6
:100B3800A40003300A168A1160200A128A11B830FC
:100B480083120313A4000130A5000A168A11D320CA
:100B58000A128A11790883120313E800E901EA01ED
:100B6800EB016B08A7006A08A6006908A5006808D9
:100B7800A40000300A168A1167250A128A11831206
:100B88000313270883160313C900831203132608C7
:100B980083160313C800831203132508831603134F
:100BA800C70083120313240883160313C6004908D9
:100BB800B0004808AF004708AE004608AD00023054
:100BC800B1000030B200CC300A128A1518230A127C
:100BD8008A1183160313680883120313E800E901D6
:100BE800EA01EB016B08A7006A08A6006908A500DE
:100BF8006808A40000300A168A1167250A128A11AB
:100C080083120313270883160313C90083120313DF
:100C1800260883160313C8008312031325088316B6
:100C28000313C70083120313240883160313C60093
:100C38004908B0004808AF004708AE004608AD00B4
:100C48000230B1000030B200C2300A128A151823EF
:100C58000A128A1183160313670883120313E80024
:100C6800E901EA01EB016B08A7006A08A600690818
:100C7800A5006808A40000300A168A1167250A1220
:100C88008A1183120313270883160313C9008312DA
:100C98000313260883160313C800831203132508B9
:100CA80083160313C7008312031324088316031340
:100CB800C6004908B0004808AF004708AE0046081B
:100CC800AD000230B1000030B200B8300A128A1507
:100CD80018230A128A11323083120313A20000303B
:100CE800A30083160313680883120313E800E901BD
:100CF8006808A0006908A1000A168A15B0270A1218
:100D08008A11831203132008A4002108A5000030CB
:100D1800A51BFF30A600A70001300A168A11672517
:100D28000A128A1183120313270883160313D100AA
:100D380083120313260883160313D00083120313A8
:100D4800250883160313CF00831203132408831680
:100D58000313CE00193083120313A2000030A3003E
:100D680083160313670883120313E800E901680870
:100D7800A0006908A1000A168A15B0270A128A116C
:100D8800831203132008A4002108A5000030A51B26
:100D9800FF30A600A70001300A168A1167250A123B
:100DA8008A1183120313270883160313CD008312B5
:100DB8000313260883160313CC0083120313250894
:100DC80083160313CB00831203132408831603131B
:100DD800CA00643083120313E8006808F400790835
:100DE8000A168A15F0260A128A1183120313E900DB
:100DF800690883160313E500650883120313E800E6
:100E0800E901EA01EB016B08A7006A08A600690876
:100E1800A5006808A40001300A168A1167250A127D
:100E28008A11831203132708B9002608B800250879
:100E3800B7002408B600831603135108831203135E
:100E4800B50083160313500883120313B4008316E6
:100E580003134F0883120313B300831603134E08BA
:100E680083120313B2000A128A1590200A128A11FB
:100E780083120313350883160313C5008312031363
:100E8800340883160313C40083120313330883162C
:100E98000313C30083120313320883160313C2001B
:100EA800450883120313B9008316031344088312F9
:100EB8000313B80083160313430883120313B70000
:100EC80083160313420883120313B6008316031311
:100ED8004D0883120313B500831603134C088312BD
:100EE8000313B400831603134B0883120313B300D0
:100EF800831603134A0883120313B2000A128A15D1
:100F080090200A128A11831203133508C900340885
:100F1800C8003308C7003208C6000A168A112F23F2
:100F28000A128A11831203134608E8006808831618
:100F38000313E60066080A168A11B8220A128A11F3
:100F48000A3083120313E8006808A40004300A1664
:100F58008A1160200A128A1178080A168A156927E8
:100F68000A128A110B3083120313E8006808A400E0
:100F780004300A168A1160200A128A112E300A16C5
:100F88008A1569270A128A110C3083120313E800A4
:100F98006808A40004300A168A1160200A128A110F
:100FA80077080A168A1569270A128A110D308312E2
:100FB8000313E8006808A40004300A168A116020A8
:100FC8000A128A1176080A168A1569270A128A11DE
:100FD8000800F4000A168A15BF260A128A11740836
:100FE8008312031393008C1DFA2FFB2FF72F8C11FC
:040FF80008000834B1
:10100A00823083120313AC00DD30AB00AB0B0B282C
:10101A00AC0B0B2879080A168A11B8220A128A150B
:10102A00823083120313AC00DD30AB00AB0B1B28FC
:10103A00AC0B1B28780883120313990082308312A1
:10104A000313AC00DD30AB00AB0B2928AC0B29280D
:10105A007708831203139900823083120313AC00BA
:10106A00DD30AB00AB0B3728AC0B37287608831280
:10107A0003139900823083120313AC00DD30AB00F6
:10108A00AB0B4528AC0B4528823083120313AC0006
:10109A00DD30AB00AB0B4F28AC0B4F288316031384
:1010AA0066080A168A11B8220A128A158230831231
:1010BA000313AC00DD30AB00AB0B6128AC0B61282D
:1010CA007808831203139900823083120313AC0049
:1010DA00DD30AB00AB0B6F28AC0B6F28770883129F
:1010EA0003139900823083120313AC00DD30AB0086
:1010FA00AB0B7D28AC0B7D2876088312031399006D
:10110A00823083120313AC00DD30AB00AB0B8B28AB
:10111A00AC0B8B2808008312031335088039BA00F8
:10112A003A08C2003508BA003A07BB003B08C400B7
:10113A00B41FA028A128A228441444080319A628E9
:10114A00A728B728440A031DAB28AC28B4280030C6
:10115A00B5000030B4000030B3000030B200B4175C
:10116A00B501BF280030B5000030B4000030B3002C
:10117A000030B20039088039BA003A08C30043087F
:10118A0042060319C928CA28CB2842173908BA00C7
:10119A003A07BB003B08C300B81FD428D528D62875
:1011AA00431443080319DA28DB28EB28430A031DF2
:1011BA00DF28E028E8280030B9000030B800003005
:1011CA00B7000030B600B817B901F3280030B900EB
:1011DA000030B8000030B7000030B60044084302BF
:1011EA000318F828F9283D29421FFC28FD2801295F
:1011FA008030BA003A08C2064408BA003A08C50064
:10120A004308BA003A08C4004508BA003A08C300BD
:10121A003208BA003A08C5003608BA003A08B200DD
:10122A004508BA003A08B6003308BA003A08C500B9
:10123A003708BA003A08B3004508BA003A08B700B6
:10124A003408BA003A08C5003808BA003A08B400A7
:10125A004508BA003A08B8003508BA003A08C50085
:10126A003908BA003A08B5004508BA003A08B90080
:10127A00C5014308BA00BB013B08BD0044083A0255
:10128A00BC00031CBD033D08803AFF0080307F028A
:10129A00031D51291A303C02031C5429552992294D
:1012AA00831203133508340433043204031D5E2900
:1012BA006029013061290030BA003A08C5000030BF
:1012CA00B5000030B4000030B3000030B20043086B
:1012DA00BA003A08C4009A29451C742975297E293E
:1012EA004508BA0003103A0C0138BB003B08C50098
:1012FA0080290310C50C321C832984298529C51726
:10130A000130BA00350DB50CB40CB30CB20CBA0BE3
:10131A0087290130BA003A08C40783120313430825
:10132A004402031C99299A297129421B9D299E2945
:10133A00E9294408031DA229A329AC290030B500D4
:10134A000030B4000030B3000030B200172B36086A
:10135A00B207370803110318013E0319B529B30769
:10136A00380803110318013E0319BC29B4073908C8
:10137A0003110318013E0319C329B507351CC629F1
:10138A00C7299D2A451CCA29CB29D4294508BA0050
:10139A0003103A0C0138BB003B08C500D6290310DC
:1013AA00C50C321CD929DA29DB29C5170130BA0044
:1013BA00350DB50CB40CB30CB20CBA0BDD290130E7
:1013CA00BA003A08C4079D2A3508803AFF0039084E
:1013DA00803A7F02031DFB2938083402031DFB29CA
:1013EA0037083302031DFB29360832020318FE2987
:1013FA00FF29572AFF30BA00FF30BB00FF30BC007C
:10140A00FF30BD003608BE003708BF003808C000EC
:10141A003908C1003208BE023308031C330F162AEA
:10142A00172ABF023408031C340F1C2A1D2AC002C3
:10143A003508031C350F222A232AC1023E08BA079F
:10144A003F0803183F0F2A2A2B2ABB074008031814
:10145A00400F302A312ABC0741080318410ABD0748
:10146A003D08B5003C08B4003B08B3003A08B20096
:10147A008030BA003A08C206C509C50A4508031DE4
:10148A00472A482A652A0130B2070030031801307A
:10149A00B307003003180130B407003003180130D5
:1014AA00B507652A3608B2023708031C370FB3029C
:1014BA003808031C380FB4023908031C390FB50267
:1014CA003508340433043204031D6C2A6D2A992A20
:1014DA004508031D712A722A992A0030B500003086
:1014EA00B4000030B3000030B200172B0130BA004C
:1014FA000310B20DB30DB40DB50DBA0B7D2AC51F7D
:10150A00872A882A892A3214451C8C2A8D2A902AED
:10151A000314C50D922A0310C50D44080319962A0F
:10152A00972A992A0130C402B41F9C2A9D2A7B2A31
:10153A00C301C51FA12AA22AB02A45087F39031967
:10154A00A72AA82AAB2AC301C30AB02A321CAE2A88
:10155A00AF2AB02AA82A43080319B42AB52AE92AC5
:10156A000130B207003003180130B3070030031806
:10157A000130B407003003180130B507351CC62AFC
:10158A00C72AE92A3208BA003308BB003408BC006B
:10159A003508BD000130BE003D0DBD0CBC0CBB0CB6
:1015AA00BA0CBE0BD12A3D08B5003C08B4003B0872
:1015BA00B3003A08B200440A0319E42AE52AE92AE0
:1015CA000130BA003A08C407440A0319ED2AEE2A80
:1015DA00F32A4408031DF22AF32A012B0030B5002E
:1015EA000030B4000030B3000030B2004408031DDC
:1015FA00FF2A002B012BC201441C042B052B072BAD
:10160A00B4170B2B7F30BA003A08B4054408BA0065
:10161A0003103A0CBB003B08B500C21F152B162B52
:10162A00172BB517080083160313B7003008831267
:10163A000313C900831603132F0883120313C80068
:10164A00831603132E0883120313C700831603138A
:10165A002D0883120313C6000A168A112F230A12B1
:10166A008A1583120313470883160313B4008312DF
:10167A000313460883160313B300BE01BF01BC015E
:10168A00BD010130C0000030C100300883120313CD
:10169A00A300831603132F0883120313A2008316D1
:1016AA0003132E0883120313A100831603132D08B4
:1016BA0083120313A0000030A7000030A6000030F8
:1016CA00A5000030A4000A168A11C3240A128A153A
:1016DA000318702B712BEF2BBF3083120313DC001E
:1016EA008030DB000030DA000030D90083160313A3
:1016FA00300883120313E000831603132F088312A2
:10170A000313DF00831603132E0883120313DE006C
:10171A00831603132D0883120313DD000A128A119C
:10172A0031200A128A15831203135C0883160313E5
:10173A00B000831203135B0883160313AF008312EE
:10174A0003135A0883160313AE00831203135908AE
:10175A0083160313AD002D3083120313E60083169C
:10176A000313370884008312031366088317800063
:10177A00013083160313BC070318BD0A0030BD07E6
:10178A00EF2B0A3083120313A0000030A100831646
:10179A000313340883120313A300831603133308B5
:1017AA0083120313A2000A168A1174210A128A15D7
:1017BA0083120313210883160313B400831203133D
:1017CA00200883160313B3000130BE070318BF0AAB
:1017DA000030BF078316031333083404031DF62BA6
:1017EA00F72BC62B5B2D3E033F04031DFD2BFE2B5F
:1017FA00032C0130C0000030C100452C0230B50076
:10180A000030B6002F2C83160313410883120313EA
:10181A00A10083160313400883120313A0000A30A1
:10182A00A2000030A3000A168A15B0270A128A15E8
:10183A0083120313210883160313C10083120313AF
:10184A00200883160313C0000130B5070318B60A2F
:10185A000030B6073F08803A83120313E600831666
:10186A0003133608803A831203136602031D412CC0
:10187A008316031335083E020318442C452C082C02
:10188A0083160313400883120313A4008316031359
:10189A00410883120313A5000030A51BFF30A600E0
:1018AA00A70001300A168A1167250A128A158312BF
:1018BA0003132708B5002608B4002508B300240836
:1018CA00B20083160313300883120313B900831678
:1018DA0003132F0883120313B800831603132E0869
:1018EA0083120313B700831603132D0883120313FD
:1018FA00B6000A168A1123260A128A1583120313BE
:10190A00350883160313BB008312031334088316A6
:10191A000313BA0083120313330883160313B9009F
:10192A0083120313320883160313B8004108831283
:10193A000313A30083160313400883120313A200A0
:10194A00831603133B0883120313C9008316031378
:10195A003A0883120313C800831603133908831243
:10196A000313C70083160313380883120313C60030
:10197A000A168A112F230A128A158312031347089B
:10198A00A1004608A0000A168A15B0270A128A156D
:10199A00831203132008A4002108A5000030A51B08
:1019AA00FF30A600A70001300A168A1167250A121D
:1019BA008A15831203132708D4002608D3002508A2
:1019CA00D2002408D10083160313300883120313AC
:1019DA00D800831603132F0883120313D700831624
:1019EA0003132E0883120313D600831603132D083C
:1019FA0083120313D5000A168A158C270A128A1530
:101A0A0083120313540883160313B00083120313BB
:101A1A00530883160313AF00831203135208831665
:101A2A000313AE0083120313510883160313AD0088
:101A3A003B0883120313C900831603133A0883125F
:101A4A000313C80083160313390883120313C7004C
:101A5A0083160313380883120313C6000A168A1161
:101A6A002F230A128A15831203134608303EE60012
:101A7A00831603133C08370783120313E70067082A
:101A8A008400660883178000013083160313BC079D
:101A9A000318BD0A0030BD07FF30BE070318BF0A8E
:101AAA00FF30BF070130C0000030C1003E083F04CC
:101ABA00031D602D612DF82B2E3083120313E600CF
:101ACA00831603133C08370783120313E7006708DA
:101ADA008400660883178000013083160313BC074D
:101AEA000318BD0A0030BD070130B5000030B6004A
:101AFA00A52D83160313410883120313A10083162D
:101B0A000313400883120313A0000A30A200003016
:101B1A00A3000A168A15B0270A128A15831203131C
:101B2A00210883160313C1008312031320088316A6
:101B3A000313C0000130B5070318B60A0030B60710
:101B4A003208803A83120313E60083160313360819
:101B5A00803A831203136602031DB72D83160313FB
:101B6A00350831020318BA2DBB2D7E2D83160313B7
:101B7A00400883120313A400831603134108831237
:101B8A000313A5000030A51BFF30A600A7000130F3
:101B9A000A168A1167250A128A158312031327085F
:101BAA00DC002608DB002508DA002408D9008316A1
:101BBA000313300883120313C900831603132F0873
:101BCA0083120313C800831603132E088312031308
:101BDA00C700831603132D0883120313C6000A16BF
:101BEA008A112F230A128A15831203134608A400A6
:101BFA004708A5000030A51BFF30A600A70001304A
:101C0A000A168A1167250A128A15831203132708EE
:101C1A00D4002608D3002508D2002408D100831650
:101C2A000313300883120313D800831603132F08F3
:101C3A0083120313D700831603132E088312031388
:101C4A00D600831603132D0883120313D5000A1630
:101C5A008A158C270A128A15831203135408E00086
:101C6A005308DF005208DE005108DD000A128A110B
:101C7A0031200A128A15831203135C088316031390
:101C8A00BB00831203135B0883160313BA00831283
:101C9A0003135A0883160313B9008312031359084E
:101CAA0083160313B8003B08B0003A08AF0039089E
:101CBA00AE003808AD00300883120313C90083163A
:101CCA0003132F0883120313C800831603132E0865
:101CDA0083120313C700831603132D0883120313F9
:101CEA00C6000A168A112F230A128A150130831692
:101CFA000313C0000030C1003208BF003108BE0023
:101D0A00E92F3E033F04031D8B2E8C2E912E0130AA
:101D1A00C0000030C100D32E0230B5000030B6003A
:101D2A00BD2E83160313410883120313A1008316E1
:101D3A000313400883120313A0000A30A2000030E4
:101D4A00A3000A168A15B0270A128A1583120313EA
:101D5A00210883160313C100831203132008831674
:101D6A000313C0000130B5070318B60A0030B607DE
:101D7A003F08803A83120313E600831603133608DA
:101D8A00803A831203136602031DCF2E83160313B0
:101D9A0035083E020318D22ED32E962E831603132D
:101DAA00400883120313A400831603134108831205
:101DBA000313A5000030A51BFF30A600A7000130C1
:101DCA000A168A1167250A128A158312031327082D
:101DDA00B5002608B4002508B3002408B20083160B
:101DEA000313300883120313B900831603132F0851
:101DFA0083120313B800831603132E0883120313E6
:101E0A00B700831603132D0883120313B6000A16AC
:101E1A008A1123260A128A15831203133508831698
:101E2A000313BB0083120313340883160313BA0087
:101E3A0083120313330883160313B900831203139F
:101E4A00320883160313B800410883120313A30050
:101E5A0083160313400883120313A2008316031385
:101E6A003B0883120313C900831603133A0883122B
:101E7A000313C80083160313390883120313C70018
:101E8A0083160313380883120313C6000A168A112D
:101E9A002F230A128A15831203134708A100460842
:101EAA00A0000A168A15B0270A128A15831203138C
:101EBA002008A4002108A5000030A51BFF30A600B9
:101ECA00A70001300A168A1167250A128A15831299
:101EDA0003132708D4002608D3002508D2002408B3
:101EEA00D10083160313300883120313D800831614
:101EFA0003132F0883120313D700831603132E0824
:101F0A0083120313D600831603132D0883120313B7
:101F1A00D5000A168A158C270A128A15831203130A
:101F2A00540883160313B00083120313530883164D
:101F3A000313AF0083120313520883160313AE0070
:101F4A0083120313510883160313AD003B0883124F
:101F5A000313C900831603133A0883120313C80034
:101F6A0083160313390883120313C7008316031356
:101F7A00380883120313C6000A168A112F230A127D
:101F8A008A15831203134608303EE60083160313AC
:101F9A003C08370783120313E700670884006608C2
:101FAA0083178000013083160313BC070318BD0A88
:101FBA000030BD07FF30BE070318BF0AFF30BF0756
:101FCA000130C0000030C1003E083F04031DEE2F5F
:101FDA00EF2F862E0A3083120313E60083160313AB
:101FEA003C08370783120313E70067088400660872
:101FFA00831780000800FF1B0A2883137F188317A2
:10200A000008840A0319FF0A080010308A0004082D
:10201A00840A82070034203454346F3474346134AF
:10202A006C342D343E34513400342034513431343C
:10203A002E34303430342D343E340034203451348C
:10204A0030342E34353430342D343E340034203498
:10205A00513430342E34323435342D343E34003455
:06206A002534643400344B
:102072000A168A11DD210A168A110A168A114922C4
:102082000A168A110A128A115A250A168A110A1682
:102092008A11AB230A168A11413083120313EC0012
:1020A200EC0B51285428831203139F140A128A1529
:1020B20005200A168A1143280A128A110C28831253
:1020C2000313A70084282408BF3E0A168A15242772
:1020D2000A168A1197282408933E0A168A1524277D
:1020E2000A168A1197282408D33E0A168A1524272D
:1020F2000A168A11972824087F3E0A168A15242771
:102102000A168A1197282708A500A6012608003A70
:1021120003198C287C282508023A03196428013AFD
:1021220003196C28073A031974287C2808008312C3
:1021320003130C1F9D289E28CC281F0CF000700C46
:102142000F39003A031DA628A728CB281E08F00045
:102152000310700C7C3E95001E080139F000F00E51
:10216200F00D17087006DF39700697008316031307
:102172001E08F00007300310F00CFF3E031DBC28C0
:102182007008F100F10E8312031317087106EF397C
:10219200710697000C1373088A00720E8300FE0EFC
:1021A2007E0E090083120313A901AA01FC28290843
:1021B2002407A7002508A6000318A60AA91FE228DB
:1021C200A603831203132608A8002808FF00270885
:1021D20084000A168A1100200A168A110A168A1524
:1021E20069270A168A11013083120313A9070318FB
:1021F200AA0A0030AA0729082407A7002508A60072
:102202000318A60AA91F0629A60383120313260888
:10221200A8002808FF00270884000A168A11002057
:102222000A168A11003A031D17291829D82808000E
:1022320083120313A501A31F1F2920292729A209FD
:10224200A309A20A0319A30AA501A50AA11F2A2903
:102252002B293029A009A109A00A0319A10A2008E3
:1022620021040319352936296529A401A40A442920
:1022720001300310A00DA10DFF3E031D3A290130CC
:10228200F4007408A407A11F472948293929210805
:102292002302031D4E2920082202031C5129522920
:1022A20058292008A2022108031CA303A30201301B
:1022B2000310A10CA00CFF3E031D59290130A402FA
:1022C200031D6429652948292508031969296A29F2
:1022D2006F29A209A309A20A0319A30A2308A100CC
:1022E2002208A000080083120313A501A11F7A2966
:1022F2007B298229A009A109A00A0319A10AA50123
:10230200A50AA31F852986298F29A209A309A20A42
:102312000319A30A0130F4007408A506A601A70157
:1023220020082104031996299729CE29A401A40A79
:10233200A52901300310A00DA10DFF3E031D9B290D
:102342000130F4007408A407A11FA829A9299A2919
:1023520001300310A60DA70DFF3E031DAA29210877
:102362002302031DB62920082202031CB929BA2917
:10237200C1292008A2022108031CA303A3022614D8
:1023820001300310A10CA00CFF3E031DC229013035
:10239200A402031DCD29CE29A92925080319D22972
:1023A200D329D829A609A709A60A0319A70A270823
:1023B200A1002608A0000800013083160317880038
:1023C20089018316031305140F168F160F170F14A6
:1023D200C330831203139F054230F400F40BEF293C
:1023E2000000831203131F139F171F148316031376
:1023F2009F139F121F1207158714FA3092003F3065
:102402008312031397050F309D041708F0390C3817
:1024120097000F309500CF3097050F309B001D12AB
:102422009D128C101210921412158C1C192A1A2A41
:10243200162A8C1083160313071187108B170B179C
:102442000C17831203130C13831603131812181597
:1024520083160317871567308316031399009A01B1
:1024620083120313981718131816831603131813DD
:102472009816831203138C120C12850186018701B0
:10248200880189010A168A15CC260A168A110800C3
:102492000A168A15CC260A168A114E300A168A1195
:1024A20028240A168A1183120313A401A40A0130F4
:1024B2000A168A1160200A168A110B30831203133E
:1024C200A4008030A5000A168A11D3200A168A11A8
:1024D20083120313A401A40A02300A168A1160208F
:1024E2000A168A11143083120313A4008030A50047
:1024F2000A168A11D3200A168A1183120313A40121
:10250200A40A03300A168A1160200A168A111D30A5
:1025120083120313A4008030A5000A168A11D32067
:102522000A168A1183120313A401A40A04300A169C
:102532008A1160200A168A11013083120313A40043
:102542008030A5000A168A11D3200A168A111A3081
:1025520083120313AD005E30AC006D30AB00AB0BE9
:10256200B02AAC0BB02AAD0BB02AB72A0800F5008E
:10257200643083120313A0000030A1007508A80084
:10258200A9012808A2002908A3000A168A117421A9
:102592000A168A11831203132008AA002A08F800D7
:1025A2006430A0000030A1007508A800A901280825
:1025B200A2002908A3000A168A1119210A168A11F3
:1025C200831203132008AA002A0883160313E900C2
:1025D2000A3083120313A0000030A10083160313F4
:1025E200690883120313A800A9012808A200290878
:1025F200A3000A168A1174210A168A118312031380
:102602002008AA002A08F7000A30A0000030A10022
:1026120083160313690883120313A800A90128086B
:10262200A2002908A3000A168A1119210A168A1182
:10263200831203132008AA002A08F6007808303E05
:10264200A8002808F8007708303EA8002808F700FC
:102652007608303EA8002808F6000800031083120E
:102662000313480D490DCA004A08D0005008031D43
:102672003B2B3C2B452B0030C9000030C8000030FA
:10268200C7000030C600AA2B4608CA004708CB0084
:102692004808CC004908CD001F300310CD0CCC0CEB
:1026A200CB0CCA0CFF3E031D4E2B4A08CE004E082F
:1026B200CF00C817FF30C605FF30C705FF30C80579
:1026C2000030C9059630D002D01F682B692B832BAE
:1026D2005008803A973E03186F2B702B712B3C2BBE
:1026E20001300310C90CC80CC70CC60CFF3E031DF9
:1026F200722B0130CA004A08D007031D812B822B9E
:10270200712B9A2B20305002031C882B892B952B7E
:102712003C2B0130CA000310C60DC70DC80DC90DF0
:10272200CA0B8C2B0130D0025008031D992B9A2B17
:102732008A2B4F0803199E2B9F2BAA2BC609C70968
:10274200C809C909C60A0319C70A0319C80A03191D
:10275200C90A08000A168A15AD260A168A116130BE
:102762000A128A11ED270A168A110A168A15D92623
:102772000A168A1183120313A0002008F9000A1610
:102782008A15B6260A168A11033083120313A20091
:102792008A30A1005530A000A00BCD2BA10BCD2B70
:1027A200A20BCD2B0A168A15AD260A168A11713094
:1027B2000A128A11ED270A168A110A168A15D926D3
:1027C2000A168A1183120313A0002008831603132A
:1027D200E8000A168A15B6260A168A1103308312F1
:1027E2000313A2008A30A1005530A000A00BF72BE2
:1027F200A10BF72BA20BF72B0A168A15AD260A1688
:102802008A1181300A128A11ED270A168A110A16D4
:102812008A15D9260A168A1183120313A0002008EA
:1028220083160313E7000A168A15B6260A168A11BA
:10283200033083120313A2008A30A1005530A00096
:10284200A00B212CA10B212CA20B212C08008312FE
:102852000313A6002608A400240883160313E2002B
:1028620000300A168A1507270A168A114E3083127B
:102872000313A500EA30A400A40B3D2CA50B3D2CAC
:10288200000003300A168A1524270A168A110D3011
:1028920083120313A500FB30A400A40B4E2CA50B3E
:1028A2004E2C03300A168A1524270A168A110D3077
:1028B20083120313A500FB30A400A40B5E2CA50B0E
:1028C2005E2C03300A168A1524270A168A110D3047
:1028D20083120313A500FB30A400A40B6E2CA50BDE
:1028E2006E2C02300A168A1524270A168A110D3018
:1028F20083120313A500FB30A400A40B7E2CA50BAE
:102902007E2C28300A168A1524270A168A1182304C
:1029120083120313A500DD30A400A40B8E2CA50B9B
:102922008E2C0C300A168A1524270A168A11823038
:1029320083120313A500DD30A400A40B9E2CA50B6B
:102942009E2C01300A168A1524270A168A11823013
:1029520083120313A500DD30A400A40BAE2CA50B3B
:10296200AE2C06300A168A1524270A168A118230DE
:1029720083120313A500DD30A400A40BBE2CA50B0B
:10298200BE2C08000030831203132005A80000307B
:102992002105A90080302205AA007F302305AB0063
:1029A2002B082A0429042804031DD82CD92CE12C35
:1029B2000030A3000030A2000030A1000030A000CF
:1029C20000302405A80000302505A9008030260526
:1029D200AA007F302705AB002B082A04290428040B
:1029E200031DF42CF52CFD2C0030A7000030A600AE
:1029F2000030A5000030A400A31F002D012D252DBD
:102A02000030A8000030A9000030AA008030AB00DE
:102A12002008A8022108031C210F102D112DA90244
:102A22002208031C220F162D172DAA022308031CAD
:102A3200230F1C2D1D2DAB022B08A3002A08A20078
:102A42002908A1002808A000A71F282D292D4D2DF7
:102A52000030A8000030A9000030AA008030AB008E
:102A62002408A8022508031C250F382D392DA90298
:102A72002608031C260F3E2D3F2DAA022708031C01
:102A8200270F442D452DAB022B08A7002A08A600CC
:102A92002908A5002808A4008030A3068030A706D4
:102AA20027082302031D5F2D26082202031D5F2D26
:102AB20025082102031D5F2D240820020318622D20
:102AC200632D652D0310662D031408008312031372
:102AD200AC002C0803196E2D6F2D832DA71F722DAC
:102AE200732D832D2409AE002509AF002609B000FD
:102AF2002709B100AE0A0319AF0A0319B00A031974
:102B0200B10A8B2D2708B1002608B0002508AF00B6
:102B12002408AE002708260425042404031D922D50
:102B2200932D9C2D0030A7000030A6000030A50098
:102B32000030A400222E9630A8002808AD00AE2D49
:102B42000130A8002808AD0701300310B10CB00C09
:102B5200AF0CAE0CFF3E031DA62DFE303105031D4A
:102B6200B32DB42DA12DD02D0130A8002808AD071A
:102B72000130AE07003003180130AF0700300318F0
:102B82000130B007003003180130B10701300310E3
:102B9200B10CB00CAF0CAE0CFF3E031DC82DFF30C4
:102BA2003105031DD52DD62DB52DE22D0130AD02F7
:102BB2000130A8000310AE0DAF0DB00DB10DA80B82
:102BC200DB2DB01BE52DE62DEC2D02302D02031876
:102BD200EB2DEC2DD72D2D18EF2DF02DF82DFF30EC
:102BE200AE05FF30AF057F30B005FF30B1050310F1
:102BF200AD0C2D08A800A901AA01AB0118300310E1
:102C0200A80DA90DAA0DAB0DFF3E031D002E28082D
:102C1200AE042908AF042A08B0042B08B1042C081A
:102C22000319142E152E1A2EA71F182E192E1A2E1E
:102C3200B1173108A7003008A6002F08A5002E08FA
:102C4200A40008008312031339088039BA003A0835
:102C5200C3003908BA003A07BB003B08CA00B81FD4
:102C6200332E342E352E4A144A080319392E3A2EA1
:102C72004A2E4A0A031D3E2E3F2E472E0030B9002F
:102C82000030B8000030B7000030B600B817B90104
:102C9200522E0030B9000030B8000030B7000030CA
:102CA200B60035088039BA003A08C3063508BA00BA
:102CB2003A07BB003B08CB00B41F602E612E622E88
:102CC2004B144B080319662E672E772E4B0A031DF1
:102CD2006B2E6C2E742E0030B5000030B400003024
:102CE200B3000030B200B417B5017F2E0030B5003A
:102CF2000030B4000030B3000030B20035083404B4
:102D020033043204031D862E872EA02E0030B90014
:102D12000030B8000030B7000030B6008030B80490
:102D22007F30B9044308BA003A08B9043908B5003B
:102D32003808B4003708B3003608B200FF2F4A083B
:102D4200031DA42EA52EAE2E0030B5000030B40017
:102D52000030B3000030B200FF2F4A08BA00BB01B6
:102D62003B08BD004B083A02BC00031CBD033C08F3
:102D72007F3EC4003D080318013E003EC5003908ED
:102D8200C2003808C1003708C0003608BF00003052
:102D9200B9000030B8000030B7000030B600003093
:102DA200C9000030C8000030C7000030C600CB01A7
:102DB200242F4B080319DE2EDF2EFF2E0130BA001E
:102DC2000310BF0DC00DC10DC20DBA0BE12E0130B3
:102DD200BA000310B60DB70DB80DB90DBA0BEA2E35
:102DE200C91FF42EF52EF62E36140130BA00031048
:102DF200C60DC70DC80DC90DBA0BF82E3508420213
:102E0200031D0D2F34084102031D0D2F330840020C
:102E1200031D0D2F32083F02031C102F112F202FEC
:102E220049173208BF023308031C330FC0023408AB
:102E3200031C340FC1023508031C350FC2020130D6
:102E4200BA003A08CB071A304B02031C292F2A2F4B
:102E5200DA2E4208410440043F040319312F322F75
:102E6200512F4614512F0130BA000310B60DB70D81
:102E7200B80DB90DBA0B362FC91F402F412F422F63
:102E820036140130BA000310C60DC70DC80DC90DA6
:102E9200BA0B442FFF30C4070318C50AFF30C50719
:102EA200B81F542F552F342FCB01C91F592F5A2F1A
:102EB200762FFF304605BA00FF304705BB00FF30D2
:102EC2004805BC007F304905BD003D083C043B0479
:102ED2003A0403196D2F6E2F712FCB01CB0A762F77
:102EE200361C742F752F762F6E2F4B0803197A2FED
:102EF2007B2FAC2F0130B607003003180130B70723
:102F0200003003180130B807003003180130B90748
:102F1200391C8C2F8D2FAC2F3608BA003708BB0016
:102F22003808BC003908BD000130BE003D0DBD0CA3
:102F3200BC0CBB0CBA0CBE0B972F3D08B9003C0869
:102F4200B8003B08B7003A08B6000130C4070318BE
:102F5200C50A0030C5074508803AFF0080307F026D
:102F6200031DB52FFF304402031CB82FB92FC72F02
:102F7200FF3083120313C4000030C5000030B900D3
:102F82000030B8000030B7000030B60083120313DF
:102F92004508803AFF0080307F02031DD22F0130A6
:102FA20044020318D52FD62FE32F83120313C40133
:102FB200C5010030B9000030B8000030B700003061
:102FC200B600C301831203134408BA003A08CA00C8
:102FD2004A1CEC2FED2FEF2FB817F32F7F30BA00DA
:102FE2003A08B8054A08BA0003103A0CBB003B087D
:0E2FF200B9004308BA003A08B904972E080047
:103D4A0064008001840A0406031900340406A62EBE
:103D5A000A168A15BF260A168A1583160313111422
:103D6A0008000A168A15BF260A168A15831603132F
:103D7A0011150800831603131419C42EC52EBF2E5D
:103D8A0011081F39031DCA2ECB2EBF2E080028305A
:103D9A008312031394008316031391019401CF3005
:103DAA0093008715071608000A168A15BF260A16F1
:103DBA008A1583160313911583128C1DE52EE62EA0
:103DCA00E12E8C110A168A15BF260A168A15831245
:103DDA0003131308080083120313A100A001211C76
:103DEA00F72EF82EFC2E7408F5007508A0070310AC
:103DFA00F40D0310A10C2108031D042F052FF42E26
:103E0A0020080800F5000A168A15AD260A168A1532
:103E1A008316031362080A128A11ED270A168A15F5
:103E2A007508831603136F040A128A11ED270A16FE
:103E3A008A150A168A15B6260A168A1508008312E2
:103E4A000313A30083160313E30183120313230846
:103E5A00F0390A168A1546270A168A158312031399
:103E6A002308A20003300310A20DFF3E031D382FC2
:103E7A000310220DF0390A168A1546270A168A15E2
:103E8A00080083120313A100831603136308831225
:103E9A000313A0002008A104210804380A168A1571
:103EAA0007270A168A15831203132108FB390A16F3
:103EBA008A1507270A168A15203083120313A000D1
:103ECA00A00B652F0000080083120313A3008316BA
:103EDA000313E301E30A831203132308F0390A16D2
:103EEA008A1546270A168A15831203132308A20085
:103EFA0003300310A20DFF3E031D7E2F0310220D77
:103F0A00F0390A168A1546270A168A1508008030DB
:103F1A0083120313D4065808B5005708B40056088C
:103F2A00B3005508B2005408B9005308B800520843
:103F3A00B7005108B6000A128A1590200A168A1587
:103F4A00831203133508D4003408D3003308D2008F
:103F5A003208D1000800F401F50183120313201C72
:103F6A00B72FB82FBE2F2208F4070318F50A230823
:103F7A00F50701300310A20DA30DFF3E031DBF2F4D
:103F8A0001300310A10CA00CFF3E031DC62F200810
:103F9A002104031DD12FD22FB22F7508A100740856
:103FAA00A000080083120313A600A201A30174084B
:103FBA00A000A1012008A4002108A500261CE62FC4
:103FCA00E72FED2F2408A2070318A30A2508A30741
:103FDA0001300310A40DA50DFF3E031DEE2F0310A3
:103FEA00A60C2608031DFA2FFB2FE32F2308F50042
:063FFA002208F40008009B
:04400E00D420FF3F7C
:00000001FF
