:060000000A128A110C280F
:10000800FE00030EF0000A08F1000A168A11DA2D24
:100018000A128A110F28831603130A128A11FA2763
:100028000A128A11C7008313A0308400B7300A1659
:100038008A11E1250A128A1183120313E901FA01D0
:10004800FB0183010A168A11C22E83160313BB0013
:10005800831203135C08F5005B08F4005A08F300E8
:100068005908F2000A128A117E270A128A117308A7
:1000780083160313B8007208B700C201C301C00198
:10008800C1010130C4000030C500831203135C08AD
:10009800F5005B08F4005A08F3005908F200003034
:1000A800F9000030F8000030F7000030F6000A12BE
:1000B8008A153B220A128A11031863286428B22879
:1000C800BF3083120313C2008030C1000030C0006B
:1000D8000030BF005C08C6005B08C5005A08C400B1
:1000E8005908C3000A128A111D240A128A118312A0
:1000F80003134208DC004108DB004008DA003F082F
:10010800D9002D30DF00831603133B0884008312C7
:1001180003135F0883138000013083160313C0079D
:100128000318C10A0030C107B2280A30F2000030B3
:10013800F3003808F5003708F4000A128A15D120B0
:100148000A128A11730883160313B8007208B700DD
:100158000130C2070318C30A0030C307831603130C
:1001680037083804031DB928BA289928D629420324
:100178004304031DC028C128C6280130C40000302C
:10018800C50008290230B9000030BA00F2288316E9
:100198000313450883120313A600831603134408A8
:1001A80083120313A5000A30A7000030A8000A161E
:1001B8008A1121270A128A1183120313260883162B
:1001C8000313C50083120313250883160313C40001
:1001D8000130B9070318BA0A0030BA074308803A51
:1001E80083120313DF00831603133A08803A83123D
:1001F80003135F02031D04298316031339084202FF
:10020800031807290829CB288316031344088312E7
:100218000313A90083160313450883120313AA00C6
:100228000030AA1BFF30AB00AC0001300A128A155F
:10023800DF220A128A11831203132C08BA002B0832
:10024800B9002A08B8002908B7005C08BE005B0896
:10025800BD005A08BC005908BB000A128A159B2326
:100268000A128A11831203133A0883160313BF0074
:1002780083120313390883160313BE008312031372
:10028800380883160313BD00831203133708831637
:100298000313BC00450883120313A8008316031335
:1002A800440883120313A700831603133F08F500BD
:1002B8003E08F4003D08F3003C08F2000A128A11D7
:1002C8007E270A128A11730883120313A600720884
:1002D800A5000A168A1121270A128A11831203130C
:1002E8002508A9002608AA000030AA1BFF30AB0089
:1002F800AC0001300A128A15DF220A128A11831211
:1003080003132C08BA002B08B9002A08B8002908DA
:10031800B7005C08BE005B08BD005A08BC0059085D
:10032800BB000A168A11FD260A128A1183120313CA
:100338003A08DC003908DB003808DA003708D90049
:10034800831603133F08F5003E08F4003D08F30048
:100358003C08F2000A128A117E270A128A117208D2
:10036800303E83120313DF008316031340083B0754
:1003780083120313E000600884005F088313800081
:10038800013083160313C0070318C10A0030C107E0
:10039800FF30C2070318C30AFF30C3070130C40087
:1003A8000030C50042084304031DDB29DC29BB28B3
:1003B8002E3083120313DF008316031340083B0714
:1003C80083120313E000600884005F088313800031
:1003D800013083160313C0070318C10A0030C10790
:1003E8000130B9000030BA00202A831603134508EB
:1003F80083120313A60083160313440883120313FE
:10040800A5000A30A7000030A8000A168A11212783
:100418000A128A1183120313260883160313C500D0
:1004280083120313250883160313C4000130B90788
:100438000318BA0A0030BA07831203135E08803A19
:10044800DF00831603133A08803A831203135F020E
:10045800031D342A831603133908831203135D021C
:100468000318372A382AF9298316031344088312F4
:100478000313A90083160313450883120313AA0064
:100488000030AA1BFF30AB00AC0001300A128A15FD
:10049800DF220A128A11831203132C08C2002B08C8
:1004A800C1002A08C0002908BF005C08F5005B08E5
:1004B800F4005A08F3005908F2000A128A117E273C
:1004C8000A128A11720883120313A9007308AA007A
:1004D8000030AA1BFF30AB00AC0001300A128A15AD
:1004E800DF220A128A11831203132C08BA002B0880
:1004F800B9002A08B8002908B7005C08BE005B08E4
:10050800BD005A08BC005908BB000A168A11FD260E
:100518000A128A11831203133A08C6003908C50063
:100528003808C4003708C3000A128A111D240A12A9
:100538008A1183120313420883160313BF00831220
:100548000313410883160313BE00831203134008E4
:1005580083160313BD00831203133F088316031386
:10056800BC003F0883120313DC00831603133E0804
:1005780083120313DB00831603133D08831203134E
:10058800DA00831603133C0883120313D9005C08AE
:10059800F5005B08F4005A08F3005908F2000A1243
:1005A8008A117E270A128A11013083160313C400A8
:1005B8000030C500831203135E0883160313C300BB
:1005C800831203135D0883160313C200062C42032B
:1005D8004304031DF02AF12AF62A0130C400003032
:1005E800C500382B0230B9000030BA00222B831620
:1005F8000313450883120313A60083160313440844
:1006080083120313A5000A30A7000030A8000A16B9
:100618008A1121270A128A118312031326088316C6
:100628000313C50083120313250883160313C4009C
:100638000130B9070318BA0A0030BA074308803AEC
:1006480083120313DF00831603133A08803A8312D8
:1006580003135F02031D342B831603133908420268
:100668000318372B382BFB2A8316031344088312ED
:100678000313A90083160313450883120313AA0062
:100688000030AA1BFF30AB00AC0001300A128A15FB
:10069800DF220A128A11831203132C08BA002B08CE
:1006A800B9002A08B8002908B7005C08BE005B0832
:1006B800BD005A08BC005908BB000A128A159B23C2
:1006C8000A128A11831203133A0883160313BF0010
:1006D80083120313390883160313BE00831203130E
:1006E800380883160313BD008312031337088316D3
:1006F8000313BC00450883120313A80083160313D1
:10070800440883120313A700831603133F08F50058
:100718003E08F4003D08F3003C08F2000A128A1172
:100728007E270A128A11730883120313A60072081F
:10073800A5000A168A1121270A128A1183120313A7
:100748002508A9002608AA000030AA1BFF30AB0024
:10075800AC0001300A128A15DF220A128A118312AC
:1007680003132C08BA002B08B9002A08B800290876
:10077800B7005C08BE005B08BD005A08BC005908F9
:10078800BB000A168A11FD260A128A118312031366
:100798003A08DC003908DB003808DA003708D900E5
:1007A800831603133F08F5003E08F4003D08F300E4
:1007B8003C08F2000A128A117E270A128A1172086E
:1007C800303E83120313DF008316031340083B07F0
:1007D80083120313E000600884005F08831380001D
:1007E800013083160313C0070318C10A0030C1077C
:1007F800FF30C2070318C30AFF30C3070130C40023
:100808000030C50042084304031D0B2C0C2CEB2AB6
:100818000A3083120313DF008316031340083B07D3
:1008280083120313E000600884005F0883138000CC
:1008380008008312031342088039C7004708CC0018
:100848004208C7004707C8004808D200C11F2D2C1E
:100858002E2C2F2C521452080319332C342C432CD1
:10086800520A031D382C392C412C0030C2000030AC
:10087800C1000030C0000030BF00C1174B2C003051
:10088800C2000030C1000030C0000030BF00460880
:100898008039C7004708CC064608C7004707C80084
:1008A8004808CD00C51F592C5A2C5B2C4D144D08F7
:1008B80003195F2C602C6F2C4D0A031D642C652CCA
:1008C8006D2C0030C6000030C5000030C400003078
:1008D800C300C517772C0030C6000030C5000030B3
:1008E800C4000030C3004D0803197B2C7C2C812CDC
:1008F8005208031D802C812C8A2C0030C200003045
:10090800C1000030C0000030BF007D2F3F08C70085
:100918004708F20045080A168A1148270A128A1160
:10092800730883120313D8007208D7005708C7004A
:10093800C801C901CA014A08D1004908D0004808BD
:10094800CF004708CE005808C700C801C901CA012E
:100958004A08D6004908D5004808D4004708D300FB
:100968004008C7004708F20044080A168A114827B9
:100978000A128A11730883120313D8007208D70069
:100988005708C700C801C901CA014708CE07480867
:1009980003110318013E0319D22CCF07490803118C
:1009A8000318013E0319D92CD0074A08031103186C
:1009B800013E0319E02CD1075808C700C801C90136
:1009C800CA014708D307480803110318013E031951
:1009D800EE2CD407490803110318013E0319F52C1E
:1009E800D5074A0803110318013E0319FC2CD60742
:1009F8004108C7004708F20043080A168A11482729
:100A08000A128A11730883120313D8007208D700D8
:100A18005708C700C801C901CA014708CE074808D6
:100A280003110318013E03191A2DCF0749080311B2
:100A38000318013E0319212DD0074A080311031892
:100A4800013E0319282DD1075808C700C801C9015C
:100A5800CA014708D307480803110318013E0319C0
:100A6800362DD407490803110318013E03193D2DFB
:100A7800D5074A0803110318013E0319442DD60768
:100A88000830C7000310CE0DCF0DD00DD10DC70B08
:100A9800462D4008C7004708F20043080A168A1185
:100AA80048270A128A11730883120313D8007208A0
:100AB800D7005708C7005808C800C901CA01470825
:100AC800CE07480803110318013E03196C2DCF0700
:100AD800490803110318013E0319732DD0074A086A
:100AE80003110318013E03197A2DD1073F08C700E7
:100AF8004708F20044080A168A1148270A128A1180
:100B0800730883120313D8007208D7005708C70068
:100B18005808C800C901CA014708CE074808031188
:100B28000318013E0319992DCF074908031103182B
:100B3800013E0319A02DD0074A0803110318013EEE
:100B48000319A72DD1070830C7000310CE0DCF0D0C
:100B5800D00DD10DC70BA92D3F08C7004708F200DB
:100B680043080A168A1148270A128A117308831241
:100B78000313D8007208D7005708C7005808C800E0
:100B8800C901CA014708CE07480803110318013EE6
:100B98000319CF2DCF07490803110318013E031984
:100BA800D62DD0074A0803110318013E0319DD2D7D
:100BB800D1074008C7004708F20045080A168A11FD
:100BC80048270A128A11730883120313D80072087F
:100BD800D7005708C7005808C800C901CA01470804
:100BE800D307480803110318013E0319FC2DD40745
:100BF800490803110318013E0319032ED5074A08B3
:100C080003110318013E03190A2ED6074108C7002D
:100C18004708F20044080A168A1148270A128A115E
:100C2800730883120313D8007208D7005708C70047
:100C38005808C800C901CA014708D3074808031162
:100C48000318013E0319292ED40749080311031874
:100C5800013E0319302ED5074A0803110318013E37
:100C68000319372ED6074108C7004708F200450880
:100C78000A168A1148270A128A1173088312031365
:100C8800D8007208D7005708C7005808C800C9011B
:100C9800CA0108300310C70DC80DC90DCA0DFF3EA3
:100CA800031D4E2E4708D307480803110318013EB9
:100CB80003195F2ED407490803110318013E0319CD
:100CC800662ED5074A0803110318013E03196D2E35
:100CD800D6074E08C7004F08C8005008C900510879
:100CE800CA0018300310CA0CC90CC80CC70CFF3E48
:100CF800031D762E4708D307480803110318013E41
:100D08000319872ED407490803110318013E031954
:100D18008E2ED5074A0803110318013E0319952E94
:100D2800D6070830C7000310CE0DCF0DD00DD10D5A
:100D3800C70B972E52084D07C700C801C80D4708B2
:100D4800823ED70048080318013EFF3ED800C92E4E
:100D58000130C7000310D30DD40DD50DD60DC70B28
:100D6800AE2ED11FB82EB92EBA2E53140130C7009B
:100D78000310CE0DCF0DD00DD10DC70BBC2EFF30FB
:100D8800D7070318D80AFF30D807D51FCC2ECD2E89
:100D9800AC2ECD01D11FD12ED22EEE2EFF304E0516
:100DA800C700FF304F05C800FF305005C9007F302D
:100DB8005105CA004A084904480447040319E52EA6
:100DC800E62EE92ECD01CD0AEE2E531CEC2EED2E8B
:100DD800EE2EE62E4D080319F22EF32E242F0130A5
:100DE800D307003003180130D4070030031801304E
:100DF800D507003003180130D607561C042F052FDD
:100E0800242F5308C7005408C8005508C9005608BD
:100E1800CA000130CB004A0DCA0CC90CC80CC70C5B
:100E2800CB0B0F2F4A08D6004908D5004808D40034
:100E38004708D3000130D7070318D80A0030D8076D
:100E48005808803AFF0080307F02031D2D2FFF30A5
:100E58005702031C302F312F3C2F7F30831203138E
:100E6800D6008030D5000030D4000030D300712F78
:100E7800831203135808803AFF0080307F02031D55
:100E8800472F0130570203184A2F4B2F572F003096
:100E980083120313D6000030D5000030D400003090
:100EA800D300CC01712F831203135708C7004708DA
:100EB800D200FF30D305FF30D4057F30D505003090
:100EC800D605521C682F692F6A2FD5175208C700FC
:100ED8000310470CC8004808D6004C08C70047084C
:100EE800D6045608C2005508C1005408C00053086B
:100EF800BF0008000310740D750D83120313A000C2
:100F08002008F7007708031D8A2F8B2F942F0030B5
:100F1800F5000030F4000030F3000030F200F92F43
:100F28007208A0007308A1007408A2007508A30045
:100F38001F300310A30CA20CA10CA00CFF3E031D34
:100F48009D2F2008A4002408F600F417FF30F205AE
:100F5800FF30F305FF30F4050030F5059630F70251
:100F6800F71FB72FB82FD22F7708803A973E03186C
:100F7800BE2FBF2FC02F8B2F01300310F50CF40CA0
:100F8800F30CF20CFF3E031DC12F0130A000200816
:100F9800F707031DD02FD12FC02FE92F203077025C
:100FA800031CD72FD82FE42F8B2F0130A00003105C
:100FB800F20DF30DF40DF50DA00BDB2F0130F70248
:100FC8007708031DE82FE92FD92F76080319ED2F8D
:100FD800EE2FF92FF209F309F409F509F20A0319BA
:0E0FE800F30A0319F40A0319F50A0800083485
:10100000FF1B0A2883137F1883170008840A03191B
:10101000FF0A080008308A000408840A82070034A6
:101020002034203420344D346F346E3465346434CD
:101030006134733420343D342034513430342E3410
:10104000303430340034203431342E3430343034C1
:101050002034203430342E343534203420342034BD
:1010600030342E34323435340034203420342034BB
:10107000203420344D346F346E346534643461343C
:101080006E346134693474346F347234003425340E
:041090006434003490
:10109600F9006D287808BF3E0A168A116C260A12D6
:1010A6008A1582287808933E0A168A116C260A1237
:1010B6008A1582287808D33E0A168A116C260A12E7
:1010C6008A15822878087F3E0A168A116C260A122B
:1010D6008A158228790883120313A000A10121082A
:1010E600003A0319772865282008023A03194D2883
:1010F600013A03195528073A03195D28652808009F
:101106000A168A1108260A128A154E300A128A15FC
:10111600AB210A128A15F801F80A01300A128A155B
:101126004B200A128A152630F8008030F9000A167C
:101136008A1171270A128A15F801F80A02300A1272
:101146008A154B200A128A150130F8008030F90002
:101156000A168A1171270A128A15F801F80A03304D
:101166000A128A154B200A128A151430F8008030AC
:10117600F9000A168A1171270A128A151A30831283
:101186000313A7005E30A6006D30A500A50BC92885
:10119600A60BC928A70BC928D02808008312031359
:1011A600A101F31FD728D828DF28F209F309F20A8C
:1011B6000319F30AA101A10AF51FE228E328EC2886
:1011C600F409F509F40A0319F50A0130F600760860
:1011D600A106A201A301720873040319F328F428D7
:1011E6002B29A001A00A022901300310F20DF30DEC
:1011F600FF3E031DF8280130F6007608A007F31F0E
:1012060005290629F72801300310A20DA30DFF3E7C
:10121600031D072973087502031D1329720874023A
:10122600031C162917291E297208F4027308031CC9
:10123600F503F502221401300310F30CF20CFF3E05
:10124600031D1F290130A002031D2A292B29062967
:10125600210803192F2930293529A209A309A20A31
:101266000319A30A2308F3002208F20008005130EC
:101276000A168A1115260A128A150A168A113B269B
:101286000A128A15F300730883160313A9000A16B7
:101296008A11F2250A128A150330F5000830F40087
:1012A6007730F300F30B5529F40B5529F50B552927
:1012B6000A168A11E9250A128A1561300A168A1158
:1012C60015260A128A150A168A113B260A128A154B
:1012D600F300730883160313AA000A168A11F2256F
:1012E6000A128A150330F5000830F4007730F3004F
:1012F600F30B7B29F40B7B29F50B7B290A168A1144
:10130600E9250A128A1571300A168A1115260A125B
:101316008A150A168A113B260A128A15F300F40169
:10132600730883160313A4007408A5000A168A110D
:10133600F2250A128A150330F5000830F4007730DA
:10134600F300F30BA429F40BA429F50BA429080038
:1013560083120313A0002008F800780883160313ED
:10136600C60000300A168A1188260A128A154E30DF
:10137600F900EB30F800F80BBE29F90BBE29033053
:101386000A168A116C260A128A150D30F900FB30EE
:10139600F800F80BCC29F90BCC29D12903300A1611
:1013A6008A116C260A128A150D30F900FB30F800F6
:1013B600F80BDB29F90BDB29E02903300A168A1121
:1013C6006C260A128A150D30F900FB30F800F80B6E
:1013D600EA29F90BEA29EF2902300A168A116C2646
:1013E6000A128A150D30F900FB30F800F80BF929BE
:1013F600F90BF929FE2928300A168A116C260A12D9
:101406008A158230F900DD30F800F80B082AF90B4E
:10141600082A0D2A0C300A168A116C260A128A1519
:101426008230F900DD30F800F80B172AF90B172A7D
:101436001C2A01300A168A116C260A128A15823075
:10144600F900DD30F800F80B262AF90B262A2B2A9C
:1014560006300A168A116C260A128A158230F9009D
:10146600DD30F800F80B352AF90B352A3A2A080040
:101476000030720583120313A00000307305A1002B
:1014860080307405A2007F307505A300230822046E
:1014960021042004031D502A512A592A0030F50040
:1014A6000030F4000030F3000030F2000030760522
:1014B600A00000307705A10080307805A2007F30BB
:1014C6007905A3002308220421042004031D6C2AA5
:1014D6006D2A752A0030F9000030F8000030F70058
:1014E6000030F600F51F782A792A9D2A0030A000E0
:1014F6000030A1000030A2008030A3007208A002D4
:101506007308031C730F882A892AA1027408031C16
:10151600740F8E2A8F2AA2027508031C750F942A4F
:10152600952AA3022308F5002208F4002108F300F7
:101536002008F200F91FA02AA12AC52A0030A0001F
:101546000030A1000030A2008030A3007608A0027F
:101556007708031C770FB02AB12AA1027808031C6A
:10156600780FB62AB72AA2027908031C790FBC2A7B
:10157600BD2AA3022308F9002208F8002108F70073
:101586002008F6008030F5068030F90679087502E5
:10159600031DD72A78087402031DD72A7708730219
:1015A600031DD72A760872020318DA2ADB2ADD2AF7
:1015B6000310DE2A0314080083120313B100310856
:1015C6000319E62AE72AFB2AAC1FEA2AEB2AFB2A9A
:1015D6002909B3002A09B4002B09B5002C09B60065
:1015E600B30A0319B40A0319B50A0319B60A032B79
:1015F6002C08B6002B08B5002A08B4002908B30049
:101606002C082B042A042904031D0A2B0B2B142B4C
:101616000030AC000030AB000030AA000030A9005A
:101626009A2B9630AD002D08B200262B0130AD0066
:101636002D08B20701300310B60CB50CB40CB30C70
:10164600FF3E031D1E2BFE303605031D2B2B2C2BB8
:10165600192B482B0130AD002D08B2070130B30716
:10166600003003180130B407003003180130B50705
:10167600003003180130B60701300310B60CB50C64
:10168600B40CB30CFF3E031D402BFF303605031D83
:101696004D2B4E2B2D2B5A2B0130B2020130AD00B3
:1016A6000310B30DB40DB50DB60DAD0B532BB51B15
:1016B6005D2B5E2B642B023032020318632B642BE6
:1016C6004F2B3218672B682B702BFF30B305FF307A
:1016D600B4057F30B505FF30B6050310B20C3208ED
:1016E600AD00AE01AF01B00118300310AD0DAE0D67
:1016F600AF0DB00DFF3E031D782B2D08B3042E0849
:10170600B4042F08B5043008B604310803198C2B2D
:101716008D2B922BAC1F902B912B922BB617360844
:10172600AC003508AB003408AA003308A90008004D
:10173600831203133E088039BF003F08C8003E08E5
:10174600BF003F07C0004008CF00BD1FAB2BAC2B2E
:10175600AD2B4F144F080319B12BB22BC22B4F0AD6
:10176600031DB62BB72BBF2B0030BE000030BD00CB
:101776000030BC000030BB00BD17BE01CA2B0030D4
:10178600BE000030BD000030BC000030BB003A088F
:101796008039BF003F08C8063A08BF003F07C000AF
:1017A6004008D000B91FD82BD92BDA2B501450087B
:1017B6000319DE2BDF2BEF2B500A031DE32BE42B43
:1017C600EC2B0030BA000030B9000030B800003011
:1017D600B700B917BA01F72B0030BA000030B900CC
:1017E6000030B8000030B7003A083904380437042E
:1017F600031DFE2BFF2B182C0030BE000030BD0051
:101806000030BC000030BB008030BD047F30BE0419
:101816004808BF003F08BE043E08BA003D08B900AC
:101826003C08B8003B08B700772D4F08031D1C2C59
:101836001D2C262C0030BA000030B9000030B8004C
:101846000030B700772D4F08BF00C0014008C20026
:1018560050083F02C100031CC20341087F3EC90075
:1018660042080318013E003ECA003E08C7003D0874
:10187600C6003C08C5003B08C4000030BE0000306E
:10188600BD000030BC000030BB000030CE00003090
:10189600CD000030CC000030CB00D0019C2C50088D
:1018A6000319562C572C772C0130BF000310C40D9A
:1018B600C50DC60DC70DBF0B592C0130BF00031057
:1018C600BB0DBC0DBD0DBE0DBF0B622CCE1F6C2C0F
:1018D6006D2C6E2C3B140130BF000310CB0DCC0DCC
:1018E600CD0DCE0DBF0B702C3A084702031D852C7B
:1018F60039084602031D852C38084502031D852C30
:1019060037084402031C882C892C982C4E1737085C
:10191600C4023808031C380FC5023908031C390FE6
:10192600C6023A08031C3A0FC7020130BF003F083F
:10193600D0071A305002031CA12CA22C522C4708A7
:101946004604450444040319A92CAA2CC92C4B149B
:10195600C92C0130BF000310BB0DBC0DBD0DBE0D63
:10196600BF0BAE2CCE1FB82CB92CBA2C3B140130B1
:10197600BF000310CB0DCC0DCD0DCE0DBF0BBC2C77
:10198600FF30C9070318CA0AFF30CA07BD1FCC2C8F
:10199600CD2CAC2CD001CE1FD12CD22CEE2CFF306E
:1019A6004B05BF00FF304C05C000FF304D05C100A0
:1019B6007F304E05C2004208410440043F0403192B
:1019C600E52CE62CE92CD001D00AEE2C3B1CEC2CA5
:1019D600ED2CEE2CE62C50080319F22CF32C242DBA
:1019E6000130BB07003003180130BC070030031874
:1019F6000130BD07003003180130BE073E1C042D20
:101A0600052D242D3B08BF003C08C0003D08C10041
:101A16003E08C2000130C300420DC20CC10CC00C0E
:101A2600BF0CC30B0F2D4208BE004108BD00400885
:101A3600BC003F08BB000130C9070318CA0A0030C2
:101A4600CA074A08803AFF0080307F02031D2D2D09
:101A5600FF304902031C302D312D3F2DFF308312FC
:101A66000313C9000030CA000030BE000030BD00BC
:101A76000030BC000030BB00831203134A08803AD2
:101A8600FF0080307F02031D4A2D013049020318F2
:101A96004D2D4E2D5B2D83120313C901CA01003053
:101AA600BE000030BD000030BC000030BB00C801E5
:101AB600831203134908BF003F08CF004F1C642D53
:101AC600652D672DBD176B2D7F30BF003F08BD0507
:101AD6004F08BF0003103F0CC0004008BE00480876
:101AE600BF003F08BE040F2C08007508803983121A
:101AF6000313A0002008A8007508A0002007A10075
:101B06002108AA00F41F882D892D8A2D2A142A0857
:101B160003198E2D8F2D9F2D2A0A031D932D942D8B
:101B26009C2D0030F5000030F4000030F30000304A
:101B3600F200F417F501A72D0030F5000030F4008F
:101B46000030F3000030F20079088039A000200848
:101B5600A900290828060319B12DB22DB32D28177F
:101B66007908A0002007A1002108A900F81FBC2DB4
:101B7600BD2DBE2D291429080319C22DC32DD32D21
:101B8600290A031DC72DC82DD02D0030F9000030BD
:101B9600F8000030F7000030F600F817F901DB2DE9
:101BA6000030F9000030F8000030F7000030F60091
:101BB6002A0829020318E02DE12D252E281FE42DE1
:101BC600E52DE92D8030A0002008A8062A08A000EF
:101BD6002008AB002908A0002008AA002B08A000B6
:101BE6002008A9007208A0002008AB007608A00013
:101BF6002008F2002B08A0002008F6007308A000B9
:101C06002008AB007708A0002008F3002B08A000EE
:101C16002008F7007408A0002008AB007808A00090
:101C26002008F4002B08A0002008F8007508A00082
:101C36002008AB007908A0002008F5002B08A000BA
:101C46002008F900AB012908A000A1012108A30082
:101C56002A082002A200031CA3032308803AFF00DF
:101C660080307F02031D392E1A302202031C3C2EBF
:101C76003D2E7A2E7508740473047204031D442ED7
:101C8600462E0130472E003083120313A000200891
:101C9600AB000030F5000030F4000030F3000030F7
:101CA600F2002908A0002008AA00822E2B1C5C2E18
:101CB6005D2E662E2B08A0000310200C0138A10013
:101CC6002108AB00682E0310AB0C721C6B2E6C2E19
:101CD6006D2EAB170130A000750DF50CF40CF30C4E
:101CE600F20CA00B6F2E0130A0002008AA07831269
:101CF600031329082A02031C812E822E592E281B23
:101D0600852E862ED12E2A08031D8A2E8B2E942EE2
:101D16000030F5000030F4000030F3000030F2002F
:101D2600FF2F7608F207770803110318013E0319FF
:101D36009D2EF307780803110318013E0319A42EFC
:101D4600F407790803110318013E0319AB2EF507B2
:101D5600751CAE2EAF2E852F2B1CB22EB32EBC2E8D
:101D66002B08A0000310200C0138A1002108AB00AD
:101D7600BE2E0310AB0C721CC12EC22EC32EAB1787
:101D86000130A000750DF50CF40CF30CF20CA00B51
:101D9600C52E0130A0002008AA07852F7508803AB5
:101DA600FF007908803A7F02031DE32E780874024B
:101DB600031DE32E77087302031DE32E76087202D5
:101DC6000318E62EE72E3F2FFF30A000FF30A100BC
:101DD600FF30A200FF30A3007608A4007708A50014
:101DE6007808A6007908A7007208A4027308031CE5
:101DF600730FFE2EFF2EA5027408031C740F042F0A
:101E0600052FA6027508031C750F0A2F0B2FA702B4
:101E16002408A00725080318250F122F132FA10742
:101E260026080318260F182F192FA20727080318AC
:101E3600270AA3072308F5002208F4002108F30067
:101E46002008F2008030A0002008A806AB09AB0AE3
:101E56002B08031D2F2F302F4D2F0130F207003096
:101E660003180130F307003003180130F40700307F
:101E760003180130F5074D2F7608F2027708031C88
:101E8600770FF3027808031C780FF4027908031C15
:101E9600790FF5027508740473047204031D542F38
:101EA600552F812F2B08031D592F5A2F812F0030B4
:101EB600F5000030F4000030F3000030F200FF2F90
:101EC6000130A0000310F20DF30DF40DF50DA00B7B
:101ED600652FAB1F6F2F702F712F72142B1C742F51
:101EE600752F782F0314AB0D7A2F0310AB0D2A082C
:101EF60003197E2F7F2F812F0130AA02F41F842F12
:101F0600852F632FA901AB1F892F8A2F982F2B08A6
:101F16007F3903198F2F902F932FA901A90A982F84
:101F2600721C962F972F982F902F290803199C2FF4
:101F36009D2FD12F0130F207003003180130F3072F
:101F4600003003180130F407003003180130F5079C
:101F5600751CAE2FAF2FD12F7208A0007308A100F9
:101F66007408A2007508A3000130A400230DA30C79
:101F7600A20CA10CA00CA40BB92F2308F500220873
:101F8600F4002108F3002008F2002A0A0319CC2FD6
:101F9600CD2FD12F0130A0002008AA072A0A031945
:101FA600D52FD62FDB2F2A08031DDA2FDB2FE92F9B
:101FB6000030F5000030F4000030F3000030F2008D
:101FC6002A08031DE72FE82FE92FA8012A1CEC2F6A
:101FD600ED2FEF2FF417F32F7F30A0002008F40524
:101FE6002A08A0000310200CA1002108F500A81F54
:0A1FF600FD2FFE2FFF2FF517080046
:102BB40071088A00700E8300FE0E7E0E0900640008
:102BC4008001840A0406031900340406E22D0A165F
:102BD4008A11FB250A168A1183160313111408009F
:102BE4000A168A11FB250A168A1183160313111576
:102BF4000800831603131419002E012EFB2D11084F
:102C04001F39031D062E072EFB2D080028308312C2
:102C1400031394008316031391019401CF3093009E
:102C2400871507160800F2000A168A11FB250A16F2
:102C34008A1172088312031393008C1D222E232EF3
:102C44001F2E8C110800831603178801890183162F
:102C5400031305140614861388010F168F160F1715
:102C64000F148312031385018601870188018901EA
:102C740008000A168A11FB250A168A118316031303
:102C8400911583128C1D472E482E432E8C110A1643
:102C94008A11FB250A168A118312031313080800EC
:102CA400F500831603132608F4007408F504750868
:102CB40004380A168A1188260A168A117508FB39FF
:102CC4000A168A1188260A168A112130F400F40B98
:102CD400692E0800F70083160313A6017708F0395C
:102CE4000A168A1152260A168A117708F60003304A
:102CF4000310F60DFF3E031D7A2E0310760DF039F6
:102D04000A168A1152260A168A110800F3000A16B6
:102D14008A11E9250A168A118316031346080A162E
:102D24008A1115260A168A11730883160313470499
:102D34000A168A1115260A168A110A168A11F2250C
:102D44000A168A110800F70083160313A601A60ABF
:102D54007708F0390A168A1152260A168A1177085A
:102D6400F60003300310F60DFF3E031DB42E0310CE
:102D7400760DF0390A168A1152260A168A110800AD
:102D84000A168A1125260A168A110A128A15832020
:102D94000A168A110A168A11B7270A168A110A1600
:102DA4008A11DF260A168A110A128A153A210A168E
:102DB4008A11CC2E0A128A110C2883120313051CC3
:102DC400E42EE52EF92E86170130F20072088316E0
:102DD4000313AC070630F4001330F300AD30F200F7
:102DE400F20BF22EF30BF22EF40BF22EF92E8312C9
:102DF400031386130800803083120313BA063E08B7
:102E0400F5003D08F4003C08F3003B08F2003A08E2
:102E1400F9003908F8003808F7003708F6000A12F4
:102E24008A1578250A168A11750883120313BA00C5
:102E34007408B9007308B8007208B7000800F801F4
:102E4400F90183120313251C282F292F2F2F27085C
:102E5400F8070318F90A2808F90701300310A70D29
:102E6400A80DFF3E031D302F01300310A60CA50C46
:102E7400FF3E031D372F25082604031D422F432F31
:102E8400232F7908A6007808A500080083120313ED
:102E9400A400A001A1017208F400F5017408A200C5
:102EA4007508A300241C572F582F5E2F2208A00753
:102EB4000318A10A2308A10701300310A20DA30DD2
:102EC400FF3E031D5F2F0310A40C2408031D6B2F6A
:102ED4006C2F542F2108F3002008F20008008312FD
:102EE4000313A301A4019A2F23087807A1007908EA
:102EF400A0000318A00AA31F802FA00383120313AA
:102F04002008A2002208FF00210884000A128A1562
:102F140000200A168A110A168A11A5260A168A1191
:102F2400013083120313A3070318A40A0030A40773
:102F340023087807A1007908A0000318A00AA31F9A
:102F4400A42FA003831203132008A2002208FF0069
:102F5400210884000A128A1500200A168A11003AF0
:102F6400031DB52FB62F762F0800023083120313EA
:102F7400E1006108F80004300A128A154B200A1691
:102F84008A11AD30F8000030F9000A168A11712751
:102F94000A168A11831603132C0883120313E10003
:102FA400E201E301E4016408AC006308AB006208D9
:102FB400AA006108A90000300A128A15DF220A1645
:102FC4008A11831203132C08E8002B08E7002A084F
:102FD400E6002908E5006808DC006708DB006608ED
:102FE400DA006508D9000230DD000030DE00AD30C3
:0C2FF4000A128A1129200A168A1108000E
:04400E00D420FF3F7C
:00000001FF
