:060000000A128A110C280F
:10000800FE00030EF0000A08F1000A168A11412DBD
:100018000A128A110F28831603130A128A11FA2763
:100028000A128A11E5008313A0308400D5300A161D
:100038008A1148250A128A1183120313E901FA0169
:10004800FB0183010A168A11A32D83160313D90015
:10005800831203135C08F5005B08F4005A08F300E8
:100068005908F2000A128A117E270A128A117308A7
:1000780083160313D6007208D500E001E101DE0102
:10008800DF010130E2000030E300831203135C0853
:10009800F5005B08F4005A08F3005908F200003034
:1000A800F9000030F8000030F7000030F6000A12BE
:1000B8008A1562210A128A11031863286428B22853
:1000C800BF3083120313C2008030C1000030C0006B
:1000D8000030BF005C08C6005B08C5005A08C400B1
:1000E8005908C3000A128A111D240A128A118312A0
:1000F80003134208DC004108DB004008DA003F082F
:10010800D9002D30DF0083160313590884008312A9
:1001180003135F0883138000013083160313DE077F
:100128000318DF0A0030DF07B2280A30F200003077
:10013800F3005608F5005508F4000A168A119727A7
:100148000A128A11730883160313D6007208D500A1
:100158000130E0070318E10A0030E10783160313B2
:1001680055085604031DB928BA289928D6296003CA
:100178006104031DC028C128C6280130E2000030F0
:10018800E30008290230D7000030D800F22883168F
:100198000313630883120313A6008316031362086C
:1001A80083120313A5000A30A7000030A8000A161E
:1001B8008A116A260A128A118312031326088316E3
:1001C8000313E30083120313250883160313E200C5
:1001D8000130D7070318D80A0030D8076108803AD9
:1001E80083120313DF00831603135808803A83121F
:1001F80003135F02031D04298316031357086002C3
:10020800031807290829CB288316031362088312C9
:100218000313A90083160313630883120313AA00A8
:100228000030AA1BFF30AB00AC0001300A128A155F
:1002380006220A128A11831203132C08BA002B080B
:10024800B9002A08B8002908B7005C08BE005B0896
:10025800BD005A08BC005908BB000A128A159B2326
:100268000A128A11831203133A0883160313DD0056
:1002780083120313390883160313DC008312031354
:10028800380883160313DB00831203133708831619
:100298000313DA00630883120313A80083160313F9
:1002A800620883120313A700831603135D08F50081
:1002B8005C08F4005B08F3005A08F2000A128A117D
:1002C8007E270A128A11730883120313A600720884
:1002D800A5000A168A116A260A128A1183120313C4
:1002E8002508A9002608AA000030AA1BFF30AB0089
:1002F800AC0001300A128A1506220A128A118312EA
:1003080003132C08BA002B08B9002A08B8002908DA
:10031800B7005C08BE005B08BD005A08BC0059085D
:10032800BB000A168A1146260A128A118312031381
:100338003A08DC003908DB003808DA003708D90049
:10034800831603135D08F5005C08F4005B08F300EE
:100358005A08F2000A128A117E270A128A117208B4
:10036800303E83120313DF00831603135E08590718
:1003780083120313E000600884005F088313800081
:10038800013083160313DE070318DF0A0030DF0786
:10039800FF30E0070318E10AFF30E1070130E2000F
:1003A8000030E30060086104031DDB29DC29BB2859
:1003B8002E3083120313DF00831603135E085907D8
:1003C80083120313E000600884005F088313800031
:1003D800013083160313DE070318DF0A0030DF0736
:1003E8000130D7000030D800202A83160313630891
:1003F80083120313A60083160313620883120313E0
:10040800A5000A30A7000030A8000A168A116A263B
:100418000A128A1183120313260883160313E300B2
:1004280083120313250883160313E2000130D7074C
:100438000318D80A0030D807831203135E08803ADD
:10044800DF00831603135808803A831203135F02F0
:10045800031D342A831603135708831203135D02FE
:100468000318372A382AF9298316031362088312D6
:100478000313A90083160313630883120313AA0046
:100488000030AA1BFF30AB00AC0001300A128A15FD
:1004980006220A128A11831203132C08C2002B08A1
:1004A800C1002A08C0002908BF005C08F5005B08E5
:1004B800F4005A08F3005908F2000A128A117E273C
:1004C8000A128A11720883120313A9007308AA007A
:1004D8000030AA1BFF30AB00AC0001300A128A15AD
:1004E80006220A128A11831203132C08BA002B0859
:1004F800B9002A08B8002908B7005C08BE005B08E4
:10050800BD005A08BC005908BB000A168A114626C5
:100518000A128A11831203133A08C6003908C50063
:100528003808C4003708C3000A128A111D240A12A9
:100538008A1183120313420883160313DD00831202
:100548000313410883160313DC00831203134008C6
:1005580083160313DB00831203133F088316031368
:10056800DA005D0883120313DC00831603135C08AA
:1005780083120313DB00831603135B088312031330
:10058800DA00831603135A0883120313D9005C0890
:10059800F5005B08F4005A08F3005908F2000A1243
:1005A8008A117E270A128A11013083160313E2008A
:1005B8000030E300831203135E0883160313E1007F
:1005C800831203135D0883160313E000062C6003EF
:1005D8006104031DF02AF12AF62A0130E2000030F6
:1005E800E300382B0230D7000030D800222B8316C6
:1005F8000313630883120313A60083160313620808
:1006080083120313A5000A30A7000030A8000A16B9
:100618008A116A260A128A1183120313260883167E
:100628000313E30083120313250883160313E20060
:100638000130D7070318D80A0030D8076108803A74
:1006480083120313DF00831603135808803A8312BA
:1006580003135F02031D342B83160313570860022C
:100668000318372B382BFB2A8316031362088312CF
:100678000313A90083160313630883120313AA0044
:100688000030AA1BFF30AB00AC0001300A128A15FB
:1006980006220A128A11831203132C08BA002B08A7
:1006A800B9002A08B8002908B7005C08BE005B0832
:1006B800BD005A08BC005908BB000A128A159B23C2
:1006C8000A128A11831203133A0883160313DD00F2
:1006D80083120313390883160313DC0083120313F0
:1006E800380883160313DB008312031337088316B5
:1006F8000313DA00630883120313A8008316031395
:10070800620883120313A700831603135D08F5001C
:100718005C08F4005B08F3005A08F2000A128A1118
:100728007E270A128A11730883120313A60072081F
:10073800A5000A168A116A260A128A11831203135F
:100748002508A9002608AA000030AA1BFF30AB0024
:10075800AC0001300A128A1506220A128A11831285
:1007680003132C08BA002B08B9002A08B800290876
:10077800B7005C08BE005B08BD005A08BC005908F9
:10078800BB000A168A1146260A128A11831203131D
:100798003A08DC003908DB003808DA003708D900E5
:1007A800831603135D08F5005C08F4005B08F3008A
:1007B8005A08F2000A128A117E270A128A11720850
:1007C800303E83120313DF00831603135E085907B4
:1007D80083120313E000600884005F08831380001D
:1007E800013083160313DE070318DF0A0030DF0722
:1007F800FF30E0070318E10AFF30E1070130E200AB
:100808000030E30060086104031D0B2C0C2CEB2A5C
:100818000A3083120313DF00831603135E08590797
:1008280083120313E000600884005F0883138000CC
:1008380008008312031342088039C7004708CC0018
:100848004208C7004707C8004808D200C11F2D2C1E
:100858002E2C2F2C521452080319332C342C432CD1
:10086800520A031D382C392C412C0030C2000030AC
:10087800C1000030C0000030BF00C1174B2C003051
:10088800C2000030C1000030C0000030BF00460880
:100898008039C7004708CC064608C7004707C80084
:1008A8004808CD00C51F592C5A2C5B2C4D144D08F7
:1008B80003195F2C602C6F2C4D0A031D642C652CCA
:1008C8006D2C0030C6000030C5000030C400003078
:1008D800C300C517772C0030C6000030C5000030B3
:1008E800C4000030C3004D0803197B2C7C2C812CDC
:1008F8005208031D802C812C8A2C0030C200003045
:10090800C1000030C0000030BF007D2F3F08C70085
:100918004708F20045080A168A1191260A128A1118
:10092800730883120313D8007208D7005708C7004A
:10093800C801C901CA014A08D1004908D0004808BD
:10094800CF004708CE005808C700C801C901CA012E
:100958004A08D6004908D5004808D4004708D300FB
:100968004008C7004708F20044080A168A11912671
:100978000A128A11730883120313D8007208D70069
:100988005708C700C801C901CA014708CE07480867
:1009980003110318013E0319D22CCF07490803118C
:1009A8000318013E0319D92CD0074A08031103186C
:1009B800013E0319E02CD1075808C700C801C90136
:1009C800CA014708D307480803110318013E031951
:1009D800EE2CD407490803110318013E0319F52C1E
:1009E800D5074A0803110318013E0319FC2CD60742
:1009F8004108C7004708F20043080A168A119126E1
:100A08000A128A11730883120313D8007208D700D8
:100A18005708C700C801C901CA014708CE074808D6
:100A280003110318013E03191A2DCF0749080311B2
:100A38000318013E0319212DD0074A080311031892
:100A4800013E0319282DD1075808C700C801C9015C
:100A5800CA014708D307480803110318013E0319C0
:100A6800362DD407490803110318013E03193D2DFB
:100A7800D5074A0803110318013E0319442DD60768
:100A88000830C7000310CE0DCF0DD00DD10DC70B08
:100A9800462D4008C7004708F20043080A168A1185
:100AA80091260A128A11730883120313D800720858
:100AB800D7005708C7005808C800C901CA01470825
:100AC800CE07480803110318013E03196C2DCF0700
:100AD800490803110318013E0319732DD0074A086A
:100AE80003110318013E03197A2DD1073F08C700E7
:100AF8004708F20044080A168A1191260A128A1138
:100B0800730883120313D8007208D7005708C70068
:100B18005808C800C901CA014708CE074808031188
:100B28000318013E0319992DCF074908031103182B
:100B3800013E0319A02DD0074A0803110318013EEE
:100B48000319A72DD1070830C7000310CE0DCF0D0C
:100B5800D00DD10DC70BA92D3F08C7004708F200DB
:100B680043080A168A1191260A128A1173088312F9
:100B78000313D8007208D7005708C7005808C800E0
:100B8800C901CA014708CE07480803110318013EE6
:100B98000319CF2DCF07490803110318013E031984
:100BA800D62DD0074A0803110318013E0319DD2D7D
:100BB800D1074008C7004708F20045080A168A11FD
:100BC80091260A128A11730883120313D800720837
:100BD800D7005708C7005808C800C901CA01470804
:100BE800D307480803110318013E0319FC2DD40745
:100BF800490803110318013E0319032ED5074A08B3
:100C080003110318013E03190A2ED6074108C7002D
:100C18004708F20044080A168A1191260A128A1116
:100C2800730883120313D8007208D7005708C70047
:100C38005808C800C901CA014708D3074808031162
:100C48000318013E0319292ED40749080311031874
:100C5800013E0319302ED5074A0803110318013E37
:100C68000319372ED6074108C7004708F200450880
:100C78000A168A1191260A128A117308831203131D
:100C8800D8007208D7005708C7005808C800C9011B
:100C9800CA0108300310C70DC80DC90DCA0DFF3EA3
:100CA800031D4E2E4708D307480803110318013EB9
:100CB80003195F2ED407490803110318013E0319CD
:100CC800662ED5074A0803110318013E03196D2E35
:100CD800D6074E08C7004F08C8005008C900510879
:100CE800CA0018300310CA0CC90CC80CC70CFF3E48
:100CF800031D762E4708D307480803110318013E41
:100D08000319872ED407490803110318013E031954
:100D18008E2ED5074A0803110318013E0319952E94
:100D2800D6070830C7000310CE0DCF0DD00DD10D5A
:100D3800C70B972E52084D07C700C801C80D4708B2
:100D4800823ED70048080318013EFF3ED800C92E4E
:100D58000130C7000310D30DD40DD50DD60DC70B28
:100D6800AE2ED11FB82EB92EBA2E53140130C7009B
:100D78000310CE0DCF0DD00DD10DC70BBC2EFF30FB
:100D8800D7070318D80AFF30D807D51FCC2ECD2E89
:100D9800AC2ECD01D11FD12ED22EEE2EFF304E0516
:100DA800C700FF304F05C800FF305005C9007F302D
:100DB8005105CA004A084904480447040319E52EA6
:100DC800E62EE92ECD01CD0AEE2E531CEC2EED2E8B
:100DD800EE2EE62E4D080319F22EF32E242F0130A5
:100DE800D307003003180130D4070030031801304E
:100DF800D507003003180130D607561C042F052FDD
:100E0800242F5308C7005408C8005508C9005608BD
:100E1800CA000130CB004A0DCA0CC90CC80CC70C5B
:100E2800CB0B0F2F4A08D6004908D5004808D40034
:100E38004708D3000130D7070318D80A0030D8076D
:100E48005808803AFF0080307F02031D2D2FFF30A5
:100E58005702031C302F312F3C2F7F30831203138E
:100E6800D6008030D5000030D4000030D300712F78
:100E7800831203135808803AFF0080307F02031D55
:100E8800472F0130570203184A2F4B2F572F003096
:100E980083120313D6000030D5000030D400003090
:100EA800D300CC01712F831203135708C7004708DA
:100EB800D200FF30D305FF30D4057F30D505003090
:100EC800D605521C682F692F6A2FD5175208C700FC
:100ED8000310470CC8004808D6004C08C70047084C
:100EE800D6045608C2005508C1005408C00053086B
:100EF800BF0008000310740D750D83120313A000C2
:100F08002008F7007708031D8A2F8B2F942F0030B5
:100F1800F5000030F4000030F3000030F200F92F43
:100F28007208A0007308A1007408A2007508A30045
:100F38001F300310A30CA20CA10CA00CFF3E031D34
:100F48009D2F2008A4002408F600F417FF30F205AE
:100F5800FF30F305FF30F4050030F5059630F70251
:100F6800F71FB72FB82FD22F7708803A973E03186C
:100F7800BE2FBF2FC02F8B2F01300310F50CF40CA0
:100F8800F30CF20CFF3E031DC12F0130A000200816
:100F9800F707031DD02FD12FC02FE92F203077025C
:100FA800031CD72FD82FE42F8B2F0130A00003105C
:100FB800F20DF30DF40DF50DA00BDB2F0130F70248
:100FC8007708031DE82FE92FD92F76080319ED2F8D
:100FD800EE2FF92FF209F309F409F509F20A0319BA
:0E0FE800F30A0319F40A0319F50A0800083485
:10100000FF1B0A2883137F1883170008840A03191B
:10101000FF0A080008308A000408840A82070034A6
:1010200020344D346F346E34653464346134733439
:101030002034643465342034513430342E34353423
:1010400030343A342034003420344D346F346E342C
:10105000653464346134733420346434653420344A
:10106000513430342E34323435343A342034003470
:10107000203445346C34203474346F347434613427
:101080006C34203465347334203464346534203453
:101090003A3420345134003420344D346F346E34BB
:1010A00065346434613473342034643465342034FA
:1010B000513431343A34203400342534643400342B
:1010C80051300A168A117C250A128A150A168A11C5
:1010D8008C250A128A15F300730883160313B100CE
:1010E8000A168A1159250A128A150330F5000830A4
:1010F800F4007730F300F30B7F28F40B7F28F50B0F
:101108007F280A168A1150250A128A1561300A1694
:101118008A117C250A128A150A168A118C250A1248
:101128008A15F300730883160313B0000A168A1190
:1011380059250A128A150330F5000830F400773073
:10114800F300F30BA528F40BA528F50BA5280A1620
:101158008A1150250A128A1571300A168A117C25BF
:101168000A128A150A168A118C250A128A15F300A2
:10117800730883160313AF000A168A1159250A1239
:101188008A150330F5000830F4007730F300F30BCC
:10119800CB28F40BCB28F50BCB28080083120313BC
:1011A800A0002008F800780883160313E400003034
:1011B8000A168A110C260A128A154E30F900EB30ED
:1011C800F800F80BE528F90BE52803300A168A1110
:1011D800F0250A128A150D30F900FB30F800F80BDB
:1011E800F328F90BF328F82803300A168A11F0259A
:1011F8000A128A150D30F900FB30F800F80B0229A5
:10120800F90B0229072903300A168A11F0250A1258
:101218008A150D30F900FB30F800F80B1129F90B8D
:101228001129162902300A168A11F0250A128A1580
:101238000D30F900FB30F800F80B2029F90B2029B4
:10124800252928300A168A11F0250A128A158230B3
:10125800F900DD30F800F80B2F29F90B2F29342974
:101268000C300A168A11F0250A128A158230F90004
:10127800DD30F800F80B3E29F90B3E2943290130EF
:101288000A168A11F0250A128A158230F900DD3013
:10129800F800F80B4D29F90B4D29522906300A168A
:1012A8008A11F0250A128A158230F900DD30F8001B
:1012B800F80B5C29F90B5C296129080000307205DC
:1012C80083120313A00000307305A1008030740559
:1012D800A2007F307505A3002308220421042004FE
:1012E800031D7729782980290030F5000030F400A3
:1012F8000030F3000030F20000307605A000003026
:101308007705A10080307805A2007F307905A30019
:101318002308220421042004031D932994299C29CD
:101328000030F9000030F8000030F7000030F60017
:10133800F51F9F29A029C4290030A0000030A10072
:101348000030A2008030A3007208A0027308031CBA
:10135800730FAF29B029A1027408031C740FB529B3
:10136800B629A2027508031C750FBB29BC29A30264
:101378002308F5002208F4002108F3002008F200F1
:10138800F91FC729C829EC290030A0000030A100A6
:101398000030A2008030A3007608A0027708031C62
:1013A800770FD729D829A1027808031C780FDD29DF
:1013B800DE29A2027908031C790FE329E429A30294
:1013C8002308F9002208F8002108F7002008F60091
:1013D8008030F5068030F90679087502031DFE296C
:1013E80078087402031DFE2977087302031DFE297D
:1013F800760872020318012A022A042A0310052A11
:101408000314080083120313B100310803190D2ACD
:101418000E2A222AAC1F112A122A222A2909B300CD
:101428002A09B4002B09B5002C09B600B30A031920
:10143800B40A0319B50A0319B60A2A2A2C08B600F1
:101448002B08B5002A08B4002908B3002C082B047F
:101458002A042904031D312A322A3B2A0030AC0011
:101468000030AB000030AA000030A900C12A963035
:10147800AD002D08B2004D2A0130AD002D08B2078D
:1014880001300310B60CB50CB40CB30CFF3E031DB1
:10149800452AFE303605031D522A532A402A6F2A50
:1014A8000130AD002D08B2070130B3070030031832
:1014B8000130B407003003180130B50700300318B5
:1014C8000130B60701300310B60CB50CB40CB30CE0
:1014D800FF3E031D672AFF303605031D742A752A4F
:1014E800542A812A0130B2020130AD000310B30D35
:1014F800B40DB50DB60DAD0B7A2AB51B842A852A15
:101508008B2A0230320203188A2A8B2A762A32184A
:101518008E2A8F2A972AFF30B305FF30B4057F3013
:10152800B505FF30B6050310B20C3208AD00AE01A8
:10153800AF01B00118300310AD0DAE0DAF0DB00DF9
:10154800FF3E031D9F2A2D08B3042E08B4042F085C
:10155800B5043008B60431080319B32AB42AB92AE5
:10156800AC1FB72AB82AB92AB6173608AC0035080E
:10157800AB003408AA003308A9000800053083121C
:101588000313E1006108F80001300A168A11BA262F
:101598000A128A15CB30F8000030F9000A168A11B1
:1015A800F2260A128A15053083120313E100610836
:1015B800F80002300A168A11BA260A128A15C130B2
:1015C800F8000030F9000A168A11F2260A128A1564
:1015D800053083120313E1006108F80003300A168E
:1015E8008A11BA260A128A15B730F8000030F900B5
:1015F8000A168A11F2260A128A158316031331086D
:1016080083120313E100E201E301E4016408AC0082
:101618006308AB006208AA006108A90000300A123A
:101628008A1506220A128A15831203132C08E80069
:101638002B08E7002A08E6002908E5006808DC000E
:101648006708DB006608DA006508D9000230DD00AB
:101658000030DE00CB300A128A1129200A128A15BE
:1016680083160313300883120313E100E201E30138
:10167800E4016408AC006308AB006208AA006108D2
:10168800A90000300A128A1506220A128A15831246
:1016980003132C08E8002B08E7002A08E6002908AD
:1016A800E5006808DC006708DB006608DA00650802
:1016B800D9000230DD000030DE00C1300A128A1184
:1016C80029200A128A15831603132F08831203137D
:1016D800E100E201E301E4016408AC006308AB0047
:1016E8006208AA006108A90000300A128A150622B9
:1016F8000A128A15831203132C08E8002B08E70046
:101708002A08E6002908E5006808DC006708DB000D
:101718006608DA006508D9000230DD000030DE0016
:10172800B7300A128A1129200A128A150800831272
:1017380003133E088039BF003F08C8003E08BF00B9
:101748003F07C0004008CF00BD1FAB2BAC2BAD2B13
:101758004F144F080319B12BB22BC22B4F0A031D8C
:10176800B62BB72BBF2B0030BE000030BD000030B9
:10177800BC000030BB00BD17BE01CA2B0030BE0044
:101788000030BD000030BC000030BB003A08803992
:10179800BF003F08C8063A08BF003F07C00040081E
:1017A800D000B91FD82BD92BDA2B501450080319A5
:1017B800DE2BDF2BEF2B500A031DE32BE42BEC2B46
:1017C8000030BA000030B9000030B8000030B7006F
:1017D800B917BA01F72B0030BA000030B900003051
:1017E800B8000030B7003A08390438043704031D3C
:1017F800FE2BFF2B182C0030BE000030BD0000303F
:10180800BC000030BB008030BD047F30BE044808F7
:10181800BF003F08BE043E08BA003D08B9003C08B6
:10182800B8003B08B700772D4F08031D1C2C1D2C52
:10183800262C0030BA000030B9000030B800003063
:10184800B700772D4F08BF00C0014008C2005008FC
:101858003F02C100031CC20341087F3EC900420881
:101868000318013E003ECA003E08C7003D08C600F6
:101878003C08C5003B08C4000030BE000030BD0075
:101888000030BC000030BB000030CE000030CD007E
:101898000030CC000030CB00D0019C2C500803193C
:1018A800562C572C772C0130BF000310C40DC50DE2
:1018B800C60DC70DBF0B592C0130BF000310BB0D5F
:1018C800BC0DBD0DBE0DBF0B622CCE1F6C2C6D2C3C
:1018D8006E2C3B140130BF000310CB0DCC0DCD0D89
:1018E800CE0DBF0B702C3A084702031D852C390812
:1018F8004602031D852C38084502031D852C370830
:101908004402031C882C892C982C4E173708C402D3
:101918003808031C380FC5023908031C390FC602E2
:101928003A08031C3A0FC7020130BF003F08D0072E
:101938001A305002031CA12CA22C522C4708460432
:10194800450444040319A92CAA2CC92C4B14C92CEE
:101958000130BF000310BB0DBC0DBD0DBE0DBF0B8C
:10196800AE2CCE1FB82CB92CBA2C3B140130BF00BA
:101978000310CB0DCC0DCD0DCE0DBF0BBC2CFF3005
:10198800C9070318CA0AFF30CA07BD1FCC2CCD2CC3
:10199800AC2CD001CE1FD12CD22CEE2CFF304B0515
:1019A800BF00FF304C05C000FF304D05C1007F303F
:1019B8004E05C2004208410440043F040319E52CC7
:1019C800E62CE92CD001D00AEE2C3B1CEC2CED2C9B
:1019D800EE2CE62C50080319F22CF32C242D0130A0
:1019E800BB07003003180130BC0700300318013072
:1019F800BD07003003180130BE073E1C042D052D1D
:101A0800242D3B08BF003C08C0003D08C1003E082B
:101A1800C2000130C300420DC20CC10CC00CBF0C87
:101A2800C30B0F2D4208BE004108BD004008BC0092
:101A38003F08BB000130C9070318CA0A0030CA07AB
:101A48004A08803AFF0080307F02031D2D2DFF30A9
:101A58004902031C302D312D3F2DFF308312031313
:101A6800C9000030CA000030BE000030BD000030A0
:101A7800BC000030BB00831203134A08803AFF0001
:101A880080307F02031D4A2D0130490203184D2D75
:101A98004E2D5B2D83120313C901CA010030BE000D
:101AA8000030BD000030BC000030BB00C80183120C
:101AB80003134908BF003F08CF004F1C642D652D54
:101AC800672DBD176B2D7F30BF003F08BD054F0840
:101AD800BF0003103F0CC0004008BE004808BF000C
:101AE8003F08BE040F2C08007508803983120313C1
:101AF800A0002008A8007508A0002007A100210860
:101B0800AA00F41F882D892D8A2D2A142A08031962
:101B18008E2D8F2D9F2D2A0A031D932D942D9C2DDC
:101B28000030F5000030F4000030F3000030F2001F
:101B3800F417F501A72D0030F5000030F40000304F
:101B4800F3000030F20079088039A0002008A900CD
:101B5800290828060319B12DB22DB32D28177908A5
:101B6800A0002007A1002108A900F81FBC2DBD2D49
:101B7800BE2D291429080319C22DC32DD32D290AD6
:101B8800031DC72DC82DD02D0030F9000030F800F6
:101B98000030F7000030F600F817F901DB2D0030AF
:101BA800F9000030F8000030F7000030F6002A088D
:101BB80029020318E02DE12D252E281FE42DE52DFF
:101BC800E92D8030A0002008A8062A08A0002008D7
:101BD800AB002908A0002008AA002B08A0002008B4
:101BE800A9007208A0002008AB007608A000200811
:101BF800F2002B08A0002008F6007308A0002008B7
:101C0800AB007708A0002008F3002B08A0002008EC
:101C1800F7007408A0002008AB007808A00020088E
:101C2800F4002B08A0002008F8007508A000200880
:101C3800AB007908A0002008F5002B08A0002008B8
:101C4800F900AB012908A000A1012108A3002A0876
:101C58002002A200031CA3032308803AFF0080305F
:101C68007F02031D392E1A302202031C3C2E3D2E02
:101C78007A2E7508740473047204031D442E462ECC
:101C88000130472E003083120313A0002008AB0058
:101C98000030F5000030F4000030F3000030F200AE
:101CA8002908A0002008AA00822E2B1C5C2E5D2E7D
:101CB800662E2B08A0000310200C0138A100210873
:101CC800AB00682E0310AB0C721C6B2E6C2E6D2EA5
:101CD800AB170130A000750DF50CF40CF30CF20CE9
:101CE800A00B6F2E0130A0002008AA07831203134F
:101CF80029082A02031C812E822E592E281B852E84
:101D0800862ED12E2A08031D8A2E8B2E942E003063
:101D1800F5000030F4000030F3000030F200FF2F2F
:101D28007608F207770803110318013E03199D2E60
:101D3800F307780803110318013E0319A42EF407CA
:101D4800790803110318013E0319AB2EF507751C1A
:101D5800AE2EAF2E852F2B1CB22EB32EBC2E2B08E9
:101D6800A0000310200C0138A1002108AB00BE2EF2
:101D78000310AB0C721CC12EC22EC32EAB17013040
:101D8800A000750DF50CF40CF30CF20CA00BC52E8D
:101D98000130A0002008AA07852F7508803AFF00A7
:101DA8007908803A7F02031DE32E78087402031D28
:101DB800E32E77087302031DE32E760872020318D8
:101DC800E62EE72E3F2FFF30A000FF30A100FF30A6
:101DD800A200FF30A3007608A4007708A5007808C1
:101DE800A6007908A7007208A4027308031C730FE1
:101DF800FE2EFF2EA5027408031C740F042F052F56
:101E0800A6027508031C750F0A2F0B2FA7022408BA
:101E1800A00725080318250F122F132FA10726083E
:101E28000318260F182F192FA20727080318270AA7
:101E3800A3072308F5002208F4002108F30020086E
:101E4800F2008030A0002008A806AB09AB0A2B08D6
:101E5800031D2F2F302F4D2F0130F20700300318AC
:101E68000130F307003003180130F407003003187D
:101E78000130F5074D2F7608F2027708031C770F1B
:101E8800F3027808031C780FF4027908031C790F11
:101E9800F5027508740473047204031D542F552F3A
:101EA800812F2B08031D592F5A2F812F0030F50041
:101EB8000030F4000030F3000030F200FF2F013052
:101EC800A0000310F20DF30DF40DF50DA00B652F16
:101ED800AB1F6F2F702F712F72142B1C742F752F3F
:101EE800782F0314AB0D7A2F0310AB0D2A080319B2
:101EF8007E2F7F2F812F0130AA02F41F842F852F78
:101F0800632FA901AB1F892F8A2F982F2B087F39A0
:101F180003198F2F902F932FA901A90A982F721CAC
:101F2800962F972F982F902F290803199C2F9D2FB4
:101F3800D12F0130F207003003180130F3070030C9
:101F480003180130F407003003180130F507751C39
:101F5800AE2FAF2FD12F7208A0007308A10074080C
:101F6800A2007508A3000130A400230DA30CA20C45
:101F7800A10CA00CA40BB92F2308F5002208F4002B
:101F88002108F3002008F2002A0A0319CC2FCD2FCC
:101F9800D12F0130A0002008AA072A0A0319D52F3B
:101FA800D62FDB2F2A08031DDA2FDB2FE92F00306D
:101FB800F5000030F4000030F3000030F2002A0889
:101FC800031DE72FE82FE92FA8012A1CEC2FED2F7E
:101FD800EF2FF417F32F7F30A0002008F4052A080C
:101FE800A0000310200CA1002108F500A81FFD2F58
:081FF800FE2FFF2FF517080072
:102A820071088A00700E8300FE0E7E0E090064003B
:102A92008001840A0406031900340406492D0A162B
:102AA2008A1162250A168A1183160313111408006B
:102AB2000A168A1162250A168A1183160313111542
:102AC2000800831603131419672D682D622D11084F
:102AD2001F39031D6D2D6E2D622D080028308312C3
:102AE200031394008316031391019401CF309300D2
:102AF200871507160800F2000A168A1162250A16BF
:102B02008A1172088312031393008C1D892D8A2D5A
:102B1200862D8C1108000A168A1162250A168A115E
:102B220083160313911583128C1D982D992D942DC4
:102B32008C110A168A1162250A168A11831203134E
:102B4200130808000A168A11D5250A168A110A16D0
:102B52008A1138270A168A110A128A1564200A165F
:102B62008A110A128A15C2220A168A11AD2D0A1278
:102B72008A110C28F500831603132E08F40074083A
:102B8200F504750804380A168A110C260A168A11E9
:102B92007508FB390A168A110C260A168A11213089
:102BA200F400F40BD22D0800831603178801890163
:102BB2008316031305140614861388010F168F1645
:102BC2000F170F14831203138501860187018801F1
:102BD20089010A168A116F250A168A110800F70060
:102BE20083160313AE017708F0390A168A11BB2542
:102BF2000A168A117708F60003300310F60DFF3E1D
:102C0200031DFE2D0310760DF0390A168A11BB251D
:102C12000A168A110800F3000A168A1150250A16AC
:102C22008A118316031364080A168A117C250A1670
:102C32008A1173088316031365040A168A117C2508
:102C42000A168A110A168A1159250A168A110800CB
:102C5200F70083160313AE01AE0A7708F0390A169D
:102C62008A11BB250A168A117708F6000330031071
:102C7200F60DFF3E031D382E0310760DF0390A16AD
:102C82008A11BB250A168A110800803083120313A9
:102C9200BA063E08F5003D08F4003C08F3003B0884
:102CA200F2003A08F9003908F8003808F700370846
:102CB200F6000A128A1578250A168A1175088312F7
:102CC2000313BA007408B9007308B8007208B70099
:102CD2000800F801F90183120313251C712E722ECC
:102CE200782E2708F8070318F90A2808F90701308F
:102CF2000310A70DA80DFF3E031D792E013003100E
:102D0200A60CA50CFF3E031D802E25082604031DDC
:102D12008B2E8C2E6C2E7908A6007808A500080050
:102D220083120313A400A001A1017208F400F501AB
:102D32007408A2007508A300241CA02EA12EA72EA1
:102D42002208A0070318A10A2308A10701300310D3
:102D5200A20DA30DFF3E031DA82E0310A40C2408F0
:102D6200031DB42EB52E9D2E2108F3002008F2007B
:102D72000800F900DC2E7808BF3E0A168A11F025F9
:102D82000A168A11F12E7808933E0A168A11F02546
:102D92000A168A11F12E7808D33E0A168A11F025F6
:102DA2000A168A11F12E78087F3E0A168A11F0253A
:102DB2000A168A11F12E790883120313A000A101C9
:102DC2002108003A0319E62ED42E2008023A0319EC
:102DD200BC2E013A0319C42E073A0319CC2ED42E65
:102DE200080083120313A301A4011B2F23087807F1
:102DF200A1007908A0000318A00AA31F012FA003B5
:102E0200831203132008A2002208FF002108840075
:102E12000A128A1500200A168A110A168A11292610
:102E22000A168A11013083120313A3070318A40A96
:102E32000030A40723087807A1007908A00003182E
:102E4200A00AA31F252FA003831203132008A200A8
:102E52002208FF00210884000A128A1500200A169F
:102E62008A11003A031D362F372FF72E08000A1653
:102E72008A116F250A168A114E300A128A15D2203B
:102E82000A168A11F801F80A01300A168A11BA26BE
:102E92000A168A113D30F8008030F9000A168A11AC
:102EA200F2260A168A11F801F80A02300A168A1165
:102EB200BA260A168A110130F8008030F9000A1683
:102EC2008A11F2260A168A11F801F80A03300A1644
:102ED2008A11BA260A168A111530F8008030F900D4
:102EE2000A168A11F2260A168A11F801F80A043023
:102EF2000A168A11BA260A168A112930F800803079
:102F0200F9000A168A11F2260A168A111A30831259
:102F12000313A7005E30A6006D30A500A50B8F2F0E
:102F2200A60B8F2FA70B8F2F962F08008312031348
:102F3200A101F31F9D2F9E2FA52FF209F309F20A7B
:102F42000319F30AA101A10AF51FA82FA92FB22F75
:102F5200F409F509F40A0319F50A0130F6007608B6
:102F6200A106A201A301720873040319B92FBA2F93
:102F7200F12FA001A00AC82F01300310F20DF30DAA
:102F8200FF3E031DBE2F0130F6007608A007F31F97
:102F9200CB2FCC2FBD2F01300310A20DA30DFF3E6E
:102FA200031DCD2F73087502031DD92F72087402F9
:102FB200031CDC2FDD2FE42F7208F4027308031CBC
:102FC200F503F502221401300310F30CF20CFF3E5C
:102FD200031DE52F0130A002031DF02FF12FCC2F8E
:102FE20021080319F52FF62FFB2FA209A309A20A24
:0E2FF2000319A30A2308F3002208F2000800C6
:04400E00D420FF3F7C
:00000001FF
