:060000000A128A110C280F
:10000800FE00030EF2000A08F3000A168A11552CA6
:100018000A128A110F28831603130A128A11FE275F
:100028000A128A11E800831790308400B8300A1643
:100038008A11B4220A128A118313A0308400D530A1
:100048000A168A11B4220A128A1183120313EC01C8
:10005800ED01EE01EF01F601F701F801F901830165
:100068000A168A11652B83160313D900831203130A
:100078006208A3006108A2006008A1005F08A00050
:100088000A168A11E9260A128A1183120313210813
:1000980083160313D6008312031320088316031351
:1000A800D500E001E101DE01DF010130E2000030AE
:1000B800E300831203136208A3006108A20060082A
:1000C800A1005F08A0000030A7000030A6000030A3
:1000D800A5000030A4000A128A1562200A128A11AB
:1000E800031877287828D628BF3083120313C8004E
:1000F8008030C7000030C6000030C5006208CC0060
:100108006108CB006008CA005F08C9000A128A119A
:1001180079240A128A11831203134808E200470857
:10012800E1004608E0004508DF002D30E5008316B1
:10013800031359088400831203136508831380008E
:10014800013083160313DE070318DF0A0030DF07C8
:10015800D6280A3083120313A0000030A1008316AA
:100168000313560883120313A300831603135508B9
:1001780083120313A2000A168A112A250A128A1169
:1001880083120313210883160313D6008312031363
:10019800200883160313D5000130E0070318E10A8D
:1001A8000030E1078316031355085604031DDD28A4
:1001B800DE28AD28162A60036104031DE428E5281B
:1001C800EA280130E2000030E3002C290230D70091
:1001D8000030D8001629831603136308831203130B
:1001E800AA0083160313620883120313A9000A30B6
:1001F800AB000030AC000A168A11CD230A128A110E
:10020800831203132A0883160313E30083120313CC
:10021800290883160313E2000130D7070318D80A08
:100228000030D8076108803A83120313E50083166B
:1002380003135808803A831203136502031D282903
:10024800831603135708600203182B292C29EF285B
:1002580083160313620883120313AF008316031374
:10026800630883120313B0000030B01BFF30B100E5
:10027800B20001300A128A1506210A128A11831265
:1002880003133208C0003108BF003008BE002F0831
:10029800BD006208C4006108C3006008C2005F08AE
:1002A800C1000A128A159B230A128A1183120313AA
:1002B800400883160313DD00831203133F088316D7
:1002C8000313DC00831203133E0883160313DB00B9
:1002D800831203133D0883160313DA00630883129D
:1002E8000313AC0083160313620883120313AB00D5
:1002F800831603135D0883120313A30083160313E5
:100308005C0883120313A200831603135B0883128D
:100318000313A100831603135A0883120313A000C2
:100328000A168A11E9260A128A1183120313210870
:10033800AA002008A9000A168A11CD230A128A11D8
:10034800831203132908AF002A08B0000030B01B3D
:10035800FF30B100B20001300A128A1506210A12D4
:100368008A11831203133208C0003108BF00300815
:10037800BE002F08BD006208C4006108C300600801
:10038800C2005F08C1000A128A11DA270A128A110C
:10039800831203134008E2003F08E1003E08E00032
:1003A8003D08DF00831603135D0883120313A300BF
:1003B800831603135C0883120313A2008316031326
:1003C8005B0883120313A100831603135A088312D0
:1003D8000313A0000A168A11E9260A128A11831249
:1003E80003132008303EE500831603135E085907FF
:1003F80083120313E60066088400650883138000EF
:10040800013083160313DE070318DF0A0030DF0705
:10041800FF30E0070318E10AFF30E1070130E2008E
:100428000030E30060086104031D1B2A1C2ADF2832
:100438002E3083120313E500831603135E08590751
:1004480083120313E600660884006508831380009E
:10045800013083160313DE070318DF0A0030DF07B5
:100468000130D7000030D800602A831603136308D0
:1004780083120313AA00831603136208831203135B
:10048800A9000A30AB000030AC000A168A11CD234F
:100498000A128A11831203132A0883160313E3002E
:1004A80083120313290883160313E2000130D707C8
:1004B8000318D80A0030D807831203136408803A57
:1004C800E500831603135808803A83120313650264
:1004D800031D742A83160313570883120313630238
:1004E8000318772A782A392A831603136208831295
:1004F8000313AF0083160313630883120313B000BA
:100508000030B01BFF30B100B20001300A128A156A
:1005180006210A128A11831203133208C80031080F
:10052800C7003008C6002F08C5006208A30061088C
:10053800A2006008A1005F08A0000A168A11E92637
:100548000A128A11831203132008AF002108B00091
:100558000030B01BFF30B100B20001300A128A151A
:1005680006210A128A11831203133208C0003108C7
:10057800BF003008BE002F08BD006208C400610833
:10058800C3006008C2005F08C1000A128A11DA2796
:100598000A128A11831203134008CC003F08CB00CB
:1005A8003E08CA003D08C9000A128A1179240A12B5
:1005B8008A1183120313480883160313DD0083127C
:1005C8000313470883160313DC008312031346083A
:1005D80083160313DB0083120313450883160313E2
:1005E800DA005D0883120313E200831603135C0824
:1005F80083120313E100831603135B0883120313AA
:10060800E000831603135A0883120313DF006208FD
:10061800A3006108A2006008A1005F08A0000A16F4
:100628008A11E9260A128A11013083160313E2009F
:100638000030E30083120313640883160313E100F8
:1006480083120313630883160313E000622C60030C
:100658006104031D302B312B362B0130E2000030B2
:10066800E300782B0230D7000030D800622B8316C5
:100678000313630883120313AA0083160313620883
:1006880083120313A9000A30AB000030AC000A162D
:100698008A11CD230A128A11831203132A0883169A
:1006A8000313E30083120313290883160313E200DC
:1006B8000130D7070318D80A0030D8076108803AF4
:1006C80083120313E500831603135808803A831234
:1006D80003136502031D742B831603135708600266
:1006E8000318772B782B3B2B83160313620883128E
:1006F8000313AF0083160313630883120313B000B8
:100708000030B01BFF30B100B20001300A128A1568
:1007180006210A128A11831203133208C000310815
:10072800BF003008BE002F08BD006208C400610881
:10073800C3006008C2005F08C1000A128A159B2323
:100748000A128A1183120313400883160313DD006B
:10075800831203133F0883160313DC008312031369
:100768003E0883160313DB00831203133D08831628
:100778000313DA00630883120313AC008316031310
:10078800620883120313AB00831603135D088312F8
:100798000313A300831603135C0883120313A20038
:1007A800831603135B0883120313A1008316031334
:1007B8005A0883120313A0000A168A11E9260A129E
:1007C8008A11831203132108AA002008A9000A1617
:1007D8008A11CD230A128A11831203132908AF0044
:1007E8002A08B0000030B01BFF30B100B200013061
:1007F8000A128A1506210A128A1183120313320873
:10080800C0003108BF003008BE002F08BD006208D4
:10081800C4006108C3006008C2005F08C1000A1272
:100828008A11DA270A128A11831203134008E20098
:100838003F08E1003E08E0003D08DF00831603138F
:100848005D0883120313A300831603135C08831245
:100858000313A200831603135B0883120313A1007A
:10086800831603135A0883120313A0000A168A1169
:10087800E9260A128A11831203132008303EE50084
:10088800831603135E08590783120313E6006608EC
:100898008400650883138000013083160313DE0784
:1008A8000318DF0A0030DF07FF30E0070318E10A0A
:1008B800FF30E1070130E2000030E3006008610426
:1008C800031D672C682C2B2B0A3083120313E500B9
:1008D800831603135E08590783120313E60066089C
:1008E80084006508831380000800831203134808F6
:1008F8008039CD004D08D2004808CD004D07CE0004
:100908004E08D800C71F892C8A2C8B2C58145808DD
:1009180003198F2C902C9F2C580A031D942C952C6E
:100928009D2C0030C8000030C7000030C6000030E1
:10093800C500C717A72C0030C8000030C70000301A
:10094800C6000030C5004C088039CD004D08D206DD
:100958004C08CD004D07CE004E08D300CB1FB52C58
:10096800B62CB72C531453080319BB2CBC2CCB2C16
:10097800530A031DC02CC12CC92C0030CC000030F8
:10098800CB000030CA000030C900CB17D32C003090
:10099800CC000030CB000030CA000030C90053083A
:1009A8000319D72CD82CDD2C5808031DDC2CDD2C82
:1009B800E62C0030C8000030C7000030C600003008
:1009C800C500D92F4508CD004D08F4004B080A167C
:1009D8008A11F4230A128A11750883120313DE00A0
:1009E8007408DD005D08CD00CE01CF01D0015008AC
:1009F800D7004F08D6004E08D5004D08D4005E0831
:100A0800CD00CE01CF01D0015008DC004F08DB003B
:100A18004E08DA004D08D9004608CD004D08F4000C
:100A28004A080A168A11F4230A128A1175088312D1
:100A38000313DE007408DD005D08CD00CE01CF0190
:100A4800D0014D08D4074E0803110318013E0319BD
:100A58002E2DD5074F0803110318013E0319352D14
:100A6800D607500803110318013E03193C2DD70778
:100A78005E08CD00CE01CF01D0014D08D9074E0840
:100A880003110318013E03194A2DDA074F08031111
:100A98000318013E0319512DDB07500803110318F1
:100AA800013E0319582DDC074708CD004D08F40016
:100AB80049080A168A11F4230A128A117508831242
:100AC8000313DE007408DD005D08CD00CE01CF0100
:100AD800D0014D08D4074E0803110318013E03192D
:100AE800762DD5074F0803110318013E03197D2DF4
:100AF800D607500803110318013E0319842DD707A0
:100B08005E08CD00CE01CF01D0014D08D9074E08AF
:100B180003110318013E0319922DDA074F08031138
:100B28000318013E0319992DDB0750080311031818
:100B3800013E0319A02DDC070830CD000310D40DA9
:100B4800D50DD60DD70DCD0BA22D4608CD004D08DD
:100B5800F40049080A168A11F4230A128A11750842
:100B680083120313DE007408DD005D08CD005E0803
:100B7800CE00CF01D0014D08D4074E080311031849
:100B8800013E0319C82DD5074F0803110318013E6C
:100B98000319CF2DD607500803110318013E031976
:100BA800D62DD7074508CD004D08F4004A080A1687
:100BB8008A11F4230A128A11750883120313DE00BE
:100BC8007408DD005D08CD005E08CE00CF01D001BD
:100BD8004D08D4074E0803110318013E0319F52DDB
:100BE800D5074F0803110318013E0319FC2DD6073A
:100BF800500803110318013E0319032ED7070830C4
:100C0800CD000310D40DD50DD60DD70DCD0B052E67
:100C18004508CD004D08F40049080A168A11F42346
:100C28000A128A11750883120313DE007408DD00A6
:100C38005D08CD005E08CE00CF01D0014D08D40775
:100C48004E0803110318013E03192B2ED5074F0830
:100C580003110318013E0319322ED6075008031159
:100C68000318013E0319392ED7074608CD004D0851
:100C7800F4004B080A168A11F4230A128A1175081F
:100C880083120313DE007408DD005D08CD005E08E2
:100C9800CE00CF01D0014D08D9074E080311031823
:100CA800013E0319582EDA074F0803110318013EB5
:100CB80003195F2EDB07500803110318013E0319BF
:100CC800662EDC074708CD004D08F4004A080A16CE
:100CD8008A11F4230A128A11750883120313DE009D
:100CE8007408DD005D08CD005E08CE00CF01D0019C
:100CF8004D08D9074E0803110318013E0319852E24
:100D0800DA074F0803110318013E03198C2EDB077D
:100D1800500803110318013E0319932EDC074708F6
:100D2800CD004D08F4004B080A168A11F4230A1264
:100D38008A11750883120313DE007408DD005D084C
:100D4800CD005E08CE00CF01D00108300310CD0DD4
:100D5800CE0DCF0DD00DFF3E031DAA2E4D08D9078D
:100D68004E0803110318013E0319BB2EDA074F087A
:100D780003110318013E0319C22EDB0750080311A3
:100D88000318013E0319C92EDC075408CD00550885
:100D9800CE005608CF005708D00018300310D00CEA
:100DA800CF0CCE0CCD0CFF3E031DD22E4D08D9071B
:100DB8004E0803110318013E0319E32EDA074F0802
:100DC80003110318013E0319EA2EDB07500803112B
:100DD8000318013E0319F12EDC070830CD0003107B
:100DE800D40DD50DD60DD70DCD0BF32E58085307BE
:100DF800CD00CE01CE0D4D08823EDD004E08031811
:100E0800013EFF3EDE00252F0130CD000310D90D35
:100E1800DA0DDB0DDC0DCD0B0A2FD71F142F152F84
:100E2800162F59140130CD000310D40DD50DD60D51
:100E3800D70DCD0B182FFF30DD070318DE0AFF3062
:100E4800DE07DB1F282F292F082FD301D71F2D2FAF
:100E58002E2F4A2FFF305405CD00FF305505CE0008
:100E6800FF305605CF007F305705D00050084F049B
:100E78004E044D040319412F422F452FD301D30AA5
:100E88004A2F591C482F492F4A2F422F530803191C
:100E98004E2F4F2F802F0130D90700300318013013
:100EA800DA07003003180130DB070030031801307F
:100EB800DC075C1C602F612F802F5908CD005A0871
:100EC800CE005B08CF005C08D0000130D100500D87
:100ED800D00CCF0CCE0CCD0CD10B6B2F5008DC00F6
:100EE8004F08DB004E08DA004D08D9000130DD0755
:100EF8000318DE0A0030DE075E08803AFF00803003
:100F08007F02031D892FFF305D02031C8C2F8D2F5C
:100F1800982F7F3083120313DC008030DB00003011
:100F2800DA000030D900CD2F831203135E08803A0F
:100F3800FF0080307F02031DA32F01305D020318DC
:100F4800A62FA72FB32F003083120313DC00003025
:100F5800DB000030DA000030D900D201CD2F831237
:100F680003135D08CD004D08D800FF30D905FF30C8
:100F7800DA057F30DB050030DC05581CC42FC52F8F
:100F8800C62FDB175808CD0003104D0CCE004E08B5
:100F9800DC005208CD004D08DC045C08C8005B0882
:100FA800C7005A08C6005908C500080080308312D7
:100FB8000313C0064408A3004308A2004208A10086
:100FC8004108A0004008A7003F08A6003E08A50069
:100FD8003D08A4000A128A1578250A128A1183127C
:100FE80003132308C0002208BF002108BE00200800
:060FF800BD0008000834F2
:10100E0083120313A501A31F0D280E281528A2096C
:10101E00A309A20A0319A30AA501A50AA11F18284C
:10102E0019281E28A009A109A00A0319A10A20083F
:10103E0021040319232824285328A401A40A3228A2
:10104E0001300310A00DA10DFF3E031D2828013015
:10105E00F4007408A407A11F352836282728210874
:10106E002302031D3C2820082202031C3F2840288F
:10107E0046282008A2022108031CA303A302013064
:10108E000310A10CA00CFF3E031D47280130A40243
:10109E00031D522853283628250803195728582887
:1010AE005D28A209A309A20A0319A30A2308A10015
:1010BE002208A00008000030831203132005A800A8
:1010CE0000302105A90080302205AA007F302305BB
:1010DE00AB002B082A0429042804031D772878283E
:1010EE0080280030A3000030A2000030A1000030A4
:1010FE00A00000302405A80000302505A90080308E
:10110E002605AA007F302705AB002B082A042904E8
:10111E002804031D932894289C280030A700003033
:10112E00A6000030A5000030A400A31F9F28A02811
:10113E00C4280030A8000030A9000030AA0080307A
:10114E00AB002008A8022108031C210FAF28B028ED
:10115E00A9022208031C220FB528B628AA022308CA
:10116E00031C230FBB28BC28AB022B08A3002A08A4
:10117E00A2002908A1002808A000A71FC728C82878
:10118E00EC280030A8000030A9000030AA00803002
:10119E00AB002408A8022508031C250FD728D82841
:1011AE00A9022608031C260FDD28DE28AA0227081E
:1011BE00031C270FE328E428AB022B08A7002A08FC
:1011CE00A6002908A5002808A4008030A3068030B8
:1011DE00A70627082302031DFE2826082202031D48
:1011EE00FE2825082102031DFE28240820020318CC
:1011FE00012902290429031005290314080083126A
:10120E000313B700370803190D290E292229B21F1F
:10121E001129122922292F09B9003009BA003109E2
:10122E00BB003209BC00B90A0319BA0A0319BB0A7A
:10123E000319BC0A2A293208BC003108BB00300849
:10124E00BA002F08B9003208310430042F04031DF0
:10125E00312932293B290030B2000030B100003074
:10126E00B0000030AF00C1299630B3003308B8008B
:10127E004D290130B3003308B80701300310BC0C00
:10128E00BB0CBA0CB90CFF3E031D4529FE303C05C4
:10129E00031D5229532940296F290130B300330809
:1012AE00B8070130B907003003180130BA07003013
:1012BE0003180130BB07003003180130BC070130A2
:1012CE000310BC0CBB0CBA0CB90CFF3E031D6729F6
:1012DE00FF303C05031D74297529542981290130DD
:1012EE00B8020130B3000310B90DBA0DBB0DBC0D21
:1012FE00B30B7A29BB1B842985298B29023038022E
:10130E0003188A298B29762938188E298F2997292F
:10131E00FF30B905FF30BA057F30BB05FF30BC0585
:10132E000310B80C3808B300B401B501B60118307B
:10133E000310B30DB40DB50DB60DFF3E031D9F2961
:10134E003308B9043408BA043508BB043608BC04A3
:10135E0037080319B329B429B929B21FB729B829F7
:10136E00B929BC173C08B2003B08B1003A08B000DE
:10137E003908AF0008001A3083120313E9005E30FB
:10138E00E8006D30E700E70BCA29E80BCA29E90B24
:10139E00CA29D129093083120313E7006708A40074
:1013AE0001300A168A111D240A128A15CB308312B7
:1013BE000313A4000030A5000A168A1190240A1205
:1013CE008A15093083120313E7006708A400023060
:1013DE000A168A111D240A128A15C13083120313AC
:1013EE00A4000030A5000A168A1190240A128A154C
:1013FE00093083120313E7006708A40003300A16AE
:10140E008A111D240A128A15B73083120313A40001
:10141E000030A5000A168A1190240A128A1583122A
:10142E0003136F08E700E801E901EA016A08B20058
:10143E006908B1006808B0006708AF0000300A12F2
:10144E008A1506210A128A1583120313320883168F
:10145E000313E70083120313310883160313E60008
:10146E0083120313300883160313E500831203134C
:10147E002F0883160313E400670883120313E20098
:10148E0083160313660883120313E10083160313F6
:10149E00650883120313E000831603136408831296
:1014AE000313DF000230E3000030E400CB300A12F9
:1014BE008A1137200A128A15790883120313E7005E
:1014CE00E801E901EA016A08B2006908B10068089A
:1014DE00B0006708AF0000300A128A1506210A1202
:1014EE008A1583120313320883160313E70083123F
:1014FE000313310883160313E60083120313300817
:10150E0083160313E500831203132F0883160313A8
:10151E00E400670883120313E200831603136608C0
:10152E0083120313E100831603136508831203135A
:10153E00E00083160313640883120313DF000230E6
:10154E00E3000030E400C1300A128A1137200A127B
:10155E008A15780883120313E700E801E901EA010E
:10156E006A08B2006908B1006808B0006708AF00E9
:10157E0000300A128A1506210A128A1583120313E5
:10158E00320883160313E700831203133108831600
:10159E000313E60083120313300883160313E500CA
:1015AE00831203132F0883160313E40067088312B4
:1015BE000313E20083160313660883120313E1007C
:1015CE0083160313650883120313E00083160313B7
:1015DE00640883120313DF000230E3000030E400DE
:1015EE00B7300A128A1137200A128A153230831246
:1015FE000313E7006708F40079080A168A110F230F
:10160E000A128A1583120313E8006808831603135F
:10161E00B200193083120313E7006708F40078084C
:10162E000A168A110F230A128A1583120313E80071
:10163E00680883160313B100643083120313E700A6
:10164E006708F4006F080A168A110F230A128A150A
:10165E0083120313E800680883160313B0003208E0
:10166E00300783120313E700831603133108831226
:10167E0003136707E800680883160313B3003308E3
:10168E000A168A1193250A128A150930831203133A
:10169E00E7006708A40004300A168A111D240A12F6
:1016AE008A15831203136E080A168A11AA230A12C8
:1016BE008A150A3083120313E7006708A40004306A
:1016CE000A168A111D240A128A152E300A168A113C
:1016DE00AA230A128A150B3083120313E700670838
:1016EE00A40004300A168A111D240A128A158312C8
:1016FE0003136D080A168A11AA230A128A150C30D2
:10170E0083120313E7006708A40004300A168A1137
:10171E001D240A128A15831203136C080A168A11E5
:10172E00AA230A128A15080083120313440880396B
:10173E00C5004508CE004408C5004507C60046084A
:10174E00D500C31FAB2BAC2BAD2B5514550803196D
:10175E00B12BB22BC22B550A031DB62BB72BBF2BA9
:10176E000030C4000030C3000030C2000030C100A1
:10177E00C317C401CA2B0030C4000030C3000030B0
:10178E00C2000030C10040088039C5004508CE06B1
:10179E004008C5004507C6004608D600BF1FD82B17
:1017AE00D92BDA2B561456080319DE2BDF2BEF2B11
:1017BE00560A031DE32BE42BEC2B0030C000003047
:1017CE00BF000030BE000030BD00BF17C001F72BB8
:1017DE000030C0000030BF000030BE000030BD0041
:1017EE0040083F043E043D04031DFE2BFF2B182C26
:1017FE000030C4000030C3000030C2000030C10011
:10180E008030C3047F30C4044E08C5004508C404AC
:10181E004408C0004308BF004208BE004108BD0096
:10182E00772D5508031D1C2C1D2C262C0030C000B6
:10183E000030BF000030BE000030BD00772D5508CF
:10184E00C500C6014608C80056084502C700031C5D
:10185E00C80347087F3ECF0048080318013E003EEC
:10186E00D0004408CD004308CC004208CB0041080C
:10187E00CA000030C4000030C3000030C200003087
:10188E00C1000030D4000030D3000030D200003050
:10189E00D100D6019C2C56080319562C572C772CA8
:1018AE000130C5000310CA0DCB0DCC0DCD0DC50BEF
:1018BE00592C0130C5000310C10DC20DC30DC40D4E
:1018CE00C50B622CD41F6C2C6D2C6E2C4114013068
:1018DE00C5000310D10DD20DD30DD40DC50B702C38
:1018EE0040084D02031D852C3F084C02031D852C1C
:1018FE003E084B02031D852C3D084A02031C882C12
:10190E00892C982C54173D08CA023E08031C3E0F22
:10191E00CB023F08031C3F0FCC024008031C400FB4
:10192E00CD020130C5004508D6071A305602031CF9
:10193E00A12CA22C522C4D084C044B044A04031922
:10194E00A92CAA2CC92C5114C92C0130C500031086
:10195E00C10DC20DC30DC40DC50BAE2CD41FB82CBA
:10196E00B92CBA2C41140130C5000310D10DD20D83
:10197E00D30DD40DC50BBC2CFF30CF070318D00AE6
:10198E00FF30D007C31FCC2CCD2CAC2CD601D41FCE
:10199E00D12CD22CEE2CFF305105C500FF30520554
:1019AE00C600FF305305C7007F305405C8004808F5
:1019BE004704460445040319E52CE62CE92CD60110
:1019CE00D60AEE2C411CEC2CED2CEE2CE62C5608F7
:1019DE000319F22CF32C242D0130C107003003180B
:1019EE000130C207003003180130C307003003185E
:1019FE000130C407441C042D052D242D4108C500BB
:101A0E004208C6004308C7004408C8000130C90098
:101A1E00480DC80CC70CC60CC50CC90B0F2D4808B9
:101A2E00C4004708C3004608C2004508C100013083
:101A3E00CF070318D00A0030D0075008803AFF00B5
:101A4E0080307F02031D2D2DFF304F02031C302DE1
:101A5E00312D3F2DFF3083120313CF000030D00005
:101A6E000030C4000030C3000030C2000030C1009E
:101A7E00831203135008803AFF0080307F02031D4B
:101A8E004A2D01304F0203184D2D4E2D5B2D831222
:101A9E000313CF01D0010030C4000030C30000306A
:101AAE00C2000030C100CE01831203134F08C500DF
:101ABE004508D500551C642D652D672DC3176B2D5C
:101ACE007F30C5004508C3055508C5000310450CF9
:101ADE00C6004608C4004E08C5004508C4040F2CB5
:101AEE0008008312031323088039A8002808B000C9
:101AFE002308A8002807A9002908B200A21F882DD4
:101B0E00892D8A2D3214320803198E2D8F2D9F2D7B
:101B1E00320A031D932D942D9C2D0030A30000300E
:101B2E00A2000030A1000030A000A217A301A72D33
:101B3E000030A3000030A2000030A1000030A00051
:101B4E0027088039A8002808B1003108300603198B
:101B5E00B12DB22DB32D30172708A8002807A900E4
:101B6E002908B100A61FBC2DBD2DBE2D3114310884
:101B7E000319C22DC32DD32D310A031DC72DC82D18
:101B8E00D02D0030A7000030A6000030A500003098
:101B9E00A400A617A701DB2D0030A7000030A60079
:101BAE000030A5000030A400320831020318E02DE9
:101BBE00E12D252E301FE42DE52DE92D8030A800D6
:101BCE002808B0063208A8002808B3003108A8007B
:101BDE002808B2003308A8002808B1002008A80081
:101BEE002808B3002408A8002808A0003308A8007D
:101BFE002808A4002108A8002808B3002508A8007A
:101C0E002808A1003308A8002808A5002208A8006B
:101C1E002808B3002608A8002808A2003308A80048
:101C2E002808A6002308A8002808B3002708A80043
:101C3E002808A3003308A8002808A700B30131081C
:101C4E00A800A9012908AB0032082802AA00031C2B
:101C5E00AB032B08803AFF0080307F02031D392E24
:101C6E001A302A02031C3C2E3D2E7A2E83120313A9
:101C7E002308220421042004031D462E482E013081
:101C8E00492E0030A8002808B3000030A300003011
:101C9E00A2000030A1000030A0003108A8002808E2
:101CAE00B200822E331C5C2E5D2E662E3308A800E9
:101CBE000310280C0138A9002908B300682E031060
:101CCE00B30C201C6B2E6C2E6D2EB3170130A8009A
:101CDE00230DA30CA20CA10CA00CA80B6F2E01308F
:101CEE00A8002808B2078312031331083202031C1E
:101CFE00812E822E592E301B852E862ED12E320805
:101D0E00031D8A2E8B2E942E0030A3000030A200CD
:101D1E000030A1000030A000FF2F2408A0072508E6
:101D2E0003110318013E03199D2EA1072608031166
:101D3E000318013E0319A42EA20727080311031846
:101D4E00013E0319AB2EA307231CAE2EAF2E852FFB
:101D5E00331CB22EB32EBC2E3308A8000310280C51
:101D6E000138A9002908B300BE2E0310B30C201CA5
:101D7E00C12EC22EC32EB3170130A800230DA30C03
:101D8E00A20CA10CA00CA80BC52E0130A80028088F
:101D9E00B207852F2308803AFF002708803A7F027A
:101DAE00031DE32E26082202031DE32E2508210221
:101DBE00031DE32E240820020318E62EE72E3F2FE4
:101DCE00FF30A800FF30A900FF30AA00FF30AB00A3
:101DDE002408AC002508AD002608AE002708AF0089
:101DEE002008AC022108031C210FFE2EFF2EAD028F
:101DFE002208031C220F042F052FAE022308031CFA
:101E0E00230F0A2F0B2FAF022C08A8072D0803183B
:101E1E002D0F122F132FA9072E0803182E0F182F70
:101E2E00192FAA072F0803182F0AAB072B08A30098
:101E3E002A08A2002908A1002808A0008030A800C6
:101E4E002808B006B309B30A3308031D2F2F302F0D
:101E5E004D2F0130A007003003180130A1070030CC
:101E6E0003180130A207003003180130A3074D2FCD
:101E7E002408A0022508031C250FA1022608031C16
:101E8E00260FA2022708031C270FA30223082204F1
:101E9E0021042004031D542F552F812F3308031DB9
:101EAE00592F5A2F812F0030A3000030A20000308E
:101EBE00A1000030A000FF2F0130A8000310A00DDC
:101ECE00A10DA20DA30DA80B652FB31F6F2F702FA1
:101EDE00712F2014331C742F752F782F0314B30D0C
:101EEE007A2F0310B30D320803197E2F7F2F812F07
:101EFE000130B202A21F842F852F632FB101B31FB1
:101F0E00892F8A2F982F33087F3903198F2F902FFF
:101F1E00932FB101B10A982F201C962F972F982F2F
:101F2E00902F310803199C2F9D2FD12F0130A00720
:101F3E00003003180130A107003003180130A2074A
:101F4E00003003180130A307231CAE2FAF2FD12F63
:101F5E002008A8002108A9002208AA002308AB0027
:101F6E000130AC002B0DAB0CAA0CA90CA80CAC0BC1
:101F7E00B92F2B08A3002A08A2002908A1002808BF
:101F8E00A000320A0319CC2FCD2FD12F0130A8007B
:101F9E002808B207320A0319D52FD62FDB2F3208A5
:101FAE00031DDA2FDB2FE92F0030A3000030A20033
:101FBE000030A1000030A0003208031DE72FE82FEB
:101FCE00E92FB001321CEC2FED2FEF2FA217F32FBC
:101FDE007F30A8002808A2053208A8000310280C9C
:101FEE00A9002908A300B01FFD2FFE2FFF2FA31756
:101FFE000800FF1B0A2883137F1883170008840A22
:10200E000319FF0A080010308A000408840A8207A8
:10201E000034203454346F34743461346C343A34B4
:10202E00513400342034513431342E343034303481
:10203E003A3400342034513430342E343534303484
:10204E003A3400342034513430342E343234353472
:0A205E003A340034253464340034B1
:1025680064008001840A0406031900340406B52AAD
:102578000A168A11CE220A168A1183160313111419
:1025880008000A168A11CE220A168A118316031326
:1025980011150800831603131419D32AD42ACE2A36
:1025A80011081F39031DD92ADA2ACE2A0800283033
:1025B8008312031394008316031391019401CF30FF
:1025C8009300871507160800F4000A168A11CE2210
:1025D8000A168A1174088312031393008C1DF52AB6
:1025E800F62AF22A8C1108000A168A11CE220A1637
:1025F8008A1183160313911583128C1D042B052B46
:10260800002B8C110A168A11CE220A168A118312FF
:1026180003131308080083120313A100A001211C4F
:10262800162B172B1B2B7408F5007508A007031031
:10263800F40D0310A10C2108031D232B242B132BAD
:1026480020080800F5000A168A11BC220A168A1109
:10265800831603132E080A168A11E8220A168A110D
:1026680075088316031368040A168A11E8220A16E5
:102678008A110A168A11C5220A168A1108008312BD
:102688000313A30083160313AF0183120313230854
:10269800F0390A168A1187230A168A11831203133E
:1026A8002308A20003300310A20DFF3E031D572B81
:1026B8000310220DF0390A168A1187230A168A1187
:1026C80008000A168A11D6240A168A110A168A11CF
:1026D800FE250A168A110A128A15C2210A168A11BB
:1026E8000A168A116D260A168A11413083120313BD
:1026F800EB00EB0B7D2B802B831203139F146F2BA6
:102708000A128A110C2883120313A10083160313DB
:102718002F0883120313A0002008A10421080438FD
:102728000A168A1126230A168A118312031321080E
:10273800FB390A168A1126230A168A1120308312B9
:102748000313A000A00BA62B00000800831203139C
:10275800A30083160313AF01AF0A831203132308E0
:10276800F0390A168A1187230A168A11831203136D
:102778002308A20003300310A20DFF3E031DBF2B48
:102788000310220DF0390A168A1187230A168A11B6
:10279800080083120313AD01AE01291CD42BD52BDD
:1027A800DB2B2B08AD070318AE0A2C08AE07013047
:1027B8000310AB0DAC0DFF3E031DDC2B01300310E5
:1027C800AA0CA90CFF3E031DE32B29082A04031DAC
:1027D800EE2BEF2BD12B2E08AA002D08A9000800FC
:1027E80083120313A600A201A3017408A000A1018B
:1027F8002008A4002108A500261C032C042C0A2C60
:102808002408A2070318A30A2508A3070130031008
:10281800A40DA50DFF3E031D0B2C0310A60C2608C6
:10282800031D172C182C002C2308F5002208F4008F
:10283800080083120313A700412C2408BF3E0A1680
:102848008A1143230A168A11542C2408933E0A1627
:102858008A1143230A168A11542C2408D33E0A16D7
:102868008A1143230A168A11542C24087F3E0A161B
:102878008A1143230A168A11542C2708A500A60199
:102888002608003A0319492C392C2508023A03195D
:10289800212C013A0319292C073A0319312C392C18
:1028A8000800831203130C1F5A2C5B2C892C1F0C55
:1028B800F000700C0F39003A031D632C642C882C2F
:1028C8001E08F0000310700C7C3E95001E080139AC
:1028D800F000F00EF00D17087006DF39700697004B
:1028E800831603131E08F00007300310F00CFF3E98
:1028F800031D792C7008F100F10E831203131708D9
:102908007106EF39710697000C1373088A00720E6E
:102918008300FE0E7E0E090083120313A901AA018B
:10292800B92C29082407A7002508A6000318A60A19
:10293800A91F9F2CA603831203132608A8002808A2
:10294800FF00270884000A168A1100200A168A1137
:102958000A168A11AA230A168A1101308312031350
:10296800A9070318AA0A0030AA0729082407A700FC
:102978002508A6000318A60AA91FC32CA6038312BC
:1029880003132608A8002808FF00270884000A1651
:102998008A1100200A168A11003A031DD42CD52C5E
:1029A800952C0800013083160317880089018316C7
:1029B800031305140614861388010F168F160F17B4
:1029C8000F14C330831203139F054230F400F40B35
:1029D800EB2C0000831203131F139F171F14831679
:1029E80003139F139F121F1207158714FA309200C2
:1029F8003F308312031397050F309D041708F039F1
:102A08000C3897000F309500CF3097050F309B009A
:102A18001D129D128C101210921412158C1C152D5B
:102A2800162D122D8C1083160313071187100C17FF
:102A3800831203130C13850186018701880189011C
:102A48000A168A11DB220A168A1108008312031358
:102A5800A501A11F302D312D382DA009A109A00AEB
:102A68000319A10AA501A50AA31F3B2D3C2D452D3D
:102A7800A209A309A20A0319A30A0130F4007408E1
:102A8800A506A601A7012008210403194C2D4D2DE8
:102A9800842DA401A40A5B2D01300310A00DA10D03
:102AA800FF3E031D512D0130F4007408A407A11F37
:102AB8005E2D5F2D502D01300310A60DA70DFF3E92
:102AC800031D602D21082302031D6C2D20082202FE
:102AD800031C6F2D702D772D2008A2022108031CDE
:102AE800A303A302261401300310A10CA00CFF3E7F
:102AF800031D782D0130A402031D832D842D5F2D25
:102B080025080319882D892D8E2DA609A709A60A3F
:102B18000319A70A2708A1002608A0000800F50045
:102B2800643083120313A0000030A1007508A800C8
:102B3800A9012808A2002908A3000A168A112A2533
:102B48000A168A11831203132008AA002A08EE0025
:102B58006430A0000030A1007508A800A901280869
:102B6800A2002908A3000A128A1507200A168A114A
:102B7800831203132008AA002A08F6000A30A000CE
:102B88000030A1007608A800A9012808A200290899
:102B9800A3000A168A112A250A168A11831203131A
:102BA8002008AA002A08ED000A30A0000030A10081
:102BB8007608A800A9012808A2002908A3000A127B
:102BC8008A1507200A168A11831203132008AA00FF
:102BD8002A08EC006E08303EA8002808EE006D08B0
:102BE800303EA8002808ED006C08303EA8002808F0
:102BF800EC0008000A168A11DB220A168A114E30E8
:102C08000A168A1165270A168A1183120313A4016A
:102C1800A40A01300A168A111D240A168A110A30DC
:102C280083120313A4008030A5000A168A11902489
:102C38000A168A1183120313A401A40A02300A1681
:102C48008A111D240A168A11123083120313A40054
:102C58008030A5000A168A1190240A168A11831258
:102C68000313A401A40A03300A168A111D240A16A4
:102C78008A111A3083120313A4008030A5000A16A3
:102C88008A1190240A168A1183120313A401A40A34
:102C980004300A168A111D240A168A11013083127B
:102CA8000313A4008030A5000A168A1190240A167E
:102CB8008A111A3083120313AD005E30AC006D30F8
:102CC800AB00AB0B652EAC0B652EAD0B652E6C2ED9
:102CD80008000A168A11BC220A168A1161300A16DF
:102CE8008A11E8220A168A110A168A11F8220A1687
:102CF8008A1183120313A0002008EF000A168A1114
:102D0800C5220A168A11033083120313A200083061
:102D1800A1007630A000A00B8F2EA10B8F2EA20B46
:102D28008F2E00000A168A11BC220A168A117130E9
:102D38000A168A11E8220A168A110A168A11F82236
:102D48000A168A1183120313A0002008F9000A1634
:102D58008A11C5220A168A11033083120313A200AE
:102D68000830A1007630A000A00BB82EA10BB82E19
:102D7800A20BB82E00000A168A11BC220A168A1164
:102D880081300A168A11E8220A168A110A168A114F
:102D9800F8220A168A1183120313A0002008F800EB
:102DA8000A168A11C5220A168A11033083120313E0
:102DB800A2000830A1007630A000A00BE12EA10BE4
:102DC800E12EA20BE12E000008000310831203136A
:102DD800220D230DA4002408F5007508031DF52E07
:102DE800F62EFF2E0030A3000030A2000030A10014
:102DF8000030A000642F2008A4002108A5002208A4
:102E0800A6002308A7001F300310A70CA60CA50CCA
:102E1800A40CFF3E031D082F2408A8002808F4006E
:102E2800A217FF30A005FF30A105FF30A205003032
:102E3800A3059630F502F51F222F232F3D2F750885
:102E4800803A973E0318292F2A2F2B2FF62E013070
:102E58000310A30CA20CA10CA00CFF3E031D2C2FE9
:102E68000130A4002408F507031D3B2F3C2F2B2F0E
:102E7800542F20307502031C422F432F4F2FF62E5C
:102E88000130A4000310A00DA10DA20DA30DA40BE9
:102E9800462F0130F5027508031D532F542F442F78
:102EA80074080319582F592F642FA009A109A209E2
:102EB800A309A00A0319A10A0319A20A0319A30A5C
:102EC800080083120313A6002608A400240883160A
:102ED8000313AE0000300A168A1126230A168A1137
:102EE8004E3083120313A500EA30A400A40B7A2FF6
:102EF800A50B7A2F000003300A168A1143230A16FD
:102F08008A110D3083120313A500FB30A400A40B13
:102F18008B2FA50B8B2F03300A168A1143230A1611
:102F28008A110D3083120313A500FB30A400A40BF3
:102F38009B2FA50B9B2F03300A168A1143230A16D1
:102F48008A110D3083120313A500FB30A400A40BD3
:102F5800AB2FA50BAB2F02300A168A1143230A1692
:102F68008A110D3083120313A500FB30A400A40BB3
:102F7800BB2FA50BBB2F28300A168A1143230A162C
:102F88008A11823083120313A500DD30A400A40B3C
:102F9800CB2FA50BCB2F0C300A168A1143230A1608
:102FA8008A11823083120313A500DD30A400A40B1C
:102FB800DB2FA50BDB2F01300A168A1143230A16D3
:102FC8008A11823083120313A500DD30A400A40BFC
:102FD800EB2FA50BEB2F06300A168A1143230A168E
:102FE8008A11823083120313A500DD30A400A40BDC
:082FF800FB2FA50BFB2F0800C5
:04400E00D420FF3F7C
:00000001FF
