:020000040000FA
:060000000A128A11FA2F1A
:100F78000A128A11E2270A128A110A128A11CA274A
:100F88000A128A11C12F0A128A1100288312031328
:100F9800051CCF2FD02FDE2F86170630F200133016
:100FA800F100AD30F000F00BD72FF10BD72FF20B7B
:100FB800D72FDE2F83120313861308008316031717
:100FC8008801890183160313051486138801061402
:100FD8000F178F160F160F148B178B150B100B1777
:100FE800831203138801850186010800F301F401C7
:080FF80083010A128A11BC2FCB
:04400E00D420FF3F7C
:00000001FF
