:020000040000FA
:060000000A128A110C280F
:10000800FE00030EF1000A08F2000A128A111428F1
:100018000A128A110F28F80183010A128A1182280C
:10002800831203138C1D19281A287B281412141BF9
:100038001E281F282328941F222823282A2813082B
:10004800F0007008F80014139413141683160313A1
:10005800941A2F2830285728141933283428572859
:100068000430F000F00B3628000083120313130845
:10007800F0007008F80040284128831203138C11FF
:10008800141683160313141C4A284B284528831278
:1000980003131308F0007008F700A630F000F00B07
:1000A800532800007828941A5A285B287828141DA9
:1000B8005E285F287828831203131308F00070085D
:1000C800F8008316031314107708831203139300A0
:1000D8001416A630F000F00B6F28000083160313E7
:1000E8001418772878287228831203138C11720841
:1000F8008A00710E8300FE0E7E0E09000A128A1114
:10010800BC200A128A110130F40074088312031308
:1001180088070808F4007408F7000830F6009D30D6
:10012800F5000530F400F40B9728F50B9728F60B2B
:1001380097289E2887280A128A110C28F30073082A
:100148008316031393003630831203139400803010
:1001580083160313940001309100871507168B1737
:100168000B17831203138C11831603138C150800C5
:1001780083160317880189018316031388010F1753
:100188008F160F160F1450300A128A11A2200A1265
:0C0198008A118B178312031388010800E2
:04400E00D420FF3F7C
:00000001FF
