:020000040000FA
:060000000A128A110C280F
:10000800FE00030EF5000A08F6000A128A111828E5
:100018000A128A110F28F701F801F901FA01FB0108
:1000280083010A128A11B7280B1C1B281C283E289A
:10003800831203138618212822283D280A128A11C0
:1000480000210A128A111530F4004B30F300BE303B
:10005800F200F20B2D28F30B2D28F40B2D280000AD
:100068000A128A1119210A128A110130F200720843
:10007800F9070B10831203130C1F4328442879280F
:100088001F0CF200720C0F39003A031D4C284D2842
:1000980072281E08F2007208F700AA3077020318C7
:1000A800562857285A28061386120616E230770271
:1000B80003185F2860286928AA307702031C65287E
:1000C80066286928061386160612E2307702031C92
:1000D8006E286F2872280617861206122130F20041
:1000E800F20B7428831203130C1376088A00750E1A
:1000F8008300FE0E7E0E09008316031386148514F2
:100108000514013083160317880089018316031329
:10011800861306138612061208108B170B178B15F9
:100128000B10831203130C13831603130C1781137C
:100138000230950096140F178F160F160F14C33040
:10014800831203139F059F171F171F14831603138A
:100158009F131F129F1283120313850187018601C3
:100168008801890108000A128A1180200A128A115E
:10017800083083120313A5009D30A4000530A300A6
:10018800A30BC428A40BC428A50BC4280A128A11DF
:10019800DD200A128A11413083120313A300A30B36
:1001A800D328D628831203139F14BC280A128A1155
:1001B8000C28831203138518E228E328FA288617E7
:1001C800063083120313A2001330A100AD30A00043
:1001D800A00BEC28A10BEC28A20BEC28831203132C
:1001E80086130130A0002008F807FF288518FD288D
:1001F800FE28FF288613080083120313081406300C
:10020800F1003030F000F00B0729F10B072900004E
:100218008312031308102F30F100BF30F000F00BE9
:100228001329F10B13291829080083120313081442
:10023800C730F0001F292029F00B1E292329242963
:1002480025298312031308103330F1001F30F00002
:0C025800F00B2C29F10B2C293129080097
:04400E00D420FF3F7C
:00000001FF
