:060000000A128A110C280F
:10000800FE00030EF5000A08F6000A128A111828E5
:100018000A128A110F28F701F801F901FA01FB0108
:1000280083010A128A114E29831203138C1D1D287D
:100038001E2890281412141B222823282728941FCE
:10004800262827282E281308F2007208FB0014130C
:100058009413141683160313941A332834285B2830
:100068001419372838285B280430F200F20B3A2894
:100078000000831203131308F2007208FB004428DF
:100088004528831203138C11141683160313141CAA
:100098004E284F284928831203131308F2007208C8
:1000A800F800A630F200F20B572800008D28941AA9
:1000B8005E285F288D28141D622863288D288312E6
:1000C80003131308F2007208FB00831603131410BD
:1000D80078088312031393000330F4008A30F30086
:1000E8005530F200F20B7628F30B7628F40B7628BD
:1000F8007D2877088312031393001416A630F200A4
:10010800F20B842800008316031314188C288D28FA
:100118008728831203138C110B1C93289428B42866
:10012800861897289828B3280A128A111C210A12BF
:100138008A110B30F4002630F3005D30F200F20B28
:10014800A328F30BA328F40BA328AA280A128A11C0
:1001580035210A128A110130F2007208F9070B10D2
:1001680076088A00750E8300FE0E7E0E090083163F
:1001780003178801890183160313051406148613CF
:1001880088018B170B17861409108113023095000C
:1001980096140F178F160F160F1450300A128A1163
:1001A80000210A128A118B178B150B100B1783125B
:1001B80003138501870186018801890108008312DC
:1001C80003130518E828E928FC2886170130A00041
:1001D8002008F707063083120313A2001330A1008A
:1001E800AD30A000A00BF628A10BF628A20BF6282C
:1001F800831203138613080083120313A000200838
:10020800831603139300363083120313940080304F
:1002180083160313940001309100871507168B1776
:100228000B17831203138C11831603138C15080004
:100238008312031309140630F1003030F000F00B7C
:100248002329F10B232900008312031309102F30EF
:10025800F100BF30F000F00B2F29F10B2F293429C2
:100268000800831203130914C730F0003B293C2906
:10027800F00B3A293F294029412983120313091019
:100288003330F1001F30F000F00B4829F10B4829FA
:100298004D2908000A128A11BB200A128A110A1273
:1002A8008A11E3200A128A1153290A128A110C288A
:04400E00D420FF3F7C
:00000001FF
