:060000000A128A110C280F
:10000800FE00030EF5000A08F6000A128A115128AC
:100018000A128A110F28F701F801F901FA01FB0108
:1000280083010A128A11EC28831603138614851497
:1000380005140130831603178800890183160313FA
:10004800861306138612061208108B170B148B15CD
:100058000B170B110C17831203130C1383160313BE
:10006800811303309500961416140F178F160F1668
:100078000F14C330831203139F059F171F171F14F4
:10008800831603139F131F129F12831203138501F4
:10009800870186018801890108000B1C542855280E
:1000A80081288312031386185A285B2880280A128D
:1000B8008A1188200A128A110A128A11A1200A12AA
:1000C8008A110A128A11BA200A128A111530F4000C
:1000D8004B30F300BE30F200F20B7028F30B70289F
:1000E800F40B702800000A128A11D3200A128A1110
:1000F8000130F2007208F9070B1076088A00750EB5
:100108008300FE0E7E0E09008312031308140630C6
:10011800F1003030F000F00B8F28F10B8F28000031
:100128008312031308102F30F100BF30F000F00BDA
:100138009B28F10B9B28A02808008312031308149E
:100148000430F100E430F000F00BA828F10BA828E7
:1001580000008312031308103130F1000B30F00057
:10016800F00BB428F10BB428B92808008312031344
:1001780008140430F1003D30F000F00BC128F10BF9
:10018800C128C6288312031308103130F100B23099
:10019800F000F00BCD28F10BCD28000008008312E9
:1001A80003130814C730F000D928DA28F00BD82830
:1001B800DD28DE28DF288312031308103330F1000E
:1001C8001F30F000F00BE628F10BE628EB280800BA
:1001D8000A128A1118200A128A1141308312031355
:1001E800A000A00BF528F828831203139F14F12808
:0601F8000A128A110C2816
:04400E00D420FF3F7C
:00000001FF
