:060000000A128A110C280F
:10000800FE00030EF5000A08F6000A128A111928E4
:100018000A128A110F28F701F801F901FA01FB0108
:10002800FC0183010A128A118B29831203138C1D88
:100038001E281F2880281412141B23282428282847
:10004800941F272828282F281308F2007208FC007C
:1000580014139413141683160313941A342835288A
:100068005C281419382839285C280430F200F20B6F
:100078003B280000831203131308F2007208FC00E7
:1000880045284628831203138C111416831603136C
:10009800141C4F2850284A28831203131308F2000F
:1000A8007208FB00A630F200F20B582800007D28E9
:1000B800941A5F2860287D28141D632864287D28E9
:1000C800831203131308F2007208FC00831603134B
:1000D80014107A088312031393001416A630F20042
:1000E800F20B742800008316031314187C287D284B
:1000F8007728831203138C110C1F83288428B928AE
:100108001F0CF200720C0F39003A031D8C288D2841
:10011800B2281E08F2007208F900AA307902031802
:10012800962897289A28061386120616E23079022E
:1001380003189F28A028A928AA307902031CA528FB
:10014800A628A928061386160612E2307902031C8F
:10015800AE28AF28B2280617861206122130F20000
:10016800F20BB428831203130C130B1CBC28BD28F4
:10017800DF288618C028C128DE280A128A115921CA
:100188000A128A111530F4004B30F300BE30F20029
:10019800F20BCC28F30BCC28F40BCC2800000A1265
:1001A8008A1172210A128A110130F7070318F80A16
:1001B8000030F8070B1076088A00750E8300FE0ED3
:1001C8007E0E090001308316031788008901831603
:1001D8000313051406140612861206138613081054
:1001E8000F178F160F160F148B170B178B150B1075
:1001F800831203130C13831603130C178113023095
:1002080095009614C330831203139F059F171F1779
:100218001F14831603139F131F129F1283120313B5
:100228008501860187018801890160300A128A11D7
:100238003D210A128A110800831203138518252903
:100248002629392986170130A0002008FA07063028
:1002580083120313A2001330A100AD30A000A00B3D
:100268003329A10B3329A20B3329831203138613D5
:10027800080083120313A0002008831603139300B9
:1002880036308312031394008030831603139400CE
:1002980001309100871507168B170B17831203136C
:1002A8008C11831603138C1508008312031308148A
:1002B8000630F1003030F000F00B6029F10B6029B6
:1002C80000008312031308102F30F100BF30F00034
:1002D800F00B6C29F10B6C297129080083120313A8
:1002E8000814C730F00078297929F00B77297C2980
:1002F8007D297E298312031308103330F1001F3043
:10030800F000F00B8529F10B85298A2908000A12CB
:100318008A11E6200A128A110A128A1120210A1269
:100328008A11413083120313A300A30B99299C2936
:0E033800831203139F1490290A128A110C28B5
:04400E00D420FF3F7C
:00000001FF
