:020000040000FA
:060000000A128A11F32F21
:100C72000A128A1155260A128A11831603131114B5
:100C820008000A128A1155260A128A1183160313C2
:100C9200111508000A128A1155260A128A117008C3
:100CA20083120313930008008316031314195A2E98
:100CB2005B2E552E11081F39031D602E612E552EF5
:100CC200080083160317880189018316031386011E
:100CD2008501880183120313850186018801831629
:100CE20003130F178F160F160F14003083120313FE
:100CF200A3000130A2008630A100A030A0000A1299
:100D02008A11B4260A128A1108000A128A1155267B
:100D12000A128A118316031391150A128A11552693
:100D22000A128A11831203131308F200F3017208E4
:100D3200F4007308F5000A128A1155260A128A1164
:100D420070037104031DA62EA72EAB2E8316031368
:100D52009112AE2E83160313911611167508F10027
:100D62007408F000080028308312031394008316DD
:100D720003139101831203132008A4002108A50084
:100D82002208A6002308A70002300310A40DA50D17
:100D9200A60DA70DFF3E031DC62E2708F300260849
:100DA200F2002508F1002408F0000030F7007A3044
:100DB200F6001230F5000030F4000A128A11EC2617
:100DC2000A128A117008FF3E8316031393009401DE
:100DD2008715071608000030FC000030FB000030C9
:100DE200FA000030F90073087204710470040319E8
:100DF200FB2EFC2E492FFD01FD0A0C2F0130F800BD
:100E02000310F00DF10DF20DF30DF80B012F01306F
:100E1200F8007808FD07F31F0F2F102FFF2E013067
:100E2200F8000310F90DFA0DFB0DFC0DF80B122F53
:100E320073087702031D272F72087602031D272FDE
:100E420071087502031D272F70087402031C2A2FD4
:100E52002B2F3A2F7008F4027108031C710FF50250
:100E62007208031C720FF6027308031C730FF70259
:100E7200791401300310F30CF20CF10CF00CFF3E6C
:100E8200031D3B2F0130FD02031D482F492F102F58
:100E92007C08F3007B08F2007A08F1007908F00080
:100EA20008000A128A1162260A128A110A128A118B
:100EB20039260A128A115130F0000030F1000A126C
:100EC2008A114B260A128A110030F000F1000A1230
:100ED2008A1186260A128A11700883120313A80047
:100EE2002808B0000A128A1142260A128A11033017
:100EF20083120313AA000830A9007630A800A80BB9
:100F0200802FA90B802FAA0B802F00000A128A11B2
:100F120039260A128A116130F0000030F1000A12FB
:100F22008A114B260A128A110030F000F1000A12CF
:100F32008A1186260A128A11700883120313A800E6
:100F42002808B1000A128A1142260A128A110330B5
:100F520083120313AA000830A9007630A800A80B58
:100F6200B02FA90BB02FAA0BB02F00000A128A11C2
:100F720039260A128A117130F0000030F1000A128B
:100F82008A114B260A128A110030F000F1000A126F
:100F92008A1186260A128A11710883120313AC0081
:100FA2007008AB000A128A1142260A128A11033013
:100FB20083120313AA000830A9007630A800A80BF8
:100FC200E02FA90BE02FAA0BE02F000083120313DE
:100FD20030088500310886002B088800572F0A1236
:100FE2008A11002883120313AB01AC01AD01AE01DB
:0E0FF200AF01B001B10183010A128A11522F22
:04400E00D420FF3F7C
:00000001FF
